{
  "contractName": "Arbitrage",
  "abi": [
    {
      "inputs": [
        {
          "internalType": "address",
          "name": "_factory",
          "type": "address"
        },
        {
          "internalType": "address",
          "name": "_sushiRouter",
          "type": "address"
        }
      ],
      "stateMutability": "nonpayable",
      "type": "constructor"
    },
    {
      "inputs": [],
      "name": "factory",
      "outputs": [
        {
          "internalType": "address",
          "name": "",
          "type": "address"
        }
      ],
      "stateMutability": "view",
      "type": "function"
    },
    {
      "inputs": [],
      "name": "sushiRouter",
      "outputs": [
        {
          "internalType": "contract IUniswapV2Router02",
          "name": "",
          "type": "address"
        }
      ],
      "stateMutability": "view",
      "type": "function"
    },
    {
      "inputs": [
        {
          "internalType": "address",
          "name": "token0",
          "type": "address"
        },
        {
          "internalType": "address",
          "name": "token1",
          "type": "address"
        },
        {
          "internalType": "uint256",
          "name": "amount0",
          "type": "uint256"
        },
        {
          "internalType": "uint256",
          "name": "amount1",
          "type": "uint256"
        }
      ],
      "name": "startArbitrage",
      "outputs": [],
      "stateMutability": "nonpayable",
      "type": "function"
    },
    {
      "inputs": [
        {
          "internalType": "address",
          "name": "_sender",
          "type": "address"
        },
        {
          "internalType": "uint256",
          "name": "_amount0",
          "type": "uint256"
        },
        {
          "internalType": "uint256",
          "name": "_amount1",
          "type": "uint256"
        },
        {
          "internalType": "bytes",
          "name": "_data",
          "type": "bytes"
        }
      ],
      "name": "uniswapV2Call",
      "outputs": [],
      "stateMutability": "nonpayable",
      "type": "function"
    }
  ],
  "bytecode": "0x608060405234801561001057600080fd5b506040516116a13803806116a18339818101604052604081101561003357600080fd5b810190808051906020019092919080519060200190929190505050816000806101000a81548173ffffffffffffffffffffffffffffffffffffffff021916908373ffffffffffffffffffffffffffffffffffffffff16021790555080600160006101000a81548173ffffffffffffffffffffffffffffffffffffffff021916908373ffffffffffffffffffffffffffffffffffffffff16021790555050506115c1806100e06000396000f3fe608060405234801561001057600080fd5b506004361061004c5760003560e01c806310d1e85c146100515780636d13582c146100fe57806376e9d06614610132578063c45a0155146101aa575b600080fd5b6100fc6004803603608081101561006757600080fd5b81019080803573ffffffffffffffffffffffffffffffffffffffff1690602001909291908035906020019092919080359060200190929190803590602001906401000000008111156100b857600080fd5b8201836020820111156100ca57600080fd5b803590602001918460018302840111640100000000831117156100ec57600080fd5b90919293919293905050506101de565b005b610106610957565b604051808273ffffffffffffffffffffffffffffffffffffffff16815260200191505060405180910390f35b6101a86004803603608081101561014857600080fd5b81019080803573ffffffffffffffffffffffffffffffffffffffff169060200190929190803573ffffffffffffffffffffffffffffffffffffffff169060200190929190803590602001909291908035906020019092919050505061097d565b005b6101b2610c3f565b604051808273ffffffffffffffffffffffffffffffffffffffff16815260200191505060405180910390f35b6060600267ffffffffffffffff811180156101f857600080fd5b506040519080825280602002602001820160405280156102275781602001602082028036833780820191505090505b5090506000808614610239578561023b565b845b905060003373ffffffffffffffffffffffffffffffffffffffff16630dfe16816040518163ffffffff1660e01b815260040160206040518083038186803b15801561028557600080fd5b505afa158015610299573d6000803e3d6000fd5b505050506040513d60208110156102af57600080fd5b8101908080519060200190929190505050905060003373ffffffffffffffffffffffffffffffffffffffff1663d21220a76040518163ffffffff1660e01b815260040160206040518083038186803b15801561030a57600080fd5b505afa15801561031e573d6000803e3d6000fd5b505050506040513d602081101561033457600080fd5b8101908080519060200190929190505050905061037260008054906101000a900473ffffffffffffffffffffffffffffffffffffffff168383610c63565b73ffffffffffffffffffffffffffffffffffffffff163373ffffffffffffffffffffffffffffffffffffffff1614610412576040517f08c379a000000000000000000000000000000000000000000000000000000000815260040180806020018281038252600c8152602001807f556e617574686f72697a6564000000000000000000000000000000000000000081525060200191505060405180910390fd5b60008814806104215750600087145b61042a57600080fd5b60008814610438578161043a565b805b8460008151811061044757fe5b602002602001019073ffffffffffffffffffffffffffffffffffffffff16908173ffffffffffffffffffffffffffffffffffffffff16815250506000881461048f5780610491565b815b8460018151811061049e57fe5b602002602001019073ffffffffffffffffffffffffffffffffffffffff16908173ffffffffffffffffffffffffffffffffffffffff168152505060008089146104e757826104e9565b815b90508073ffffffffffffffffffffffffffffffffffffffff1663095ea7b3600160009054906101000a900473ffffffffffffffffffffffffffffffffffffffff16866040518363ffffffff1660e01b8152600401808373ffffffffffffffffffffffffffffffffffffffff16815260200182815260200192505050602060405180830381600087803b15801561057e57600080fd5b505af1158015610592573d6000803e3d6000fd5b505050506040513d60208110156105a857600080fd5b81019080805190602001909291905050505060006105e760008054906101000a900473ffffffffffffffffffffffffffffffffffffffff168688610d7c565b6000815181106105f357fe5b602002602001015190506000600160009054906101000a900473ffffffffffffffffffffffffffffffffffffffff1673ffffffffffffffffffffffffffffffffffffffff166338ed173987848a33620d2f006040518663ffffffff1660e01b815260040180868152602001858152602001806020018473ffffffffffffffffffffffffffffffffffffffff168152602001838152602001828103825285818151815260200191508051906020019060200280838360005b838110156106c55780820151818401526020810190506106aa565b505050509050019650505050505050600060405180830381600087803b1580156106ee57600080fd5b505af1158015610702573d6000803e3d6000fd5b505050506040513d6000823e3d601f19601f82011682018060405250602081101561072c57600080fd5b810190808051604051939291908464010000000082111561074c57600080fd5b8382019150602082018581111561076257600080fd5b825186602082028301116401000000008211171561077f57600080fd5b8083526020830192505050908051906020019060200280838360005b838110156107b657808201518184015260208101905061079b565b505050509050016040525050506001815181106107cf57fe5b602002602001015190506000808c146107e857846107ea565b855b90508073ffffffffffffffffffffffffffffffffffffffff1663a9059cbb33856040518363ffffffff1660e01b8152600401808373ffffffffffffffffffffffffffffffffffffffff16815260200182815260200192505050602060405180830381600087803b15801561085d57600080fd5b505af1158015610871573d6000803e3d6000fd5b505050506040513d602081101561088757600080fd5b8101908080519060200190929190505050508073ffffffffffffffffffffffffffffffffffffffff1663a9059cbb328585036040518363ffffffff1660e01b8152600401808373ffffffffffffffffffffffffffffffffffffffff16815260200182815260200192505050602060405180830381600087803b15801561090c57600080fd5b505af1158015610920573d6000803e3d6000fd5b505050506040513d602081101561093657600080fd5b81019080805190602001909291905050505050505050505050505050505050565b600160009054906101000a900473ffffffffffffffffffffffffffffffffffffffff1681565b60008060009054906101000a900473ffffffffffffffffffffffffffffffffffffffff1673ffffffffffffffffffffffffffffffffffffffff1663e6a4390586866040518363ffffffff1660e01b8152600401808373ffffffffffffffffffffffffffffffffffffffff1681526020018273ffffffffffffffffffffffffffffffffffffffff1681526020019250505060206040518083038186803b158015610a2557600080fd5b505afa158015610a39573d6000803e3d6000fd5b505050506040513d6020811015610a4f57600080fd5b81019080805190602001909291905050509050600073ffffffffffffffffffffffffffffffffffffffff168173ffffffffffffffffffffffffffffffffffffffff161415610b05576040517f08c379a00000000000000000000000000000000000000000000000000000000081526004018080602001828103825260188152602001807f5468697320706f6f6c20646f6573206e6f74206578697374000000000000000081525060200191505060405180910390fd5b8073ffffffffffffffffffffffffffffffffffffffff1663022c0d9f8484306040518060400160405280600981526020017f6e6f7420656d70747900000000000000000000000000000000000000000000008152506040518563ffffffff1660e01b8152600401808581526020018481526020018373ffffffffffffffffffffffffffffffffffffffff16815260200180602001828103825283818151815260200191508051906020019080838360005b83811015610bd1578082015181840152602081019050610bb6565b50505050905090810190601f168015610bfe5780820380516001836020036101000a031916815260200191505b5095505050505050600060405180830381600087803b158015610c2057600080fd5b505af1158015610c34573d6000803e3d6000fd5b505050505050505050565b60008054906101000a900473ffffffffffffffffffffffffffffffffffffffff1681565b6000806000610c728585610efc565b91509150858282604051602001808373ffffffffffffffffffffffffffffffffffffffff1660601b81526014018273ffffffffffffffffffffffffffffffffffffffff1660601b8152601401925050506040516020818303038152906040528051906020012060405160200180807fff000000000000000000000000000000000000000000000000000000000000008152506001018373ffffffffffffffffffffffffffffffffffffffff1660601b8152601401828152602001807f96e8ac4277198ff8b6f785478aa9a39f403cb768dd02cbee326c3e7da348845f815250602001925050506040516020818303038152906040528051906020012060001c925050509392505050565b6060600282511015610df6576040517f08c379a000000000000000000000000000000000000000000000000000000000815260040180806020018281038252601e8152602001807f556e697377617056324c6962726172793a20494e56414c49445f50415448000081525060200191505060405180910390fd5b815167ffffffffffffffff81118015610e0e57600080fd5b50604051908082528060200260200182016040528015610e3d5781602001602082028036833780820191505090505b5090508281600183510381518110610e5157fe5b6020026020010181815250506000600183510390505b6000811115610ef457600080610ea787866001860381518110610e8657fe5b6020026020010151878681518110610e9a57fe5b6020026020010151611073565b91509150610ec9848481518110610eba57fe5b6020026020010151838361119c565b846001850381518110610ed857fe5b6020026020010181815250505050808060019003915050610e67565b509392505050565b6000808273ffffffffffffffffffffffffffffffffffffffff168473ffffffffffffffffffffffffffffffffffffffff161415610f84576040517f08c379a000000000000000000000000000000000000000000000000000000000815260040180806020018281038252602581526020018061151e6025913960400191505060405180910390fd5b8273ffffffffffffffffffffffffffffffffffffffff168473ffffffffffffffffffffffffffffffffffffffff1610610fbe578284610fc1565b83835b8092508193505050600073ffffffffffffffffffffffffffffffffffffffff168273ffffffffffffffffffffffffffffffffffffffff16141561106c576040517f08c379a000000000000000000000000000000000000000000000000000000000815260040180806020018281038252601e8152602001807f556e697377617056324c6962726172793a205a45524f5f41444452455353000081525060200191505060405180910390fd5b9250929050565b60008060006110828585610efc565b509050600080611093888888610c63565b73ffffffffffffffffffffffffffffffffffffffff16630902f1ac6040518163ffffffff1660e01b815260040160606040518083038186803b1580156110d857600080fd5b505afa1580156110ec573d6000803e3d6000fd5b505050506040513d606081101561110257600080fd5b81019080805190602001909291908051906020019092919080519060200190929190505050506dffffffffffffffffffffffffffff1691506dffffffffffffffffffffffffffff1691508273ffffffffffffffffffffffffffffffffffffffff168773ffffffffffffffffffffffffffffffffffffffff1614611186578082611189565b81815b8095508196505050505050935093915050565b60008084116111f6576040517f08c379a000000000000000000000000000000000000000000000000000000000815260040180806020018281038252602c8152602001806114f2602c913960400191505060405180910390fd5b6000831180156112065750600082115b61125b576040517f08c379a00000000000000000000000000000000000000000000000000000000081526004018080602001828103825260288152602001806115436028913960400191505060405180910390fd5b60006112846103e861127687876112d990919063ffffffff16565b6112d990919063ffffffff16565b905060006112af6103e56112a1888761135f90919063ffffffff16565b6112d990919063ffffffff16565b90506112ce60018284816112bf57fe5b046113a990919063ffffffff16565b925050509392505050565b6000808314156112ec5760009050611359565b60008284029050828482816112fd57fe5b0414611354576040517f08c379a000000000000000000000000000000000000000000000000000000000815260040180806020018281038252602181526020018061156b6021913960400191505060405180910390fd5b809150505b92915050565b60006113a183836040518060400160405280601e81526020017f536166654d6174683a207375627472616374696f6e206f766572666c6f770000815250611431565b905092915050565b600080828401905083811015611427576040517f08c379a000000000000000000000000000000000000000000000000000000000815260040180806020018281038252601b8152602001807f536166654d6174683a206164646974696f6e206f766572666c6f77000000000081525060200191505060405180910390fd5b8091505092915050565b60008383111582906114de576040517f08c379a00000000000000000000000000000000000000000000000000000000081526004018080602001828103825283818151815260200191508051906020019080838360005b838110156114a3578082015181840152602081019050611488565b50505050905090810190601f1680156114d05780820380516001836020036101000a031916815260200191505b509250505060405180910390fd5b506000838503905080915050939250505056fe556e697377617056324c6962726172793a20494e53554646494349454e545f4f55545055545f414d4f554e54556e697377617056324c6962726172793a204944454e544943414c5f414444524553534553556e697377617056324c6962726172793a20494e53554646494349454e545f4c4951554944495459536166654d6174683a206d756c7469706c69636174696f6e206f766572666c6f77a2646970667358221220d48ef75b41c8d0559a4469d6dc9f94c41748e4691aff38cec0e771853b2cc0bd64736f6c634300060c0033",
  "immutableReferences": {},
  "source": "pragma solidity ^0.6.6;\r\n\r\nimport './UniswapV2Library.sol';\r\nimport './interfaces/IUniswapV2Router02.sol';\r\nimport './interfaces/IUniswapV2Pair.sol';\r\nimport './interfaces/IUniswapV2Factory.sol';\r\nimport './interfaces/IERC20.sol';\r\n\r\ncontract Arbitrage {\r\n  address public factory;\r\n  uint constant deadline = 10 days;\r\n  IUniswapV2Router02 public sushiRouter;\r\n\r\n  constructor(address _factory, address _sushiRouter) public {\r\n    factory = _factory;  \r\n    sushiRouter = IUniswapV2Router02(_sushiRouter);\r\n  }\r\n\r\n  function startArbitrage(\r\n    address token0, \r\n    address token1, \r\n    uint amount0, \r\n    uint amount1\r\n  ) external {\r\n    address pairAddress = IUniswapV2Factory(factory).getPair(token0, token1);\r\n    require(pairAddress != address(0), 'This pool does not exist');\r\n    IUniswapV2Pair(pairAddress).swap(\r\n      amount0, \r\n      amount1, \r\n      address(this), \r\n      bytes('not empty')\r\n    );\r\n  }\r\n\r\n  function uniswapV2Call(\r\n    address _sender, \r\n    uint _amount0, \r\n    uint _amount1, \r\n    bytes calldata _data\r\n  ) external {\r\n    address[] memory path = new address[](2);\r\n    uint amountToken = _amount0 == 0 ? _amount1 : _amount0;\r\n    \r\n    address token0 = IUniswapV2Pair(msg.sender).token0();\r\n    address token1 = IUniswapV2Pair(msg.sender).token1();\r\n\r\n    require(\r\n      msg.sender == UniswapV2Library.pairFor(factory, token0, token1), \r\n      'Unauthorized'\r\n    ); \r\n    require(_amount0 == 0 || _amount1 == 0);\r\n\r\n    path[0] = _amount0 == 0 ? token1 : token0;\r\n    path[1] = _amount0 == 0 ? token0 : token1;\r\n\r\n    IERC20 token = IERC20(_amount0 == 0 ? token1 : token0);\r\n    \r\n    token.approve(address(sushiRouter), amountToken);\r\n\r\n    uint amountRequired = UniswapV2Library.getAmountsIn(\r\n      factory, \r\n      amountToken, \r\n      path\r\n    )[0];\r\n    uint amountReceived = sushiRouter.swapExactTokensForTokens(\r\n      amountToken, \r\n      amountRequired, \r\n      path, \r\n      msg.sender, \r\n      deadline\r\n    )[1];\r\n\r\n    IERC20 otherToken = IERC20(_amount0 == 0 ? token0 : token1);\r\n    otherToken.transfer(msg.sender, amountRequired);\r\n    otherToken.transfer(tx.origin, amountReceived - amountRequired);\r\n  }\r\n}",
  "sourcePath": "C:\\Users\\mcgra\\OneDrive\\Documents\\EthereumProgramming\\Bot\\contracts\\flashSwap.sol",
  "compiler": {
    "name": "solc",
    "version": "0.6.12+commit.27d51765.Emscripten.clang"
  },
  "schemaVersion": "3.4.3",
  "updatedAt": "2021-11-13T22:01:18.756Z",
  "devdoc": {
    "kind": "dev",
    "methods": {},
    "version": 1
  },
  "userdoc": {
    "kind": "user",
    "methods": {},
    "version": 1
  }
}