{
  "contractName": "Arbitrage",
  "abi": [
    {
      "inputs": [
        {
          "internalType": "address",
          "name": "_factory",
          "type": "address"
        },
        {
          "internalType": "address",
          "name": "_sushiRouter",
          "type": "address"
        }
      ],
      "stateMutability": "nonpayable",
      "type": "constructor"
    },
    {
      "stateMutability": "payable",
      "type": "fallback"
    },
    {
      "inputs": [],
      "name": "WETH",
      "outputs": [
        {
          "internalType": "address",
          "name": "",
          "type": "address"
        }
      ],
      "stateMutability": "view",
      "type": "function"
    },
    {
      "inputs": [
        {
          "internalType": "address",
          "name": "token",
          "type": "address"
        }
      ],
      "name": "baseTokensContains",
      "outputs": [
        {
          "internalType": "bool",
          "name": "hasBeenFound",
          "type": "bool"
        }
      ],
      "stateMutability": "view",
      "type": "function"
    },
    {
      "inputs": [],
      "name": "factory",
      "outputs": [
        {
          "internalType": "address",
          "name": "",
          "type": "address"
        }
      ],
      "stateMutability": "view",
      "type": "function"
    },
    {
      "inputs": [
        {
          "internalType": "address",
          "name": "pool0",
          "type": "address"
        },
        {
          "internalType": "address",
          "name": "pool1",
          "type": "address"
        },
        {
          "internalType": "bool",
          "name": "baseTokenSmaller",
          "type": "bool"
        }
      ],
      "name": "getOrderedReserves",
      "outputs": [
        {
          "internalType": "address",
          "name": "lowerPool",
          "type": "address"
        },
        {
          "internalType": "address",
          "name": "higherPool",
          "type": "address"
        },
        {
          "components": [
            {
              "internalType": "uint256",
              "name": "a1",
              "type": "uint256"
            },
            {
              "internalType": "uint256",
              "name": "b1",
              "type": "uint256"
            },
            {
              "internalType": "uint256",
              "name": "a2",
              "type": "uint256"
            },
            {
              "internalType": "uint256",
              "name": "b2",
              "type": "uint256"
            }
          ],
          "internalType": "struct MaximumProfit.OrderedReserves",
          "name": "orderedReserves",
          "type": "tuple"
        }
      ],
      "stateMutability": "nonpayable",
      "type": "function"
    },
    {
      "inputs": [
        {
          "internalType": "address",
          "name": "pool0",
          "type": "address"
        },
        {
          "internalType": "address",
          "name": "pool1",
          "type": "address"
        }
      ],
      "name": "isbaseTokenSmaller",
      "outputs": [
        {
          "internalType": "bool",
          "name": "baseSmaller",
          "type": "bool"
        },
        {
          "internalType": "address",
          "name": "baseToken",
          "type": "address"
        },
        {
          "internalType": "address",
          "name": "quoteToken",
          "type": "address"
        }
      ],
      "stateMutability": "view",
      "type": "function"
    },
    {
      "inputs": [],
      "name": "sushiRouter",
      "outputs": [
        {
          "internalType": "contract IUniswapV2Router02",
          "name": "",
          "type": "address"
        }
      ],
      "stateMutability": "view",
      "type": "function"
    },
    {
      "stateMutability": "payable",
      "type": "receive"
    },
    {
      "inputs": [
        {
          "internalType": "address",
          "name": "pool0",
          "type": "address"
        },
        {
          "internalType": "address",
          "name": "pool1",
          "type": "address"
        }
      ],
      "name": "flashSwap",
      "outputs": [],
      "stateMutability": "nonpayable",
      "type": "function"
    },
    {
      "inputs": [
        {
          "internalType": "address",
          "name": "sender",
          "type": "address"
        },
        {
          "internalType": "uint256",
          "name": "amount0",
          "type": "uint256"
        },
        {
          "internalType": "uint256",
          "name": "amount1",
          "type": "uint256"
        },
        {
          "internalType": "bytes",
          "name": "data",
          "type": "bytes"
        }
      ],
      "name": "uniswapV2Call",
      "outputs": [],
      "stateMutability": "nonpayable",
      "type": "function"
    }
  ],
  "bytecode": "0x6080604052604051806040016040528073c02aaa39b223fe8d0a0e5c4f27ead9083c756cc273ffffffffffffffffffffffffffffffffffffffff1673ffffffffffffffffffffffffffffffffffffffff1681526020017363ac0665e65d938a8dcc44e3c79c6cd2c18525c273ffffffffffffffffffffffffffffffffffffffff1673ffffffffffffffffffffffffffffffffffffffff168152506001906002620000ab929190620001ab565b506001600460006101000a81548173ffffffffffffffffffffffffffffffffffffffff021916908373ffffffffffffffffffffffffffffffffffffffff160217905550348015620000fb57600080fd5b5060405162002dc838038062002dc8833981810160405281019062000121919062000270565b81600260006101000a81548173ffffffffffffffffffffffffffffffffffffffff021916908373ffffffffffffffffffffffffffffffffffffffff16021790555080600360006101000a81548173ffffffffffffffffffffffffffffffffffffffff021916908373ffffffffffffffffffffffffffffffffffffffff1602179055505050620002ff565b82805482825590600052602060002090810192821562000227579160200282015b82811115620002265782518260006101000a81548173ffffffffffffffffffffffffffffffffffffffff021916908373ffffffffffffffffffffffffffffffffffffffff16021790555091602001919060010190620001cc565b5b5090506200023691906200023a565b5090565b5b80821115620002555760008160009055506001016200023b565b5090565b6000815190506200026a81620002e5565b92915050565b600080604083850312156200028457600080fd5b6000620002948582860162000259565b9250506020620002a78582860162000259565b9150509250929050565b6000620002be82620002c5565b9050919050565b600073ffffffffffffffffffffffffffffffffffffffff82169050919050565b620002f081620002b1565b8114620002fc57600080fd5b50565b612ab9806200030f6000396000f3fe60806040526004361061007f5760003560e01c80638e6222c41161004e5780638e6222c4146101a4578063ad5c4648146101e3578063c45a01551461020e578063d9b456ee1461023957610086565b806310d1e85c146100d45780631a129969146100fd57806321d094261461013c5780636d13582c1461017957610086565b3661008657005b6000366060600080600080868660049080926100a493929190612872565b8101906100b19190611dc8565b93509350935093506100c584848484610262565b50505050915050805190602001f35b3480156100e057600080fd5b506100fb60048036038101906100f69190611ece565b610262565b005b34801561010957600080fd5b50610124600480360381019061011f9190611e43565b6105a9565b604051610133939291906125b0565b60405180910390f35b34801561014857600080fd5b50610163600480360381019061015e9190611d76565b6109f7565b6040516101709190612595565b60405180910390f35b34801561018557600080fd5b5061018e610aaa565b60405161019b91906125e7565b60405180910390f35b3480156101b057600080fd5b506101cb60048036038101906101c69190611e7f565b610ad0565b6040516101da93929190612535565b60405180910390f35b3480156101ef57600080fd5b506101f8610d54565b60405161020591906124ff565b60405180910390f35b34801561021a57600080fd5b50610223610d78565b60405161023091906124ff565b60405180910390f35b34801561024557600080fd5b50610260600480360381019061025b9190611e43565b610d9e565b005b600460009054906101000a900473ffffffffffffffffffffffffffffffffffffffff1673ffffffffffffffffffffffffffffffffffffffff163373ffffffffffffffffffffffffffffffffffffffff16146102f2576040517f08c379a00000000000000000000000000000000000000000000000000000000081526004016102e990612662565b60405180910390fd5b3073ffffffffffffffffffffffffffffffffffffffff168473ffffffffffffffffffffffffffffffffffffffff1614610360576040517f08c379a000000000000000000000000000000000000000000000000000000000815260040161035790612702565b60405180910390fd5b600080841161036f5782610371565b835b90506000828060200190518101906103899190611f72565b9050806060015173ffffffffffffffffffffffffffffffffffffffff1663a9059cbb8260200151846040518363ffffffff1660e01b81526004016103ce92919061256c565b602060405180830381600087803b1580156103e857600080fd5b505af11580156103fc573d6000803e3d6000fd5b505050506040513d601f19601f820116820180604052508101906104209190611f49565b5060008082604001516104395760008360c00151610441565b8260c0015160005b91509150826020015173ffffffffffffffffffffffffffffffffffffffff1663022c0d9f838330600067ffffffffffffffff8111801561048057600080fd5b506040519080825280601f01601f1916602001820160405280156104b35781602001600182028036833780820191505090505b506040518563ffffffff1660e01b81526004016104d39493929190612798565b600060405180830381600087803b1580156104ed57600080fd5b505af1158015610501573d6000803e3d6000fd5b50505050826080015173ffffffffffffffffffffffffffffffffffffffff1663a9059cbb84600001518560a001516040518363ffffffff1660e01b815260040161054c92919061256c565b602060405180830381600087803b15801561056657600080fd5b505af115801561057a573d6000803e3d6000fd5b505050506040513d601f19601f8201168201806040525081019061059e9190611f49565b505050505050505050565b60008060008373ffffffffffffffffffffffffffffffffffffffff168573ffffffffffffffffffffffffffffffffffffffff16141561061d576040517f08c379a0000000000000000000000000000000000000000000000000000000008152600401610614906126c2565b60405180910390fd5b6000808673ffffffffffffffffffffffffffffffffffffffff16630dfe16816040518163ffffffff1660e01b815260040160206040518083038186803b15801561066657600080fd5b505afa15801561067a573d6000803e3d6000fd5b505050506040513d601f19601f8201168201806040525081019061069e9190611d9f565b8773ffffffffffffffffffffffffffffffffffffffff1663d21220a76040518163ffffffff1660e01b815260040160206040518083038186803b1580156106e457600080fd5b505afa1580156106f8573d6000803e3d6000fd5b505050506040513d601f19601f8201168201806040525081019061071c9190611d9f565b915091506000808773ffffffffffffffffffffffffffffffffffffffff16630dfe16816040518163ffffffff1660e01b815260040160206040518083038186803b15801561076957600080fd5b505afa15801561077d573d6000803e3d6000fd5b505050506040513d601f19601f820116820180604052508101906107a19190611d9f565b8873ffffffffffffffffffffffffffffffffffffffff1663d21220a76040518163ffffffff1660e01b815260040160206040518083038186803b1580156107e757600080fd5b505afa1580156107fb573d6000803e3d6000fd5b505050506040513d601f19601f8201168201806040525081019061081f9190611d9f565b915091508273ffffffffffffffffffffffffffffffffffffffff168473ffffffffffffffffffffffffffffffffffffffff1610801561088957508073ffffffffffffffffffffffffffffffffffffffff168273ffffffffffffffffffffffffffffffffffffffff16105b6108c8576040517f08c379a00000000000000000000000000000000000000000000000000000000081526004016108bf90612602565b60405180910390fd5b8173ffffffffffffffffffffffffffffffffffffffff168473ffffffffffffffffffffffffffffffffffffffff1614801561092e57508073ffffffffffffffffffffffffffffffffffffffff168373ffffffffffffffffffffffffffffffffffffffff16145b61096d576040517f08c379a000000000000000000000000000000000000000000000000000000000815260040161096490612722565b60405180910390fd5b610976846109f7565b806109865750610985836109f7565b5b6109c5576040517f08c379a00000000000000000000000000000000000000000000000000000000081526004016109bc906126e2565b60405180910390fd5b6109ce846109f7565b6109db57600083856109e0565b600184845b809750819850829950505050505050509250925092565b6000806000905060005b600180549050811015610a8f578373ffffffffffffffffffffffffffffffffffffffff1660018281548110610a3257fe5b9060005260206000200160009054906101000a900473ffffffffffffffffffffffffffffffffffffffff1673ffffffffffffffffffffffffffffffffffffffff161415610a825760019150610a8f565b8080600101915050610a01565b508115610aa0576001915050610aa5565b809150505b919050565b600360009054906101000a900473ffffffffffffffffffffffffffffffffffffffff1681565b600080610adb611a46565b6000808773ffffffffffffffffffffffffffffffffffffffff16630902f1ac6040518163ffffffff1660e01b815260040160606040518083038186803b158015610b2457600080fd5b505afa158015610b38573d6000803e3d6000fd5b505050506040513d601f19601f82011682018060405250810190610b5c9190611f9b565b506dffffffffffffffffffffffffffff1691506dffffffffffffffffffffffffffff1691506000808873ffffffffffffffffffffffffffffffffffffffff16630902f1ac6040518163ffffffff1660e01b815260040160606040518083038186803b158015610bca57600080fd5b505afa158015610bde573d6000803e3d6000fd5b505050506040513d601f19601f82011682018060405250810190610c029190611f9b565b506dffffffffffffffffffffffffffff1691506dffffffffffffffffffffffffffff16915060008089610c6a57610c4a86610c3c876113c0565b6113f890919063ffffffff16565b610c6585610c57866113c0565b6113f890919063ffffffff16565b610ca1565b610c8585610c77886113c0565b6113f890919063ffffffff16565b610ca084610c92876113c0565b6113f890919063ffffffff16565b5b91509150610cb8818361142d90919063ffffffff16565b15610d03578b8b809950819a50505089610cd55784868486610cda565b858585855b8a6000018b6020018c6040018d6060018481525084815250848152508481525050505050610d45565b8a8c809950819a50505089610d1b5782848688610d20565b838387875b8a6000018b6020018c6040018d60600184815250848152508481525084815250505050505b50505050505093509350939050565b60008054906101000a900473ffffffffffffffffffffffffffffffffffffffff1681565b600260009054906101000a900473ffffffffffffffffffffffffffffffffffffffff1681565b610da6611a6e565b610db083836105a9565b8360400184600001856020018373ffffffffffffffffffffffffffffffffffffffff1673ffffffffffffffffffffffffffffffffffffffff168152508373ffffffffffffffffffffffffffffffffffffffff1673ffffffffffffffffffffffffffffffffffffffff168152508315151515815250505050610e2f611a46565b610e3e84848460400151610ad0565b84606001856080018295508373ffffffffffffffffffffffffffffffffffffffff1673ffffffffffffffffffffffffffffffffffffffff168152508373ffffffffffffffffffffffffffffffffffffffff1673ffffffffffffffffffffffffffffffffffffffff168152505050508160600151600460006101000a81548173ffffffffffffffffffffffffffffffffffffffff021916908373ffffffffffffffffffffffffffffffffffffffff1602179055506000826000015173ffffffffffffffffffffffffffffffffffffffff166370a08231306040518263ffffffff1660e01b8152600401610f30919061251a565b60206040518083038186803b158015610f4857600080fd5b505afa158015610f5c573d6000803e3d6000fd5b505050506040513d601f19601f82011682018060405250810190610f809190611fea565b90506000670de0b6b3a764000090506000808560400151610fa357826000610fa7565b6000835b915091506000610fc08487600001518860200151611443565b90506000610fd78588606001518960400151611554565b905081811161101b576040517f08c379a000000000000000000000000000000000000000000000000000000000815260040161101290612622565b60405180910390fd5b611023611af7565b8860600151816000019073ffffffffffffffffffffffffffffffffffffffff16908173ffffffffffffffffffffffffffffffffffffffff16815250508860800151816020019073ffffffffffffffffffffffffffffffffffffffff16908173ffffffffffffffffffffffffffffffffffffffff168152505088604001518160400190151590811515815250508860200151816060019073ffffffffffffffffffffffffffffffffffffffff16908173ffffffffffffffffffffffffffffffffffffffff16815250508860000151816080019073ffffffffffffffffffffffffffffffffffffffff16908173ffffffffffffffffffffffffffffffffffffffff1681525050828160a0018181525050818160c001818152505060008160405160200161114e9190612762565b6040516020818303038152906040529050896060015173ffffffffffffffffffffffffffffffffffffffff1663022c0d9f878730856040518563ffffffff1660e01b81526004016111a29493929190612798565b600060405180830381600087803b1580156111bc57600080fd5b505af11580156111d0573d6000803e3d6000fd5b50505050505050505050506000836000015173ffffffffffffffffffffffffffffffffffffffff166370a08231306040518263ffffffff1660e01b815260040161121a919061251a565b60206040518083038186803b15801561123257600080fd5b505afa158015611246573d6000803e3d6000fd5b505050506040513d601f19601f8201168201806040525081019061126a9190611fea565b90508181116112ae576040517f08c379a00000000000000000000000000000000000000000000000000000000081526004016112a590612682565b60405180910390fd5b60008054906101000a900473ffffffffffffffffffffffffffffffffffffffff1673ffffffffffffffffffffffffffffffffffffffff16846000015173ffffffffffffffffffffffffffffffffffffffff16141561137657836000015173ffffffffffffffffffffffffffffffffffffffff16632e1a7d4d826040518263ffffffff1660e01b8152600401611343919061277d565b600060405180830381600087803b15801561135d57600080fd5b505af1158015611371573d6000803e3d6000fd5b505050505b6001600460006101000a81548173ffffffffffffffffffffffffffffffffffffffff021916908373ffffffffffffffffffffffffffffffffffffffff160217905550505050505050565b6113c8611b8e565b60405180602001604052806113ee670de0b6b3a76400008561165890919063ffffffff16565b8152509050919050565b611400611b8e565b60405180602001604052806114228486600001516116de90919063ffffffff16565b815250905092915050565b60008061143a8484611728565b14905092915050565b6000808411611487576040517f08c379a000000000000000000000000000000000000000000000000000000000815260040161147e90612642565b60405180910390fd5b6000831180156114975750600082115b6114d6576040517f08c379a00000000000000000000000000000000000000000000000000000000081526004016114cd906126a2565b60405180910390fd5b60006114ff6103e86114f1878761176890919063ffffffff16565b61176890919063ffffffff16565b9050600061152a6103e561151c88876117ee90919063ffffffff16565b61176890919063ffffffff16565b9050611549600182848161153a57fe5b0461183890919063ffffffff16565b925050509392505050565b6000808411611598576040517f08c379a000000000000000000000000000000000000000000000000000000000815260040161158f90612742565b60405180910390fd5b6000831180156115a85750600082115b6115e7576040517f08c379a00000000000000000000000000000000000000000000000000000000081526004016115de906126a2565b60405180910390fd5b60006115fe6103e58661176890919063ffffffff16565b90506000611615848361176890919063ffffffff16565b90506000611640836116326103e88961176890919063ffffffff16565b61183890919063ffffffff16565b905080828161164b57fe5b0493505050509392505050565b60008083141561166b57600090506116d8565b600082840290508284828161167c57fe5b04146116d3576040517f08c379a0000000000000000000000000000000000000000000000000000000008152600401808060200182810382526021815260200180612a636021913960400191505060405180910390fd5b809150505b92915050565b600061172083836040518060400160405280601a81526020017f536166654d6174683a206469766973696f6e206279207a65726f0000000000008152506118c0565b905092915050565b60008160000151836000015114156117435760019050611762565b816000015183600001511161175957600061175c565b60025b60ff1690505b92915050565b60008083141561177b57600090506117e8565b600082840290508284828161178c57fe5b04146117e3576040517f08c379a0000000000000000000000000000000000000000000000000000000008152600401808060200182810382526021815260200180612a636021913960400191505060405180910390fd5b809150505b92915050565b600061183083836040518060400160405280601e81526020017f536166654d6174683a207375627472616374696f6e206f766572666c6f770000815250611986565b905092915050565b6000808284019050838110156118b6576040517f08c379a000000000000000000000000000000000000000000000000000000000815260040180806020018281038252601b8152602001807f536166654d6174683a206164646974696f6e206f766572666c6f77000000000081525060200191505060405180910390fd5b8091505092915050565b6000808311829061196c576040517f08c379a00000000000000000000000000000000000000000000000000000000081526004018080602001828103825283818151815260200191508051906020019080838360005b83811015611931578082015181840152602081019050611916565b50505050905090810190601f16801561195e5780820380516001836020036101000a031916815260200191505b509250505060405180910390fd5b50600083858161197857fe5b049050809150509392505050565b6000838311158290611a33576040517f08c379a00000000000000000000000000000000000000000000000000000000081526004018080602001828103825283818151815260200191508051906020019080838360005b838110156119f85780820151818401526020810190506119dd565b50505050905090810190601f168015611a255780820380516001836020036101000a031916815260200191505b509250505060405180910390fd5b5060008385039050809150509392505050565b6040518060800160405280600081526020016000815260200160008152602001600081525090565b6040518060a00160405280600073ffffffffffffffffffffffffffffffffffffffff168152602001600073ffffffffffffffffffffffffffffffffffffffff168152602001600015158152602001600073ffffffffffffffffffffffffffffffffffffffff168152602001600073ffffffffffffffffffffffffffffffffffffffff1681525090565b6040518060e00160405280600073ffffffffffffffffffffffffffffffffffffffff168152602001600073ffffffffffffffffffffffffffffffffffffffff168152602001600015158152602001600073ffffffffffffffffffffffffffffffffffffffff168152602001600073ffffffffffffffffffffffffffffffffffffffff16815260200160008152602001600081525090565b6040518060200160405280600081525090565b6000611bb4611baf84612815565b6127e4565b905082815260208101848484011115611bcc57600080fd5b611bd7848285612983565b509392505050565b600081359050611bee816129d8565b92915050565b600081519050611c03816129d8565b92915050565b600081359050611c18816129ef565b92915050565b600081359050611c2d81612a06565b92915050565b600081519050611c4281612a06565b92915050565b600082601f830112611c5957600080fd5b8135611c69848260208601611ba1565b91505092915050565b600060e08284031215611c8457600080fd5b611c8e60e06127e4565b90506000611c9e84828501611bf4565b6000830152506020611cb284828501611bf4565b6020830152506040611cc684828501611c33565b6040830152506060611cda84828501611bf4565b6060830152506080611cee84828501611bf4565b60808301525060a0611d0284828501611d4c565b60a08301525060c0611d1684828501611d4c565b60c08301525092915050565b600081519050611d3181612a1d565b92915050565b600081359050611d4681612a34565b92915050565b600081519050611d5b81612a34565b92915050565b600081519050611d7081612a4b565b92915050565b600060208284031215611d8857600080fd5b6000611d9684828501611bdf565b91505092915050565b600060208284031215611db157600080fd5b6000611dbf84828501611bf4565b91505092915050565b60008060008060808587031215611dde57600080fd5b6000611dec87828801611c09565b9450506020611dfd87828801611d37565b9350506040611e0e87828801611d37565b925050606085013567ffffffffffffffff811115611e2b57600080fd5b611e3787828801611c48565b91505092959194509250565b60008060408385031215611e5657600080fd5b6000611e6485828601611bdf565b9250506020611e7585828601611bdf565b9150509250929050565b600080600060608486031215611e9457600080fd5b6000611ea286828701611bdf565b9350506020611eb386828701611bdf565b9250506040611ec486828701611c1e565b9150509250925092565b60008060008060808587031215611ee457600080fd5b6000611ef287828801611bdf565b9450506020611f0387828801611d37565b9350506040611f1487828801611d37565b925050606085013567ffffffffffffffff811115611f3157600080fd5b611f3d87828801611c48565b91505092959194509250565b600060208284031215611f5b57600080fd5b6000611f6984828501611c33565b91505092915050565b600060e08284031215611f8457600080fd5b6000611f9284828501611c72565b91505092915050565b600080600060608486031215611fb057600080fd5b6000611fbe86828701611d22565b9350506020611fcf86828701611d22565b9250506040611fe086828701611d61565b9150509250925092565b600060208284031215611ffc57600080fd5b600061200a84828501611d4c565b91505092915050565b61201c81612929565b82525050565b61202b816128a5565b82525050565b61203a816128a5565b82525050565b612049816128c9565b82525050565b612058816128c9565b82525050565b600061206982612845565b6120738185612850565b9350612083818560208601612992565b61208c816129c7565b840191505092915050565b6120a08161293b565b82525050565b60006120b3601d83612861565b91507f4e6f6e207374616e6461726420756e697377617020414d4d20706169720000006000830152602082019050919050565b60006120f3601b83612861565b91507f417262697472616765206661696c65642c206e6f2070726f66697400000000006000830152602082019050919050565b6000612133602c83612861565b91507f556e697377617056324c6962726172793a20494e53554646494349454e545f4f60008301527f55545055545f414d4f554e5400000000000000000000000000000000000000006020830152604082019050919050565b6000612199601d83612861565b91507f4e6f6e207065726d697373696f6e656420616464726573732063616c6c0000006000830152602082019050919050565b60006121d9602483612861565b91507f54726164652077696c6c206c6f6f736520796f75206d6f6e657920726576657260008301527f74696e67000000000000000000000000000000000000000000000000000000006020830152604082019050919050565b600061223f602883612861565b91507f556e697377617056324c6962726172793a20494e53554646494349454e545f4c60008301527f49515549444954590000000000000000000000000000000000000000000000006020830152604082019050919050565b60006122a5601183612861565b91507f53616d65207061697220616464726573730000000000000000000000000000006000830152602082019050919050565b60006122e5601583612861565b91507f4e6f206261736520746f6b656e20696e207061697200000000000000000000006000830152602082019050919050565b6000612325602083612861565b91507f4e6f74206265696e672073656e742066726f6d2074687320636f6e74726163746000830152602082019050919050565b6000612365601783612861565b91507f526571756972652073616d6520746f6b656e20706169720000000000000000006000830152602082019050919050565b60006123a5602b83612861565b91507f556e697377617056324c6962726172793a20494e53554646494349454e545f4960008301527f4e5055545f414d4f554e540000000000000000000000000000000000000000006020830152604082019050919050565b60e0820160008201516124146000850182612022565b5060208201516124276020850182612022565b50604082015161243a6040850182612040565b50606082015161244d6060850182612022565b5060808201516124606080850182612022565b5060a082015161247360a08501826124e1565b5060c082015161248660c08501826124e1565b50505050565b6080820160008201516124a260008501826124e1565b5060208201516124b560208501826124e1565b5060408201516124c860408501826124e1565b5060608201516124db60608501826124e1565b50505050565b6124ea8161290f565b82525050565b6124f98161290f565b82525050565b60006020820190506125146000830184612031565b92915050565b600060208201905061252f6000830184612013565b92915050565b600060c08201905061254a6000830186612031565b6125576020830185612031565b612564604083018461248c565b949350505050565b60006040820190506125816000830185612031565b61258e60208301846124f0565b9392505050565b60006020820190506125aa600083018461204f565b92915050565b60006060820190506125c5600083018661204f565b6125d26020830185612031565b6125df6040830184612031565b949350505050565b60006020820190506125fc6000830184612097565b92915050565b6000602082019050818103600083015261261b816120a6565b9050919050565b6000602082019050818103600083015261263b816120e6565b9050919050565b6000602082019050818103600083015261265b81612126565b9050919050565b6000602082019050818103600083015261267b8161218c565b9050919050565b6000602082019050818103600083015261269b816121cc565b9050919050565b600060208201905081810360008301526126bb81612232565b9050919050565b600060208201905081810360008301526126db81612298565b9050919050565b600060208201905081810360008301526126fb816122d8565b9050919050565b6000602082019050818103600083015261271b81612318565b9050919050565b6000602082019050818103600083015261273b81612358565b9050919050565b6000602082019050818103600083015261275b81612398565b9050919050565b600060e08201905061277760008301846123fe565b92915050565b600060208201905061279260008301846124f0565b92915050565b60006080820190506127ad60008301876124f0565b6127ba60208301866124f0565b6127c76040830185612013565b81810360608301526127d9818461205e565b905095945050505050565b6000604051905081810181811067ffffffffffffffff8211171561280b5761280a6129c5565b5b8060405250919050565b600067ffffffffffffffff8211156128305761282f6129c5565b5b601f19601f8301169050602081019050919050565b600081519050919050565b600082825260208201905092915050565b600082825260208201905092915050565b6000808585111561288257600080fd5b8386111561288f57600080fd5b6001850283019150848603905094509492505050565b60006128b0826128ef565b9050919050565b60006128c2826128ef565b9050919050565b60008115159050919050565b60006dffffffffffffffffffffffffffff82169050919050565b600073ffffffffffffffffffffffffffffffffffffffff82169050919050565b6000819050919050565b600063ffffffff82169050919050565b60006129348261295f565b9050919050565b60006129468261294d565b9050919050565b6000612958826128ef565b9050919050565b600061296a82612971565b9050919050565b600061297c826128ef565b9050919050565b82818337600083830152505050565b60005b838110156129b0578082015181840152602081019050612995565b838111156129bf576000848401525b50505050565bfe5b6000601f19601f8301169050919050565b6129e1816128a5565b81146129ec57600080fd5b50565b6129f8816128b7565b8114612a0357600080fd5b50565b612a0f816128c9565b8114612a1a57600080fd5b50565b612a26816128d5565b8114612a3157600080fd5b50565b612a3d8161290f565b8114612a4857600080fd5b50565b612a5481612919565b8114612a5f57600080fd5b5056fe536166654d6174683a206d756c7469706c69636174696f6e206f766572666c6f77a2646970667358221220d76befa35d1a2bf0321bc01eed00b46f9a4000f56812c8df2de971ce7d8c188464736f6c63430007060033",
  "immutableReferences": {},
  "source": "pragma solidity ^0.7.0;\r\npragma experimental ABIEncoderV2;\r\n\r\nimport './utils/UniswapV2Library.sol';\r\nimport './interfaces/IUniswapV2Router02.sol';\r\nimport './interfaces/IUniswapV2Pair.sol';\r\nimport './interfaces/IUniswapV2Factory.sol';\r\nimport './interfaces/IERC20.sol';\r\nimport \"./MaximumProfitAlgorithm.sol\";\r\nimport '../node_modules/@openzeppelin/contracts/token/ERC20/utils/SafeERC20.sol';\r\n\r\ninterface IWETH {\r\n    function deposit() external payable;\r\n    function transfer(address to, uint value) external returns (bool);\r\n    function withdraw(uint) external;\r\n}\r\n\r\n\r\ncontract Arbitrage is MaximumProfit {\r\n\r\n    using Decimal for Decimal.D256;\r\n    using SafeMath for uint256;\r\n    // using SafeERC20 for IERC20;\r\n    using EnumerableSet for EnumerableSet.AddressSet;\r\n\r\n    address public factory;\r\n    uint constant deadline = 10 days;\r\n    IUniswapV2Router02 public sushiRouter;\r\n\r\n    \r\n\r\n    constructor(address _factory, address _sushiRouter) {\r\n        factory = _factory;  \r\n        sushiRouter = IUniswapV2Router02(_sushiRouter);\r\n    }\r\n// 0x2Ec2E579e1F418cE4Da01fD6F819eCb84ef9Ea68\r\n    struct ArbitrageInfo {\r\n\r\n        address baseToken;\r\n        address quoteToken;\r\n        bool baseTokenSmaller;\r\n        address lowerPool;\r\n        address higherPool;\r\n    }\r\n\r\n    struct CallbackData {\r\n\r\n        address debtPool;\r\n        address targetPool;\r\n        bool debtTokenSmaller;\r\n        address borrowedToken;\r\n        address debtToken;\r\n        uint256 debtAmount;\r\n        uint256 debtTokenOutAmount;\r\n    }\r\n\r\n    address permissionedPairAddress  = address(1);\r\n\r\n    receive() external payable {}\r\n\r\n    fallback(bytes calldata _input) external payable returns (bytes memory) {\r\n\r\n        (address sender, uint256 amount0, uint256 amount1, bytes memory data) = abi.decode(_input[4:], (address, uint256, uint256, bytes));\r\n        uniswapV2Call(sender, amount0, amount1, data);\r\n    }\r\n\r\n    \r\n\r\n    function flashSwap(address pool0, address pool1) external {\r\n\r\n        ArbitrageInfo memory info;\r\n        (info.baseTokenSmaller, info.baseToken, info.quoteToken) = isbaseTokenSmaller(pool0, pool1);\r\n\r\n        OrderedReserves memory orderedReserves;\r\n        (info.lowerPool, info.higherPool, orderedReserves) = getOrderedReserves(pool0, pool1, info.baseTokenSmaller);\r\n\r\n        permissionedPairAddress  = info.lowerPool;\r\n\r\n        uint256 balanceBefore = IERC20(info.baseToken).balanceOf(address(this));\r\n\r\n        {\r\n            uint256 borrowAmount = 10**18;\r\n            (uint256 amount0Out, uint256 amount1Out) = info.baseTokenSmaller ? (uint256(0), borrowAmount) : (borrowAmount, uint256(0));\r\n\r\n            uint256 debtAmount = getAmountIn(borrowAmount, orderedReserves.a1, orderedReserves.b1);\r\n\r\n            uint256 baseTokenOutAmount = getAmountOut(borrowAmount, orderedReserves.b2, orderedReserves.a2);\r\n            require(baseTokenOutAmount> debtAmount, \"Arbitrage failed, no profit\");\r\n\r\n\r\n            CallbackData memory callbackData;\r\n            callbackData.debtPool = info.lowerPool;\r\n            callbackData.targetPool = info.higherPool;\r\n            callbackData.debtTokenSmaller = info.baseTokenSmaller;\r\n            callbackData.borrowedToken = info.quoteToken;\r\n            callbackData.debtToken = info.baseToken;\r\n            callbackData.debtAmount = debtAmount;\r\n            callbackData.debtTokenOutAmount = baseTokenOutAmount;\r\n\r\n             bytes memory data = abi.encode(callbackData);\r\n            IUniswapV2Pair(info.lowerPool).swap(amount0Out, amount1Out, address(this), data);\r\n        }\r\n\r\n        uint256 balanceAfter = IERC20(info.baseToken).balanceOf(address(this));\r\n        require(balanceAfter > balanceBefore, \"Trade will loose you money reverting\");\r\n\r\n        if (info.baseToken == WETH) {\r\n\r\n            IWETH(info.baseToken).withdraw(balanceAfter);\r\n        }\r\n\r\n        permissionedPairAddress = address(1);\r\n\r\n    }\r\n\r\n    function uniswapV2Call(address sender, uint256 amount0, uint256 amount1, bytes memory data) public {\r\n\r\n        require(msg.sender == permissionedPairAddress, \"Non permissioned address call\");\r\n        require(sender == address(this), \"Not being sent from ths contract\");\r\n\r\n        uint256 borrowedAmount = amount0 > 0 ? amount0 : amount1;\r\n        CallbackData memory info = abi.decode(data, (CallbackData));\r\n\r\n        IERC20(info.borrowedToken).transfer(info.targetPool, borrowedAmount);\r\n\r\n        (uint256 amount0Out, uint256 amount1Out) = info.debtTokenSmaller ? (info.debtTokenOutAmount, uint256(0)) : (uint256(0), info.debtTokenOutAmount);\r\n        IUniswapV2Pair(info.targetPool).swap(amount0Out, amount1Out, address(this), new bytes(0));\r\n\r\n        IERC20(info.debtToken).transfer(info.debtPool, info.debtAmount);\r\n    }\r\n\r\n}\r\n\r\n//   function startArbitrage(\r\n//     address token0, \r\n//     address token1, \r\n//     uint amount0, \r\n//     uint amount1\r\n//   ) external {\r\n//     address pairAddress = IUniswapV2Factory(factory).getPair(token0, token1);\r\n//     require(pairAddress != address(0), 'This pool does not exist');\r\n//     IUniswapV2Pair(pairAddress).swap(\r\n//       amount0, \r\n//       amount1, \r\n//       address(this), \r\n//       bytes('not empty')\r\n//     );\r\n//   }\r\n\r\n//   function uniswapV2Call(\r\n//     address _sender, \r\n//     uint _amount0, \r\n//     uint _amount1, \r\n//     bytes calldata _data\r\n//   ) external {\r\n//     address[] memory path = new address[](2);\r\n//     uint amountToken = _amount0 == 0 ? _amount1 : _amount0;\r\n    \r\n//     address token0 = IUniswapV2Pair(msg.sender).token0();\r\n//     address token1 = IUniswapV2Pair(msg.sender).token1();\r\n\r\n//     require(\r\n//       msg.sender == UniswapV2Library.pairFor(factory, token0, token1), \r\n//       'Unauthorized'\r\n//     ); \r\n//     require(_amount0 == 0 || _amount1 == 0);\r\n\r\n//     path[0] = _amount0 == 0 ? token1 : token0;\r\n//     path[1] = _amount0 == 0 ? token0 : token1;\r\n\r\n//     IERC20 token = IERC20(_amount0 == 0 ? token1 : token0);\r\n    \r\n//     token.approve(address(sushiRouter), amountToken);\r\n\r\n//     uint amountRequired = UniswapV2Library.getAmountsIn(\r\n//       factory, \r\n//       amountToken, \r\n//       path\r\n//     )[0];\r\n//     uint amountReceived = sushiRouter.swapExactTokensForTokens(\r\n//       amountToken, \r\n//       amountRequired, \r\n//       path, \r\n//       msg.sender, \r\n//       deadline\r\n//     )[1];\r\n\r\n//     IERC20 otherToken = IERC20(_amount0 == 0 ? token0 : token1);\r\n//     otherToken.transfer(msg.sender, amountRequired);\r\n//     otherToken.transfer(tx.origin, amountReceived - amountRequired);\r\n//   }\r\n// }",
  "sourcePath": "C:\\Users\\mcgra\\OneDrive\\Documents\\EthereumProgramming\\Bot\\contracts\\flashSwap.sol",
  "compiler": {
    "name": "solc",
    "version": "0.7.6+commit.7338295f.Emscripten.clang"
  },
  "schemaVersion": "3.4.3",
  "updatedAt": "2021-11-15T13:02:16.675Z",
  "devdoc": {
    "kind": "dev",
    "methods": {},
    "version": 1
  },
  "userdoc": {
    "kind": "user",
    "methods": {
      "getOrderedReserves(address,address,bool)": {
        "notice": "We borrow base token by using flash swap from lower price pool and sell them to higher price pool"
      }
    },
    "version": 1
  }
}