{
  "contractName": "FlashSwap",
  "abi": [
    {
      "inputs": [
        {
          "internalType": "address",
          "name": "_owner",
          "type": "address"
        }
      ],
      "stateMutability": "nonpayable",
      "type": "constructor"
    },
    {
      "inputs": [
        {
          "internalType": "address",
          "name": "token",
          "type": "address"
        }
      ],
      "name": "baseTokensContains",
      "outputs": [
        {
          "internalType": "bool",
          "name": "hasBeenFound",
          "type": "bool"
        }
      ],
      "stateMutability": "view",
      "type": "function"
    },
    {
      "inputs": [
        {
          "internalType": "address",
          "name": "pool0",
          "type": "address"
        },
        {
          "internalType": "address",
          "name": "pool1",
          "type": "address"
        },
        {
          "internalType": "bool",
          "name": "baseTokenSmaller",
          "type": "bool"
        }
      ],
      "name": "getOrderedReserves",
      "outputs": [
        {
          "internalType": "address",
          "name": "lowerPool",
          "type": "address"
        },
        {
          "internalType": "address",
          "name": "higherPool",
          "type": "address"
        },
        {
          "components": [
            {
              "internalType": "uint256",
              "name": "a1",
              "type": "uint256"
            },
            {
              "internalType": "uint256",
              "name": "b1",
              "type": "uint256"
            },
            {
              "internalType": "uint256",
              "name": "a2",
              "type": "uint256"
            },
            {
              "internalType": "uint256",
              "name": "b2",
              "type": "uint256"
            }
          ],
          "internalType": "struct TradeOrder.orderedReserves",
          "name": "orderedReserve",
          "type": "tuple"
        }
      ],
      "stateMutability": "nonpayable",
      "type": "function"
    },
    {
      "inputs": [
        {
          "internalType": "address",
          "name": "pool0",
          "type": "address"
        },
        {
          "internalType": "address",
          "name": "pool1",
          "type": "address"
        }
      ],
      "name": "isbaseTokenSmaller",
      "outputs": [
        {
          "internalType": "bool",
          "name": "baseSmaller",
          "type": "bool"
        },
        {
          "internalType": "address",
          "name": "baseToken",
          "type": "address"
        },
        {
          "internalType": "address",
          "name": "quoteToken",
          "type": "address"
        }
      ],
      "stateMutability": "view",
      "type": "function"
    },
    {
      "inputs": [
        {
          "internalType": "uint256",
          "name": "amount",
          "type": "uint256"
        }
      ],
      "name": "withdraw",
      "outputs": [],
      "stateMutability": "nonpayable",
      "type": "function"
    },
    {
      "inputs": [
        {
          "internalType": "address",
          "name": "pool0",
          "type": "address"
        },
        {
          "internalType": "address",
          "name": "pool1",
          "type": "address"
        },
        {
          "internalType": "uint256",
          "name": "borrowAmount",
          "type": "uint256"
        }
      ],
      "name": "testFlashSwap",
      "outputs": [],
      "stateMutability": "nonpayable",
      "type": "function"
    },
    {
      "inputs": [
        {
          "internalType": "address",
          "name": "sender",
          "type": "address"
        },
        {
          "internalType": "uint256",
          "name": "amount0",
          "type": "uint256"
        },
        {
          "internalType": "uint256",
          "name": "amount1",
          "type": "uint256"
        },
        {
          "internalType": "bytes",
          "name": "data",
          "type": "bytes"
        }
      ],
      "name": "uniswapV2Call",
      "outputs": [],
      "stateMutability": "nonpayable",
      "type": "function"
    }
  ],
  "bytecode": "0x6080604052604051806060016040528073c02aaa39b223fe8d0a0e5c4f27ead9083c756cc273ffffffffffffffffffffffffffffffffffffffff1673ffffffffffffffffffffffffffffffffffffffff16815260200173bb91175307dd50bdebcfe82f2f343bbef607e65973ffffffffffffffffffffffffffffffffffffffff1673ffffffffffffffffffffffffffffffffffffffff16815260200173ca0bfd7aefa72c61bbdf6ad293ad2f943cfb592d73ffffffffffffffffffffffffffffffffffffffff1673ffffffffffffffffffffffffffffffffffffffff168152506000906003620000f192919062000152565b50348015620000ff57600080fd5b506040516200295438038062002954833981810160405281019062000125919062000217565b8073ffffffffffffffffffffffffffffffffffffffff16600160009054906101000a905050505062000291565b828054828255906000526020600020908101928215620001ce579160200282015b82811115620001cd5782518260006101000a81548173ffffffffffffffffffffffffffffffffffffffff021916908373ffffffffffffffffffffffffffffffffffffffff1602179055509160200191906001019062000173565b5b509050620001dd9190620001e1565b5090565b5b80821115620001fc576000816000905550600101620001e2565b5090565b600081519050620002118162000277565b92915050565b6000602082840312156200022a57600080fd5b60006200023a8482850162000200565b91505092915050565b6000620002508262000257565b9050919050565b600073ffffffffffffffffffffffffffffffffffffffff82169050919050565b620002828162000243565b81146200028e57600080fd5b50565b6126b380620002a16000396000f3fe608060405234801561001057600080fd5b50600436106100625760003560e01c806310d1e85c146100675780631a1299691461008357806321d09426146100b55780632e1a7d4d146100e55780638e6222c414610101578063a39992d414610133575b600080fd5b610081600480360381019061007c9190611bfe565b61014f565b005b61009d60048036038101906100989190611b24565b610402565b6040516100ac939291906122d5565b60405180910390f35b6100cf60048036038101906100ca9190611ad2565b61085d565b6040516100dc91906122ba565b60405180910390f35b6100ff60048036038101906100fa9190611d1f565b610910565b005b61011b60048036038101906101169190611b60565b61099d565b60405161012a9392919061225a565b60405180910390f35b61014d60048036038101906101489190611baf565b610c89565b005b3073ffffffffffffffffffffffffffffffffffffffff168573ffffffffffffffffffffffffffffffffffffffff16146101bd576040517f08c379a00000000000000000000000000000000000000000000000000000000081526004016101b49061240c565b60405180910390fd5b60008085116101cc57836101ce565b845b9050600083838101906101e19190611ca7565b9050806060015173ffffffffffffffffffffffffffffffffffffffff1663a9059cbb8260200151846040518363ffffffff1660e01b8152600401610226929190612291565b602060405180830381600087803b15801561024057600080fd5b505af1158015610254573d6000803e3d6000fd5b505050506040513d601f19601f820116820180604052508101906102789190611c7e565b5060008082604001516102915760008360c00151610299565b8260c0015160005b91509150826020015173ffffffffffffffffffffffffffffffffffffffff1663022c0d9f838330600067ffffffffffffffff811180156102d857600080fd5b506040519080825280601f01601f19166020018201604052801561030b5781602001600182028036833780820191505090505b506040518563ffffffff1660e01b815260040161032b9493929190612487565b600060405180830381600087803b15801561034557600080fd5b505af1158015610359573d6000803e3d6000fd5b50505050826080015173ffffffffffffffffffffffffffffffffffffffff1663a9059cbb84600001518560a001516040518363ffffffff1660e01b81526004016103a4929190612291565b602060405180830381600087803b1580156103be57600080fd5b505af11580156103d2573d6000803e3d6000fd5b505050506040513d601f19601f820116820180604052508101906103f69190611c7e565b50505050505050505050565b60008060008373ffffffffffffffffffffffffffffffffffffffff168573ffffffffffffffffffffffffffffffffffffffff161415610476576040517f08c379a000000000000000000000000000000000000000000000000000000000815260040161046d906123cc565b60405180910390fd5b6000808673ffffffffffffffffffffffffffffffffffffffff16630dfe16816040518163ffffffff1660e01b815260040160206040518083038186803b1580156104bf57600080fd5b505afa1580156104d3573d6000803e3d6000fd5b505050506040513d601f19601f820116820180604052508101906104f79190611afb565b8773ffffffffffffffffffffffffffffffffffffffff1663d21220a76040518163ffffffff1660e01b815260040160206040518083038186803b15801561053d57600080fd5b505afa158015610551573d6000803e3d6000fd5b505050506040513d601f19601f820116820180604052508101906105759190611afb565b915091506000808773ffffffffffffffffffffffffffffffffffffffff16630dfe16816040518163ffffffff1660e01b815260040160206040518083038186803b1580156105c257600080fd5b505afa1580156105d6573d6000803e3d6000fd5b505050506040513d601f19601f820116820180604052508101906105fa9190611afb565b8873ffffffffffffffffffffffffffffffffffffffff1663d21220a76040518163ffffffff1660e01b815260040160206040518083038186803b15801561064057600080fd5b505afa158015610654573d6000803e3d6000fd5b505050506040513d601f19601f820116820180604052508101906106789190611afb565b915091508273ffffffffffffffffffffffffffffffffffffffff168473ffffffffffffffffffffffffffffffffffffffff161080156106e257508073ffffffffffffffffffffffffffffffffffffffff168273ffffffffffffffffffffffffffffffffffffffff16105b610721576040517f08c379a00000000000000000000000000000000000000000000000000000000081526004016107189061232c565b60405180910390fd5b8173ffffffffffffffffffffffffffffffffffffffff168473ffffffffffffffffffffffffffffffffffffffff1614801561078757508073ffffffffffffffffffffffffffffffffffffffff168373ffffffffffffffffffffffffffffffffffffffff16145b6107c6576040517f08c379a00000000000000000000000000000000000000000000000000000000081526004016107bd9061242c565b60405180910390fd5b6107cf8461085d565b806107df57506107de8361085d565b5b61081e576040517f08c379a0000000000000000000000000000000000000000000000000000000008152600401610815906123ec565b60405180910390fd5b6108278461085d565b156108415760018484809750819850829950505050610852565b600083858097508198508299505050505b505050509250925092565b6000806000905060005b6000805490508110156108f5578373ffffffffffffffffffffffffffffffffffffffff166000828154811061089857fe5b9060005260206000200160009054906101000a900473ffffffffffffffffffffffffffffffffffffffff1673ffffffffffffffffffffffffffffffffffffffff1614156108e857600191506108f5565b8080600101915050610867565b50811561090657600191505061090b565b809150505b919050565b60008111610953576040517f08c379a000000000000000000000000000000000000000000000000000000000815260040161094a9061230c565b60405180910390fd5b3373ffffffffffffffffffffffffffffffffffffffff166108fc829081150290604051600060405180830381858888f19350505050158015610999573d6000803e3d6000fd5b5050565b6000806109a86117d5565b6000808773ffffffffffffffffffffffffffffffffffffffff16630902f1ac6040518163ffffffff1660e01b815260040160606040518083038186803b1580156109f157600080fd5b505afa158015610a05573d6000803e3d6000fd5b505050506040513d601f19601f82011682018060405250810190610a299190611cd0565b506dffffffffffffffffffffffffffff1691506dffffffffffffffffffffffffffff1691506000808873ffffffffffffffffffffffffffffffffffffffff16630902f1ac6040518163ffffffff1660e01b815260040160606040518083038186803b158015610a9757600080fd5b505afa158015610aab573d6000803e3d6000fd5b505050506040513d601f19601f82011682018060405250810190610acf9190611cd0565b506dffffffffffffffffffffffffffff1691506dffffffffffffffffffffffffffff169150610afc6117fd565b610b046117fd565b8915610b4f576000610b2786610b198961114f565b61118790919063ffffffff16565b90506000610b4685610b388861114f565b61118790919063ffffffff16565b90505050610b90565b6000610b6c87610b5e8861114f565b61118790919063ffffffff16565b90506000610b8b86610b7d8761114f565b61118790919063ffffffff16565b905050505b610ba381836111bc90919063ffffffff16565b15610c13578b8b809950819a5050508915610be55785876000018181525050848760200181815250508387604001818152505082876060018181525050610c0e565b848760000181815250508587602001818152505082876040018181525050838760600181815250505b610c7a565b8a8c809950819a5050508915610c505783876000018181525050828760200181815250508587604001818152505084876060018181525050610c79565b828760000181815250508387602001818152505084876040018181525050858760600181815250505b5b50505050505093509350939050565b610c91611810565b610c9b8484610402565b8360400184600001856020018373ffffffffffffffffffffffffffffffffffffffff1673ffffffffffffffffffffffffffffffffffffffff168152508373ffffffffffffffffffffffffffffffffffffffff1673ffffffffffffffffffffffffffffffffffffffff168152508315151515815250505050610d1a6117d5565b610d298585846040015161099d565b84606001856080018295508373ffffffffffffffffffffffffffffffffffffffff1673ffffffffffffffffffffffffffffffffffffffff168152508373ffffffffffffffffffffffffffffffffffffffff1673ffffffffffffffffffffffffffffffffffffffff168152505050506000826000015173ffffffffffffffffffffffffffffffffffffffff166370a08231306040518263ffffffff1660e01b8152600401610dd6919061223f565b60206040518083038186803b158015610dee57600080fd5b505afa158015610e02573d6000803e3d6000fd5b505050506040513d601f19601f82011682018060405250810190610e269190611d48565b90506000808460400151610e3c57856000610e40565b6000865b915091506000610e5987866000015187602001516111d2565b90506000610e7088876060015188604001516112e3565b9050818111610eb4576040517f08c379a0000000000000000000000000000000000000000000000000000000008152600401610eab9061234c565b60405180910390fd5b610ebc611899565b8760600151816000019073ffffffffffffffffffffffffffffffffffffffff16908173ffffffffffffffffffffffffffffffffffffffff16815250508760800151816020019073ffffffffffffffffffffffffffffffffffffffff16908173ffffffffffffffffffffffffffffffffffffffff168152505087604001518160400190151590811515815250508760200151816060019073ffffffffffffffffffffffffffffffffffffffff16908173ffffffffffffffffffffffffffffffffffffffff16815250508760000151816080019073ffffffffffffffffffffffffffffffffffffffff16908173ffffffffffffffffffffffffffffffffffffffff1681525050828160a0018181525050818160c0018181525050600081604051602001610fe7919061246c565b6040516020818303038152906040529050886060015173ffffffffffffffffffffffffffffffffffffffff1663022c0d9f878730856040518563ffffffff1660e01b815260040161103b9493929190612487565b600060405180830381600087803b15801561105557600080fd5b505af1158015611069573d6000803e3d6000fd5b505050505050505050506000836000015173ffffffffffffffffffffffffffffffffffffffff166370a08231306040518263ffffffff1660e01b81526004016110b2919061223f565b60206040518083038186803b1580156110ca57600080fd5b505afa1580156110de573d6000803e3d6000fd5b505050506040513d601f19601f820116820180604052508101906111029190611d48565b9050818111611146576040517f08c379a000000000000000000000000000000000000000000000000000000000815260040161113d9061238c565b60405180910390fd5b50505050505050565b6111576117fd565b604051806020016040528061117d670de0b6b3a7640000856113e790919063ffffffff16565b8152509050919050565b61118f6117fd565b60405180602001604052806111b184866000015161146d90919063ffffffff16565b815250905092915050565b6000806111c984846114b7565b14905092915050565b6000808411611216576040517f08c379a000000000000000000000000000000000000000000000000000000000815260040161120d9061236c565b60405180910390fd5b6000831180156112265750600082115b611265576040517f08c379a000000000000000000000000000000000000000000000000000000000815260040161125c906123ac565b60405180910390fd5b600061128e6103e861128087876114f790919063ffffffff16565b6114f790919063ffffffff16565b905060006112b96103e56112ab888761157d90919063ffffffff16565b6114f790919063ffffffff16565b90506112d860018284816112c957fe5b046115c790919063ffffffff16565b925050509392505050565b6000808411611327576040517f08c379a000000000000000000000000000000000000000000000000000000000815260040161131e9061244c565b60405180910390fd5b6000831180156113375750600082115b611376576040517f08c379a000000000000000000000000000000000000000000000000000000000815260040161136d906123ac565b60405180910390fd5b600061138d6103e5866114f790919063ffffffff16565b905060006113a484836114f790919063ffffffff16565b905060006113cf836113c16103e8896114f790919063ffffffff16565b6115c790919063ffffffff16565b90508082816113da57fe5b0493505050509392505050565b6000808314156113fa5760009050611467565b600082840290508284828161140b57fe5b0414611462576040517f08c379a000000000000000000000000000000000000000000000000000000000815260040180806020018281038252602181526020018061265d6021913960400191505060405180910390fd5b809150505b92915050565b60006114af83836040518060400160405280601a81526020017f536166654d6174683a206469766973696f6e206279207a65726f00000000000081525061164f565b905092915050565b60008160000151836000015114156114d257600190506114f1565b81600001518360000151116114e85760006114eb565b60025b60ff1690505b92915050565b60008083141561150a5760009050611577565b600082840290508284828161151b57fe5b0414611572576040517f08c379a000000000000000000000000000000000000000000000000000000000815260040180806020018281038252602181526020018061265d6021913960400191505060405180910390fd5b809150505b92915050565b60006115bf83836040518060400160405280601e81526020017f536166654d6174683a207375627472616374696f6e206f766572666c6f770000815250611715565b905092915050565b600080828401905083811015611645576040517f08c379a000000000000000000000000000000000000000000000000000000000815260040180806020018281038252601b8152602001807f536166654d6174683a206164646974696f6e206f766572666c6f77000000000081525060200191505060405180910390fd5b8091505092915050565b600080831182906116fb576040517f08c379a00000000000000000000000000000000000000000000000000000000081526004018080602001828103825283818151815260200191508051906020019080838360005b838110156116c05780820151818401526020810190506116a5565b50505050905090810190601f1680156116ed5780820380516001836020036101000a031916815260200191505b509250505060405180910390fd5b50600083858161170757fe5b049050809150509392505050565b60008383111582906117c2576040517f08c379a00000000000000000000000000000000000000000000000000000000081526004018080602001828103825283818151815260200191508051906020019080838360005b8381101561178757808201518184015260208101905061176c565b50505050905090810190601f1680156117b45780820380516001836020036101000a031916815260200191505b509250505060405180910390fd5b5060008385039050809150509392505050565b6040518060800160405280600081526020016000815260200160008152602001600081525090565b6040518060200160405280600081525090565b6040518060a00160405280600073ffffffffffffffffffffffffffffffffffffffff168152602001600073ffffffffffffffffffffffffffffffffffffffff168152602001600015158152602001600073ffffffffffffffffffffffffffffffffffffffff168152602001600073ffffffffffffffffffffffffffffffffffffffff1681525090565b6040518060e00160405280600073ffffffffffffffffffffffffffffffffffffffff168152602001600073ffffffffffffffffffffffffffffffffffffffff168152602001600015158152602001600073ffffffffffffffffffffffffffffffffffffffff168152602001600073ffffffffffffffffffffffffffffffffffffffff16815260200160008152602001600081525090565b60008135905061193f816125e9565b92915050565b600081519050611954816125e9565b92915050565b60008135905061196981612600565b92915050565b60008151905061197e81612600565b92915050565b60008083601f84011261199657600080fd5b8235905067ffffffffffffffff8111156119af57600080fd5b6020830191508360018202830111156119c757600080fd5b9250929050565b600060e082840312156119e057600080fd5b6119ea60e06124d3565b905060006119fa84828501611930565b6000830152506020611a0e84828501611930565b6020830152506040611a228482850161195a565b6040830152506060611a3684828501611930565b6060830152506080611a4a84828501611930565b60808301525060a0611a5e84828501611a93565b60a08301525060c0611a7284828501611a93565b60c08301525092915050565b600081519050611a8d81612617565b92915050565b600081359050611aa28161262e565b92915050565b600081519050611ab78161262e565b92915050565b600081519050611acc81612645565b92915050565b600060208284031215611ae457600080fd5b6000611af284828501611930565b91505092915050565b600060208284031215611b0d57600080fd5b6000611b1b84828501611945565b91505092915050565b60008060408385031215611b3757600080fd5b6000611b4585828601611930565b9250506020611b5685828601611930565b9150509250929050565b600080600060608486031215611b7557600080fd5b6000611b8386828701611930565b9350506020611b9486828701611930565b9250506040611ba58682870161195a565b9150509250925092565b600080600060608486031215611bc457600080fd5b6000611bd286828701611930565b9350506020611be386828701611930565b9250506040611bf486828701611a93565b9150509250925092565b600080600080600060808688031215611c1657600080fd5b6000611c2488828901611930565b9550506020611c3588828901611a93565b9450506040611c4688828901611a93565b935050606086013567ffffffffffffffff811115611c6357600080fd5b611c6f88828901611984565b92509250509295509295909350565b600060208284031215611c9057600080fd5b6000611c9e8482850161196f565b91505092915050565b600060e08284031215611cb957600080fd5b6000611cc7848285016119ce565b91505092915050565b600080600060608486031215611ce557600080fd5b6000611cf386828701611a7e565b9350506020611d0486828701611a7e565b9250506040611d1586828701611abd565b9150509250925092565b600060208284031215611d3157600080fd5b6000611d3f84828501611a93565b91505092915050565b600060208284031215611d5a57600080fd5b6000611d6884828501611aa8565b91505092915050565b611d7a81612531565b82525050565b611d8981612531565b82525050565b611d9881612543565b82525050565b611da781612543565b82525050565b6000611db882612504565b611dc2818561250f565b9350611dd28185602086016125a3565b611ddb816125d8565b840191505092915050565b6000611df3601983612520565b91507f63616e6e6f74207769746864726177206120302076616c7565000000000000006000830152602082019050919050565b6000611e33601d83612520565b91507f4e6f6e207374616e6461726420756e697377617020414d4d20706169720000006000830152602082019050919050565b6000611e73601b83612520565b91507f417262697472616765206661696c65642c206e6f2070726f66697400000000006000830152602082019050919050565b6000611eb3602c83612520565b91507f556e697377617056324c6962726172793a20494e53554646494349454e545f4f60008301527f55545055545f414d4f554e5400000000000000000000000000000000000000006020830152604082019050919050565b6000611f19602483612520565b91507f54726164652077696c6c206c6f6f736520796f75206d6f6e657920726576657260008301527f74696e67000000000000000000000000000000000000000000000000000000006020830152604082019050919050565b6000611f7f602883612520565b91507f556e697377617056324c6962726172793a20494e53554646494349454e545f4c60008301527f49515549444954590000000000000000000000000000000000000000000000006020830152604082019050919050565b6000611fe5601183612520565b91507f53616d65207061697220616464726573730000000000000000000000000000006000830152602082019050919050565b6000612025601583612520565b91507f4e6f206261736520746f6b656e20696e207061697200000000000000000000006000830152602082019050919050565b6000612065602083612520565b91507f4e6f74206265696e672073656e742066726f6d2074687320636f6e74726163746000830152602082019050919050565b60006120a5601783612520565b91507f526571756972652073616d6520746f6b656e20706169720000000000000000006000830152602082019050919050565b60006120e5602b83612520565b91507f556e697377617056324c6962726172793a20494e53554646494349454e545f4960008301527f4e5055545f414d4f554e540000000000000000000000000000000000000000006020830152604082019050919050565b60e0820160008201516121546000850182611d71565b5060208201516121676020850182611d71565b50604082015161217a6040850182611d8f565b50606082015161218d6060850182611d71565b5060808201516121a06080850182611d71565b5060a08201516121b360a0850182612221565b5060c08201516121c660c0850182612221565b50505050565b6080820160008201516121e26000850182612221565b5060208201516121f56020850182612221565b5060408201516122086040850182612221565b50606082015161221b6060850182612221565b50505050565b61222a81612589565b82525050565b61223981612589565b82525050565b60006020820190506122546000830184611d80565b92915050565b600060c08201905061226f6000830186611d80565b61227c6020830185611d80565b61228960408301846121cc565b949350505050565b60006040820190506122a66000830185611d80565b6122b36020830184612230565b9392505050565b60006020820190506122cf6000830184611d9e565b92915050565b60006060820190506122ea6000830186611d9e565b6122f76020830185611d80565b6123046040830184611d80565b949350505050565b6000602082019050818103600083015261232581611de6565b9050919050565b6000602082019050818103600083015261234581611e26565b9050919050565b6000602082019050818103600083015261236581611e66565b9050919050565b6000602082019050818103600083015261238581611ea6565b9050919050565b600060208201905081810360008301526123a581611f0c565b9050919050565b600060208201905081810360008301526123c581611f72565b9050919050565b600060208201905081810360008301526123e581611fd8565b9050919050565b6000602082019050818103600083015261240581612018565b9050919050565b6000602082019050818103600083015261242581612058565b9050919050565b6000602082019050818103600083015261244581612098565b9050919050565b60006020820190508181036000830152612465816120d8565b9050919050565b600060e082019050612481600083018461213e565b92915050565b600060808201905061249c6000830187612230565b6124a96020830186612230565b6124b66040830185611d80565b81810360608301526124c88184611dad565b905095945050505050565b6000604051905081810181811067ffffffffffffffff821117156124fa576124f96125d6565b5b8060405250919050565b600081519050919050565b600082825260208201905092915050565b600082825260208201905092915050565b600061253c82612569565b9050919050565b60008115159050919050565b60006dffffffffffffffffffffffffffff82169050919050565b600073ffffffffffffffffffffffffffffffffffffffff82169050919050565b6000819050919050565b600063ffffffff82169050919050565b60005b838110156125c15780820151818401526020810190506125a6565b838111156125d0576000848401525b50505050565bfe5b6000601f19601f8301169050919050565b6125f281612531565b81146125fd57600080fd5b50565b61260981612543565b811461261457600080fd5b50565b6126208161254f565b811461262b57600080fd5b50565b61263781612589565b811461264257600080fd5b50565b61264e81612593565b811461265957600080fd5b5056fe536166654d6174683a206d756c7469706c69636174696f6e206f766572666c6f77a2646970667358221220690e9294383409332cfaae27379d923b15d2e53a466f823506ac83ad35dbf9b164736f6c63430007060033",
  "immutableReferences": {},
  "source": "// SPDX-License-Identifier: MIT\r\npragma solidity ^0.7.0;\r\npragma experimental ABIEncoderV2;\r\n\r\nimport './utils/UniswapV2Library.sol';\r\nimport './interfaces/IUniswapV2Router02.sol';\r\nimport './interfaces/IUniswapV2Pair.sol';\r\nimport './interfaces/IUniswapV2Factory.sol';\r\nimport \"./interfaces/IERC20.sol\";\r\nimport \"../node_modules//@openzeppelin/contracts/utils/math/SafeMath.sol\";\r\nimport \"../contracts/utils/SafeMathCopy.sol\";\r\nimport \"./TradeOrder.sol\";\r\n\r\n//this is the flashsswap contract. I ended up writing another contract TradeOrder.sol which orders the reserves\r\n//in such a way so that we are always borrowing from the lower reserve pool and selling to the higher reserve pool\r\n//this saves us from having to tun the bot script twice where we check arb for TOKEN0/TOKEN1 and TOKEN1/TOKEN0 on\r\n//both exchnages simultaneusly.\r\ncontract FlashSwap is TradeOrder {\r\n\r\n    using SafeMath for uint256;\r\n\r\n    address owner;\r\n\r\n    //here we add the contract deploy and assign him to the owner only the owner can withdraw\r\n    constructor(address _owner) {\r\n\r\n        owner == _owner;\r\n    }\r\n    \r\n    //struct for the srbitrage info such as the base token qoute token etc..\r\n    struct ArbitrageInfo {\r\n\r\n        address baseToken;\r\n        address quoteToken;\r\n        bool baseTokenSmaller;\r\n        address lowerPool;\r\n        address higherPool;\r\n    }\r\n\r\n    //this struct allows us to store data which we can query whenever uniswap\r\n    //calls back the uniswapV2Call function. we can store the amountIn amountOut and ehich pool we botrrow from etc\r\n    struct CallbackData {\r\n\r\n        address debtPool;\r\n        address targetPool;\r\n        bool debtTokenSmaller;\r\n        address borrowedToken;\r\n        address debtToken;\r\n        uint256 debtAmount;\r\n        uint256 debtTokenOutAmount;\r\n    }\r\n\r\n    modifier onlyOwner() {\r\n\r\n        require(msg.sender == owner, \"only the FlashBot owner can withdraw funds\");\r\n        _;\r\n    }\r\n\r\n    function withdraw(uint256 amount) public {\r\n\r\n        require(amount > 0, \"cannot withdraw a 0 value\");\r\n        payable(msg.sender).transfer(amount);\r\n    }\r\n\r\n\r\n   \r\n    function testFlashSwap(address pool0, address pool1, uint256 borrowAmount) external {\r\n\r\n        //here we make and instance of the info struct\r\n        ArbitrageInfo memory info;\r\n        //we then call a function called isBaseTokenSmaller. this function will change the order of the trade\r\n        //so that we are alwsys borrowing from the base token reserve\r\n        (info.baseTokenSmaller, info.baseToken, info.quoteToken) = isbaseTokenSmaller(pool0, pool1);\r\n\r\n        //here we make an instance of the reserve struct\r\n        orderedReserves memory orderedReserves;\r\n        (info.lowerPool, info.higherPool, orderedReserves) = getOrderedReserves(pool0, pool1, info.baseTokenSmaller);\r\n\r\n        // permissionedPairAddress  = info.lowerPool;\r\n\r\n        //check balance before the loan\r\n        uint256 balanceBefore = IERC20(info.baseToken).balanceOf(address(this));\r\n\r\n        {\r\n            // uint256 borrowAmount = 10**18;\r\n            //here we need to set ether amont1 = 0 or amount0 = 0 depending on which pool where gonna borrow from\r\n            (uint256 amount0Out, uint256 amount1Out) = info.baseTokenSmaller ? (uint256(0), borrowAmount) : (borrowAmount, uint256(0));\r\n\r\n            uint256 debtAmount = getAmountIn(borrowAmount, orderedReserves.a1, orderedReserves.b1);\r\n\r\n            uint256 baseTokenOutAmount = getAmountOut(borrowAmount, orderedReserves.b2, orderedReserves.a2);\r\n            require(baseTokenOutAmount> debtAmount, \"Arbitrage failed, no profit\");\r\n\r\n\r\n            //here we assign the callback data so we can query it when uniswap calls the V2Call function\r\n            CallbackData memory callbackData;\r\n            callbackData.debtPool = info.lowerPool;\r\n            callbackData.targetPool = info.higherPool;\r\n            callbackData.debtTokenSmaller = info.baseTokenSmaller;\r\n            callbackData.borrowedToken = info.quoteToken;\r\n            callbackData.debtToken = info.baseToken;\r\n            callbackData.debtAmount = debtAmount;\r\n            callbackData.debtTokenOutAmount = baseTokenOutAmount;\r\n\r\n            bytes memory data = abi.encode(callbackData);\r\n            IUniswapV2Pair(info.lowerPool).swap(amount0Out, amount1Out, address(this), data);\r\n        }\r\n\r\n        uint256 balanceAfter = IERC20(info.baseToken).balanceOf(address(this));\r\n        require(balanceAfter > balanceBefore, \"Trade will loose you money reverting\");\r\n\r\n    }\r\n\r\n    // called by pair contract\r\n    //callback function from uniswap. largely the same only minor cistimisations made\r\n    function uniswapV2Call( address sender, uint amount0, uint amount1, bytes calldata data ) external {\r\n        // require(msg.sender == permissionedPairAddress, \"Non permissioned address call\");\r\n        require(sender == address(this), \"Not being sent from ths contract\");\r\n\r\n        uint256 borrowedAmount = amount0 > 0 ? amount0 : amount1;\r\n        CallbackData memory info = abi.decode(data, (CallbackData));\r\n\r\n        IERC20(info.borrowedToken).transfer(info.targetPool, borrowedAmount);\r\n\r\n        (uint256 amount0Out, uint256 amount1Out) = info.debtTokenSmaller ? (info.debtTokenOutAmount, uint256(0)) : (uint256(0), info.debtTokenOutAmount);\r\n        IUniswapV2Pair(info.targetPool).swap(amount0Out, amount1Out, address(this), new bytes(0));\r\n\r\n        IERC20(info.debtToken).transfer(info.debtPool, info.debtAmount);\r\n    }\r\n\r\n        // copy from UniswapV2Library\r\n        // given an output amount of an asset and pair reserves, returns a required input amount of the other asset\r\n        function getAmountIn(uint256 amountOut, uint256 reserveIn, uint256 reserveOut) internal pure returns (uint256 amountIn) {\r\n            require(amountOut > 0, 'UniswapV2Library: INSUFFICIENT_OUTPUT_AMOUNT');\r\n            require(reserveIn > 0 && reserveOut > 0, 'UniswapV2Library: INSUFFICIENT_LIQUIDITY');\r\n            uint256 numerator = reserveIn.mul(amountOut).mul(1000);\r\n            uint256 denominator = reserveOut.sub(amountOut).mul(997);\r\n            amountIn = (numerator / denominator).add(1);\r\n        }\r\n\r\n        // copy from UniswapV2Library\r\n        // given an input amount of an asset and pair reserves, returns the maximum output amount of the other asset\r\n        function getAmountOut(uint256 amountIn, uint256 reserveIn, uint256 reserveOut) internal pure returns (uint256 amountOut) {\r\n            require(amountIn > 0, 'UniswapV2Library: INSUFFICIENT_INPUT_AMOUNT');\r\n            require(reserveIn > 0 && reserveOut > 0, 'UniswapV2Library: INSUFFICIENT_LIQUIDITY');\r\n            uint256 amountInWithFee = amountIn.mul(997);\r\n            uint256 numerator = amountInWithFee.mul(reserveOut);\r\n            uint256 denominator = reserveIn.mul(1000).add(amountInWithFee);\r\n            amountOut = numerator / denominator;\r\n        }\r\n\r\n}\r\n",
  "sourcePath": "C:\\Users\\mcgra\\OneDrive\\Documents\\EthereumProgramming\\Bot\\contracts\\FlashBot.sol",
  "compiler": {
    "name": "solc",
    "version": "0.7.6+commit.7338295f.Emscripten.clang"
  },
  "schemaVersion": "3.4.3",
  "updatedAt": "2021-11-15T20:25:14.877Z",
  "devdoc": {
    "kind": "dev",
    "methods": {},
    "version": 1
  },
  "userdoc": {
    "kind": "user",
    "methods": {
      "getOrderedReserves(address,address,bool)": {
        "notice": "We borrow base token by using flash swap from lower price pool and sell them to higher price pool"
      }
    },
    "version": 1
  }
}