{
  "contractName": "FlashSwap",
  "abi": [
    {
      "inputs": [
        {
          "internalType": "address",
          "name": "_owner",
          "type": "address"
        }
      ],
      "stateMutability": "nonpayable",
      "type": "constructor"
    },
    {
      "inputs": [
        {
          "internalType": "address",
          "name": "token",
          "type": "address"
        }
      ],
      "name": "addBaseToken",
      "outputs": [],
      "stateMutability": "nonpayable",
      "type": "function"
    },
    {
      "inputs": [
        {
          "internalType": "address",
          "name": "token",
          "type": "address"
        }
      ],
      "name": "baseTokensContains",
      "outputs": [
        {
          "internalType": "bool",
          "name": "hasBeenFound",
          "type": "bool"
        }
      ],
      "stateMutability": "view",
      "type": "function"
    },
    {
      "inputs": [
        {
          "internalType": "address",
          "name": "token",
          "type": "address"
        }
      ],
      "name": "deleteBaseToken",
      "outputs": [],
      "stateMutability": "nonpayable",
      "type": "function"
    },
    {
      "inputs": [],
      "name": "getBaseTokens",
      "outputs": [
        {
          "internalType": "address[]",
          "name": "",
          "type": "address[]"
        }
      ],
      "stateMutability": "nonpayable",
      "type": "function"
    },
    {
      "inputs": [
        {
          "internalType": "address",
          "name": "pool0",
          "type": "address"
        },
        {
          "internalType": "address",
          "name": "pool1",
          "type": "address"
        },
        {
          "internalType": "bool",
          "name": "baseTokenSmaller",
          "type": "bool"
        }
      ],
      "name": "getOrderedReserves",
      "outputs": [
        {
          "internalType": "address",
          "name": "lowerPool",
          "type": "address"
        },
        {
          "internalType": "address",
          "name": "higherPool",
          "type": "address"
        },
        {
          "components": [
            {
              "internalType": "uint256",
              "name": "a1",
              "type": "uint256"
            },
            {
              "internalType": "uint256",
              "name": "b1",
              "type": "uint256"
            },
            {
              "internalType": "uint256",
              "name": "a2",
              "type": "uint256"
            },
            {
              "internalType": "uint256",
              "name": "b2",
              "type": "uint256"
            }
          ],
          "internalType": "struct TradeOrder.orderedReserves",
          "name": "orderedReserve",
          "type": "tuple"
        }
      ],
      "stateMutability": "nonpayable",
      "type": "function"
    },
    {
      "inputs": [
        {
          "internalType": "address",
          "name": "pool0",
          "type": "address"
        },
        {
          "internalType": "address",
          "name": "pool1",
          "type": "address"
        }
      ],
      "name": "isbaseTokenSmaller",
      "outputs": [
        {
          "internalType": "bool",
          "name": "baseSmaller",
          "type": "bool"
        },
        {
          "internalType": "address",
          "name": "baseToken",
          "type": "address"
        },
        {
          "internalType": "address",
          "name": "quoteToken",
          "type": "address"
        }
      ],
      "stateMutability": "view",
      "type": "function"
    },
    {
      "inputs": [
        {
          "internalType": "uint256",
          "name": "amount",
          "type": "uint256"
        }
      ],
      "name": "withdraw",
      "outputs": [],
      "stateMutability": "nonpayable",
      "type": "function"
    },
    {
      "inputs": [
        {
          "internalType": "address",
          "name": "pool0",
          "type": "address"
        },
        {
          "internalType": "address",
          "name": "pool1",
          "type": "address"
        },
        {
          "internalType": "uint256",
          "name": "borrowAmount",
          "type": "uint256"
        }
      ],
      "name": "testFlashSwap",
      "outputs": [],
      "stateMutability": "nonpayable",
      "type": "function"
    },
    {
      "inputs": [
        {
          "internalType": "address",
          "name": "sender",
          "type": "address"
        },
        {
          "internalType": "uint256",
          "name": "amount0",
          "type": "uint256"
        },
        {
          "internalType": "uint256",
          "name": "amount1",
          "type": "uint256"
        },
        {
          "internalType": "bytes",
          "name": "data",
          "type": "bytes"
        }
      ],
      "name": "uniswapV2Call",
      "outputs": [],
      "stateMutability": "nonpayable",
      "type": "function"
    }
  ],
  "bytecode": "0x6080604052604051806060016040528073c02aaa39b223fe8d0a0e5c4f27ead9083c756cc273ffffffffffffffffffffffffffffffffffffffff1673ffffffffffffffffffffffffffffffffffffffff16815260200173bb91175307dd50bdebcfe82f2f343bbef607e65973ffffffffffffffffffffffffffffffffffffffff1673ffffffffffffffffffffffffffffffffffffffff168152602001737d7224b9979343de24fd6ba2eb3f73f528caa6cf73ffffffffffffffffffffffffffffffffffffffff1673ffffffffffffffffffffffffffffffffffffffff168152506000906003620000f192919062000152565b50348015620000ff57600080fd5b5060405162002ba838038062002ba8833981810160405281019062000125919062000217565b8073ffffffffffffffffffffffffffffffffffffffff16600160009054906101000a905050505062000291565b828054828255906000526020600020908101928215620001ce579160200282015b82811115620001cd5782518260006101000a81548173ffffffffffffffffffffffffffffffffffffffff021916908373ffffffffffffffffffffffffffffffffffffffff1602179055509160200191906001019062000173565b5b509050620001dd9190620001e1565b5090565b5b80821115620001fc576000816000905550600101620001e2565b5090565b600081519050620002118162000277565b92915050565b6000602082840312156200022a57600080fd5b60006200023a8482850162000200565b91505092915050565b6000620002508262000257565b9050919050565b600073ffffffffffffffffffffffffffffffffffffffff82169050919050565b620002828162000243565b81146200028e57600080fd5b50565b61290780620002a16000396000f3fe608060405234801561001057600080fd5b50600436106100935760003560e01c806383e280d91161006657806383e280d9146101325780638e6222c41461014e578063a39992d414610180578063bed64c2f1461019c578063f0a43e9c146101ba57610093565b806310d1e85c146100985780631a129969146100b457806321d09426146100e65780632e1a7d4d14610116575b600080fd5b6100b260048036038101906100ad9190611d81565b6101d6565b005b6100ce60048036038101906100c99190611ca7565b610489565b6040516100dd939291906124f0565b60405180910390f35b61010060048036038101906100fb9190611c55565b6108d7565b60405161010d91906124d5565b60405180910390f35b610130600480360381019061012b9190611ea2565b61098a565b005b61014c60048036038101906101479190611c55565b610a17565b005b61016860048036038101906101639190611ce3565b610ab7565b60405161017793929190612453565b60405180910390f35b61019a60048036038101906101959190611d32565b610d3b565b005b6101a4611201565b6040516101b191906124b3565b60405180910390f35b6101d460048036038101906101cf9190611c55565b61128f565b005b3073ffffffffffffffffffffffffffffffffffffffff168573ffffffffffffffffffffffffffffffffffffffff1614610244576040517f08c379a000000000000000000000000000000000000000000000000000000000815260040161023b90612627565b60405180910390fd5b60008085116102535783610255565b845b9050600083838101906102689190611e2a565b9050806060015173ffffffffffffffffffffffffffffffffffffffff1663a9059cbb8260200151846040518363ffffffff1660e01b81526004016102ad92919061248a565b602060405180830381600087803b1580156102c757600080fd5b505af11580156102db573d6000803e3d6000fd5b505050506040513d601f19601f820116820180604052508101906102ff9190611e01565b5060008082604001516103185760008360c00151610320565b8260c0015160005b91509150826020015173ffffffffffffffffffffffffffffffffffffffff1663022c0d9f838330600067ffffffffffffffff8111801561035f57600080fd5b506040519080825280601f01601f1916602001820160405280156103925781602001600182028036833780820191505090505b506040518563ffffffff1660e01b81526004016103b294939291906126a2565b600060405180830381600087803b1580156103cc57600080fd5b505af11580156103e0573d6000803e3d6000fd5b50505050826080015173ffffffffffffffffffffffffffffffffffffffff1663a9059cbb84600001518560a001516040518363ffffffff1660e01b815260040161042b92919061248a565b602060405180830381600087803b15801561044557600080fd5b505af1158015610459573d6000803e3d6000fd5b505050506040513d601f19601f8201168201806040525081019061047d9190611e01565b50505050505050505050565b60008060008373ffffffffffffffffffffffffffffffffffffffff168573ffffffffffffffffffffffffffffffffffffffff1614156104fd576040517f08c379a00000000000000000000000000000000000000000000000000000000081526004016104f4906125e7565b60405180910390fd5b6000808673ffffffffffffffffffffffffffffffffffffffff16630dfe16816040518163ffffffff1660e01b815260040160206040518083038186803b15801561054657600080fd5b505afa15801561055a573d6000803e3d6000fd5b505050506040513d601f19601f8201168201806040525081019061057e9190611c7e565b8773ffffffffffffffffffffffffffffffffffffffff1663d21220a76040518163ffffffff1660e01b815260040160206040518083038186803b1580156105c457600080fd5b505afa1580156105d8573d6000803e3d6000fd5b505050506040513d601f19601f820116820180604052508101906105fc9190611c7e565b915091506000808773ffffffffffffffffffffffffffffffffffffffff16630dfe16816040518163ffffffff1660e01b815260040160206040518083038186803b15801561064957600080fd5b505afa15801561065d573d6000803e3d6000fd5b505050506040513d601f19601f820116820180604052508101906106819190611c7e565b8873ffffffffffffffffffffffffffffffffffffffff1663d21220a76040518163ffffffff1660e01b815260040160206040518083038186803b1580156106c757600080fd5b505afa1580156106db573d6000803e3d6000fd5b505050506040513d601f19601f820116820180604052508101906106ff9190611c7e565b915091508273ffffffffffffffffffffffffffffffffffffffff168473ffffffffffffffffffffffffffffffffffffffff1610801561076957508073ffffffffffffffffffffffffffffffffffffffff168273ffffffffffffffffffffffffffffffffffffffff16105b6107a8576040517f08c379a000000000000000000000000000000000000000000000000000000000815260040161079f90612547565b60405180910390fd5b8173ffffffffffffffffffffffffffffffffffffffff168473ffffffffffffffffffffffffffffffffffffffff1614801561080e57508073ffffffffffffffffffffffffffffffffffffffff168373ffffffffffffffffffffffffffffffffffffffff16145b61084d576040517f08c379a000000000000000000000000000000000000000000000000000000000815260040161084490612647565b60405180910390fd5b610856846108d7565b806108665750610865836108d7565b5b6108a5576040517f08c379a000000000000000000000000000000000000000000000000000000000815260040161089c90612607565b60405180910390fd5b6108ae846108d7565b6108bb57600083856108c0565b600184845b809750819850829950505050505050509250925092565b6000806000905060005b60008054905081101561096f578373ffffffffffffffffffffffffffffffffffffffff166000828154811061091257fe5b9060005260206000200160009054906101000a900473ffffffffffffffffffffffffffffffffffffffff1673ffffffffffffffffffffffffffffffffffffffff161415610962576001915061096f565b80806001019150506108e1565b508115610980576001915050610985565b809150505b919050565b600081116109cd576040517f08c379a00000000000000000000000000000000000000000000000000000000081526004016109c490612527565b60405180910390fd5b3373ffffffffffffffffffffffffffffffffffffffff166108fc829081150290604051600060405180830381858888f19350505050158015610a13573d6000803e3d6000fd5b5050565b600073ffffffffffffffffffffffffffffffffffffffff168173ffffffffffffffffffffffffffffffffffffffff161415610a5157600080fd5b6000819080600181540180825580915050600190039060005260206000200160009091909190916101000a81548173ffffffffffffffffffffffffffffffffffffffff021916908373ffffffffffffffffffffffffffffffffffffffff16021790555050565b600080610ac2611958565b6000808773ffffffffffffffffffffffffffffffffffffffff16630902f1ac6040518163ffffffff1660e01b815260040160606040518083038186803b158015610b0b57600080fd5b505afa158015610b1f573d6000803e3d6000fd5b505050506040513d601f19601f82011682018060405250810190610b439190611e53565b506dffffffffffffffffffffffffffff1691506dffffffffffffffffffffffffffff1691506000808873ffffffffffffffffffffffffffffffffffffffff16630902f1ac6040518163ffffffff1660e01b815260040160606040518083038186803b158015610bb157600080fd5b505afa158015610bc5573d6000803e3d6000fd5b505050506040513d601f19601f82011682018060405250810190610be99190611e53565b506dffffffffffffffffffffffffffff1691506dffffffffffffffffffffffffffff16915060008089610c5157610c3186610c23876112d2565b61130a90919063ffffffff16565b610c4c85610c3e866112d2565b61130a90919063ffffffff16565b610c88565b610c6c85610c5e886112d2565b61130a90919063ffffffff16565b610c8784610c79876112d2565b61130a90919063ffffffff16565b5b91509150610c9f818361133f90919063ffffffff16565b15610cea578b8b809950819a50505089610cbc5784868486610cc1565b858585855b8a6000018b6020018c6040018d6060018481525084815250848152508481525050505050610d2c565b8a8c809950819a50505089610d025782848688610d07565b838387875b8a6000018b6020018c6040018d60600184815250848152508481525084815250505050505b50505050505093509350939050565b610d43611980565b610d4d8484610489565b8360400184600001856020018373ffffffffffffffffffffffffffffffffffffffff1673ffffffffffffffffffffffffffffffffffffffff168152508373ffffffffffffffffffffffffffffffffffffffff1673ffffffffffffffffffffffffffffffffffffffff168152508315151515815250505050610dcc611958565b610ddb85858460400151610ab7565b84606001856080018295508373ffffffffffffffffffffffffffffffffffffffff1673ffffffffffffffffffffffffffffffffffffffff168152508373ffffffffffffffffffffffffffffffffffffffff1673ffffffffffffffffffffffffffffffffffffffff168152505050506000826000015173ffffffffffffffffffffffffffffffffffffffff166370a08231306040518263ffffffff1660e01b8152600401610e889190612438565b60206040518083038186803b158015610ea057600080fd5b505afa158015610eb4573d6000803e3d6000fd5b505050506040513d601f19601f82011682018060405250810190610ed89190611ecb565b90506000808460400151610eee57856000610ef2565b6000865b915091506000610f0b8786600001518760200151611355565b90506000610f228887606001518860400151611466565b9050818111610f66576040517f08c379a0000000000000000000000000000000000000000000000000000000008152600401610f5d90612567565b60405180910390fd5b610f6e611a09565b8760600151816000019073ffffffffffffffffffffffffffffffffffffffff16908173ffffffffffffffffffffffffffffffffffffffff16815250508760800151816020019073ffffffffffffffffffffffffffffffffffffffff16908173ffffffffffffffffffffffffffffffffffffffff168152505087604001518160400190151590811515815250508760200151816060019073ffffffffffffffffffffffffffffffffffffffff16908173ffffffffffffffffffffffffffffffffffffffff16815250508760000151816080019073ffffffffffffffffffffffffffffffffffffffff16908173ffffffffffffffffffffffffffffffffffffffff1681525050828160a0018181525050818160c00181815250506000816040516020016110999190612687565b6040516020818303038152906040529050886060015173ffffffffffffffffffffffffffffffffffffffff1663022c0d9f878730856040518563ffffffff1660e01b81526004016110ed94939291906126a2565b600060405180830381600087803b15801561110757600080fd5b505af115801561111b573d6000803e3d6000fd5b505050505050505050506000836000015173ffffffffffffffffffffffffffffffffffffffff166370a08231306040518263ffffffff1660e01b81526004016111649190612438565b60206040518083038186803b15801561117c57600080fd5b505afa158015611190573d6000803e3d6000fd5b505050506040513d601f19601f820116820180604052508101906111b49190611ecb565b90508181116111f8576040517f08c379a00000000000000000000000000000000000000000000000000000000081526004016111ef906125a7565b60405180910390fd5b50505050505050565b6060600080548060200260200160405190810160405280929190818152602001828054801561128557602002820191906000526020600020905b8160009054906101000a900473ffffffffffffffffffffffffffffffffffffffff1673ffffffffffffffffffffffffffffffffffffffff168152602001906001019080831161123b575b5050505050905090565b600080548061129a57fe5b6001900381819060005260206000200160006101000a81549073ffffffffffffffffffffffffffffffffffffffff0219169055905550565b6112da611aa0565b6040518060200160405280611300670de0b6b3a76400008561156a90919063ffffffff16565b8152509050919050565b611312611aa0565b60405180602001604052806113348486600001516115f090919063ffffffff16565b815250905092915050565b60008061134c848461163a565b14905092915050565b6000808411611399576040517f08c379a000000000000000000000000000000000000000000000000000000000815260040161139090612587565b60405180910390fd5b6000831180156113a95750600082115b6113e8576040517f08c379a00000000000000000000000000000000000000000000000000000000081526004016113df906125c7565b60405180910390fd5b60006114116103e8611403878761167a90919063ffffffff16565b61167a90919063ffffffff16565b9050600061143c6103e561142e888761170090919063ffffffff16565b61167a90919063ffffffff16565b905061145b600182848161144c57fe5b0461174a90919063ffffffff16565b925050509392505050565b60008084116114aa576040517f08c379a00000000000000000000000000000000000000000000000000000000081526004016114a190612667565b60405180910390fd5b6000831180156114ba5750600082115b6114f9576040517f08c379a00000000000000000000000000000000000000000000000000000000081526004016114f0906125c7565b60405180910390fd5b60006115106103e58661167a90919063ffffffff16565b90506000611527848361167a90919063ffffffff16565b90506000611552836115446103e88961167a90919063ffffffff16565b61174a90919063ffffffff16565b905080828161155d57fe5b0493505050509392505050565b60008083141561157d57600090506115ea565b600082840290508284828161158e57fe5b04146115e5576040517f08c379a00000000000000000000000000000000000000000000000000000000081526004018080602001828103825260218152602001806128b16021913960400191505060405180910390fd5b809150505b92915050565b600061163283836040518060400160405280601a81526020017f536166654d6174683a206469766973696f6e206279207a65726f0000000000008152506117d2565b905092915050565b60008160000151836000015114156116555760019050611674565b816000015183600001511161166b57600061166e565b60025b60ff1690505b92915050565b60008083141561168d57600090506116fa565b600082840290508284828161169e57fe5b04146116f5576040517f08c379a00000000000000000000000000000000000000000000000000000000081526004018080602001828103825260218152602001806128b16021913960400191505060405180910390fd5b809150505b92915050565b600061174283836040518060400160405280601e81526020017f536166654d6174683a207375627472616374696f6e206f766572666c6f770000815250611898565b905092915050565b6000808284019050838110156117c8576040517f08c379a000000000000000000000000000000000000000000000000000000000815260040180806020018281038252601b8152602001807f536166654d6174683a206164646974696f6e206f766572666c6f77000000000081525060200191505060405180910390fd5b8091505092915050565b6000808311829061187e576040517f08c379a00000000000000000000000000000000000000000000000000000000081526004018080602001828103825283818151815260200191508051906020019080838360005b83811015611843578082015181840152602081019050611828565b50505050905090810190601f1680156118705780820380516001836020036101000a031916815260200191505b509250505060405180910390fd5b50600083858161188a57fe5b049050809150509392505050565b6000838311158290611945576040517f08c379a00000000000000000000000000000000000000000000000000000000081526004018080602001828103825283818151815260200191508051906020019080838360005b8381101561190a5780820151818401526020810190506118ef565b50505050905090810190601f1680156119375780820380516001836020036101000a031916815260200191505b509250505060405180910390fd5b5060008385039050809150509392505050565b6040518060800160405280600081526020016000815260200160008152602001600081525090565b6040518060a00160405280600073ffffffffffffffffffffffffffffffffffffffff168152602001600073ffffffffffffffffffffffffffffffffffffffff168152602001600015158152602001600073ffffffffffffffffffffffffffffffffffffffff168152602001600073ffffffffffffffffffffffffffffffffffffffff1681525090565b6040518060e00160405280600073ffffffffffffffffffffffffffffffffffffffff168152602001600073ffffffffffffffffffffffffffffffffffffffff168152602001600015158152602001600073ffffffffffffffffffffffffffffffffffffffff168152602001600073ffffffffffffffffffffffffffffffffffffffff16815260200160008152602001600081525090565b6040518060200160405280600081525090565b600081359050611ac28161283d565b92915050565b600081519050611ad78161283d565b92915050565b600081359050611aec81612854565b92915050565b600081519050611b0181612854565b92915050565b60008083601f840112611b1957600080fd5b8235905067ffffffffffffffff811115611b3257600080fd5b602083019150836001820283011115611b4a57600080fd5b9250929050565b600060e08284031215611b6357600080fd5b611b6d60e06126ee565b90506000611b7d84828501611ab3565b6000830152506020611b9184828501611ab3565b6020830152506040611ba584828501611add565b6040830152506060611bb984828501611ab3565b6060830152506080611bcd84828501611ab3565b60808301525060a0611be184828501611c16565b60a08301525060c0611bf584828501611c16565b60c08301525092915050565b600081519050611c108161286b565b92915050565b600081359050611c2581612882565b92915050565b600081519050611c3a81612882565b92915050565b600081519050611c4f81612899565b92915050565b600060208284031215611c6757600080fd5b6000611c7584828501611ab3565b91505092915050565b600060208284031215611c9057600080fd5b6000611c9e84828501611ac8565b91505092915050565b60008060408385031215611cba57600080fd5b6000611cc885828601611ab3565b9250506020611cd985828601611ab3565b9150509250929050565b600080600060608486031215611cf857600080fd5b6000611d0686828701611ab3565b9350506020611d1786828701611ab3565b9250506040611d2886828701611add565b9150509250925092565b600080600060608486031215611d4757600080fd5b6000611d5586828701611ab3565b9350506020611d6686828701611ab3565b9250506040611d7786828701611c16565b9150509250925092565b600080600080600060808688031215611d9957600080fd5b6000611da788828901611ab3565b9550506020611db888828901611c16565b9450506040611dc988828901611c16565b935050606086013567ffffffffffffffff811115611de657600080fd5b611df288828901611b07565b92509250509295509295909350565b600060208284031215611e1357600080fd5b6000611e2184828501611af2565b91505092915050565b600060e08284031215611e3c57600080fd5b6000611e4a84828501611b51565b91505092915050565b600080600060608486031215611e6857600080fd5b6000611e7686828701611c01565b9350506020611e8786828701611c01565b9250506040611e9886828701611c40565b9150509250925092565b600060208284031215611eb457600080fd5b6000611ec284828501611c16565b91505092915050565b600060208284031215611edd57600080fd5b6000611eeb84828501611c2b565b91505092915050565b6000611f008383611f0c565b60208301905092915050565b611f1581612785565b82525050565b611f2481612785565b82525050565b6000611f358261272f565b611f3f8185612752565b9350611f4a8361271f565b8060005b83811015611f7b578151611f628882611ef4565b9750611f6d83612745565b925050600181019050611f4e565b5085935050505092915050565b611f9181612797565b82525050565b611fa081612797565b82525050565b6000611fb18261273a565b611fbb8185612763565b9350611fcb8185602086016127f7565b611fd48161282c565b840191505092915050565b6000611fec601983612774565b91507f63616e6e6f74207769746864726177206120302076616c7565000000000000006000830152602082019050919050565b600061202c601d83612774565b91507f4e6f6e207374616e6461726420756e697377617020414d4d20706169720000006000830152602082019050919050565b600061206c601b83612774565b91507f417262697472616765206661696c65642c206e6f2070726f66697400000000006000830152602082019050919050565b60006120ac602c83612774565b91507f556e697377617056324c6962726172793a20494e53554646494349454e545f4f60008301527f55545055545f414d4f554e5400000000000000000000000000000000000000006020830152604082019050919050565b6000612112602483612774565b91507f54726164652077696c6c206c6f6f736520796f75206d6f6e657920726576657260008301527f74696e67000000000000000000000000000000000000000000000000000000006020830152604082019050919050565b6000612178602883612774565b91507f556e697377617056324c6962726172793a20494e53554646494349454e545f4c60008301527f49515549444954590000000000000000000000000000000000000000000000006020830152604082019050919050565b60006121de601183612774565b91507f53616d65207061697220616464726573730000000000000000000000000000006000830152602082019050919050565b600061221e601583612774565b91507f4e6f206261736520746f6b656e20696e207061697200000000000000000000006000830152602082019050919050565b600061225e602083612774565b91507f4e6f74206265696e672073656e742066726f6d2074687320636f6e74726163746000830152602082019050919050565b600061229e601783612774565b91507f526571756972652073616d6520746f6b656e20706169720000000000000000006000830152602082019050919050565b60006122de602b83612774565b91507f556e697377617056324c6962726172793a20494e53554646494349454e545f4960008301527f4e5055545f414d4f554e540000000000000000000000000000000000000000006020830152604082019050919050565b60e08201600082015161234d6000850182611f0c565b5060208201516123606020850182611f0c565b5060408201516123736040850182611f88565b5060608201516123866060850182611f0c565b5060808201516123996080850182611f0c565b5060a08201516123ac60a085018261241a565b5060c08201516123bf60c085018261241a565b50505050565b6080820160008201516123db600085018261241a565b5060208201516123ee602085018261241a565b506040820151612401604085018261241a565b506060820151612414606085018261241a565b50505050565b612423816127dd565b82525050565b612432816127dd565b82525050565b600060208201905061244d6000830184611f1b565b92915050565b600060c0820190506124686000830186611f1b565b6124756020830185611f1b565b61248260408301846123c5565b949350505050565b600060408201905061249f6000830185611f1b565b6124ac6020830184612429565b9392505050565b600060208201905081810360008301526124cd8184611f2a565b905092915050565b60006020820190506124ea6000830184611f97565b92915050565b60006060820190506125056000830186611f97565b6125126020830185611f1b565b61251f6040830184611f1b565b949350505050565b6000602082019050818103600083015261254081611fdf565b9050919050565b600060208201905081810360008301526125608161201f565b9050919050565b600060208201905081810360008301526125808161205f565b9050919050565b600060208201905081810360008301526125a08161209f565b9050919050565b600060208201905081810360008301526125c081612105565b9050919050565b600060208201905081810360008301526125e08161216b565b9050919050565b60006020820190508181036000830152612600816121d1565b9050919050565b6000602082019050818103600083015261262081612211565b9050919050565b6000602082019050818103600083015261264081612251565b9050919050565b6000602082019050818103600083015261266081612291565b9050919050565b60006020820190508181036000830152612680816122d1565b9050919050565b600060e08201905061269c6000830184612337565b92915050565b60006080820190506126b76000830187612429565b6126c46020830186612429565b6126d16040830185611f1b565b81810360608301526126e38184611fa6565b905095945050505050565b6000604051905081810181811067ffffffffffffffff821117156127155761271461282a565b5b8060405250919050565b6000819050602082019050919050565b600081519050919050565b600081519050919050565b6000602082019050919050565b600082825260208201905092915050565b600082825260208201905092915050565b600082825260208201905092915050565b6000612790826127bd565b9050919050565b60008115159050919050565b60006dffffffffffffffffffffffffffff82169050919050565b600073ffffffffffffffffffffffffffffffffffffffff82169050919050565b6000819050919050565b600063ffffffff82169050919050565b60005b838110156128155780820151818401526020810190506127fa565b83811115612824576000848401525b50505050565bfe5b6000601f19601f8301169050919050565b61284681612785565b811461285157600080fd5b50565b61285d81612797565b811461286857600080fd5b50565b612874816127a3565b811461287f57600080fd5b50565b61288b816127dd565b811461289657600080fd5b50565b6128a2816127e7565b81146128ad57600080fd5b5056fe536166654d6174683a206d756c7469706c69636174696f6e206f766572666c6f77a2646970667358221220f97d01f2a2f4bc4370dfb82198c57754f089512db1224110b922c7f6c1dae77d64736f6c63430007060033",
  "immutableReferences": {},
  "source": "// SPDX-License-Identifier: MIT\r\npragma solidity ^0.7.0;\r\npragma experimental ABIEncoderV2;\r\n\r\nimport './utils/UniswapV2Library.sol';\r\nimport './interfaces/IUniswapV2Router02.sol';\r\nimport './interfaces/IUniswapV2Pair.sol';\r\nimport './interfaces/IUniswapV2Factory.sol';\r\nimport \"./interfaces/IERC20.sol\";\r\nimport \"../node_modules//@openzeppelin/contracts/utils/math/SafeMath.sol\";\r\nimport \"../contracts/utils/SafeMathCopy.sol\";\r\nimport \"./TradeOrder.sol\";\r\n\r\n//this is the flashsswap contract. I ended up writing another contract TradeOrder.sol which orders the reserves\r\n//in such a way so that we are always borrowing from the lower reserve pool and selling to the higher reserve pool\r\n//this saves us from having to tun the bot script twice where we check arb for TOKEN0/TOKEN1 and TOKEN1/TOKEN0 on\r\n//both exchnages simultaneusly.\r\ncontract FlashSwap is TradeOrder {\r\n\r\n    using SafeMath for uint256;\r\n\r\n    address owner;\r\n\r\n    //here we add the contract deploy and assign him to the owner only the owner can withdraw\r\n    constructor(address _owner) {\r\n\r\n        owner == _owner;\r\n    }\r\n    \r\n    //struct for the srbitrage info such as the base token qoute token etc..\r\n    struct ArbitrageInfo {\r\n\r\n        address baseToken;\r\n        address quoteToken;\r\n        bool baseTokenSmaller;\r\n        address lowerPool;\r\n        address higherPool;\r\n    }\r\n\r\n    //this struct allows us to store data which we can query whenever uniswap\r\n    //calls back the uniswapV2Call function. we can store the amountIn amountOut and ehich pool we botrrow from etc\r\n    struct CallbackData {\r\n\r\n        address debtPool;\r\n        address targetPool;\r\n        bool debtTokenSmaller;\r\n        address borrowedToken;\r\n        address debtToken;\r\n        uint256 debtAmount;\r\n        uint256 debtTokenOutAmount;\r\n    }\r\n\r\n    modifier onlyOwner() {\r\n\r\n        require(msg.sender == owner, \"only the FlashBot owner can withdraw funds\");\r\n        _;\r\n    }\r\n\r\n    function withdraw(uint256 amount) public {\r\n\r\n        require(amount > 0, \"cannot withdraw a 0 value\");\r\n        payable(msg.sender).transfer(amount);\r\n    }\r\n\r\n\r\n   \r\n    function testFlashSwap(address pool0, address pool1, uint256 borrowAmount) external {\r\n\r\n        //here we make and instance of the info struct\r\n        ArbitrageInfo memory info;\r\n        //we then call a function called isBaseTokenSmaller. this function will change the order of the trade\r\n        //so that we are alwsys borrowing from the base token reserve\r\n        (info.baseTokenSmaller, info.baseToken, info.quoteToken) = isbaseTokenSmaller(pool0, pool1);\r\n\r\n        //here we make an instance of the reserve struct\r\n        orderedReserves memory orderedReserves;\r\n        (info.lowerPool, info.higherPool, orderedReserves) = getOrderedReserves(pool0, pool1, info.baseTokenSmaller);\r\n\r\n        // permissionedPairAddress  = info.lowerPool;\r\n\r\n        //check balance before the loan\r\n        uint256 balanceBefore = IERC20(info.baseToken).balanceOf(address(this));\r\n\r\n        {\r\n            // uint256 borrowAmount = 10**18;\r\n            //here we need to set ether amont1 = 0 or amount0 = 0 depending on which pool where gonna borrow from\r\n            (uint256 amount0Out, uint256 amount1Out) = info.baseTokenSmaller ? (uint256(0), borrowAmount) : (borrowAmount, uint256(0));\r\n\r\n            uint256 debtAmount = getAmountIn(borrowAmount, orderedReserves.a1, orderedReserves.b1);\r\n\r\n            uint256 baseTokenOutAmount = getAmountOut(borrowAmount, orderedReserves.b2, orderedReserves.a2);\r\n            require(baseTokenOutAmount> debtAmount, \"Arbitrage failed, no profit\");\r\n\r\n\r\n            //here we assign the callback data so we can query it when uniswap calls the V2Call function\r\n            //using a truct like this is a hand y way tto store the data\r\n            CallbackData memory callbackData;\r\n            callbackData.debtPool = info.lowerPool;\r\n            callbackData.targetPool = info.higherPool;\r\n            callbackData.debtTokenSmaller = info.baseTokenSmaller;\r\n            callbackData.borrowedToken = info.quoteToken;\r\n            callbackData.debtToken = info.baseToken;\r\n            callbackData.debtAmount = debtAmount;\r\n            callbackData.debtTokenOutAmount = baseTokenOutAmount;\r\n\r\n            bytes memory data = abi.encode(callbackData);\r\n            IUniswapV2Pair(info.lowerPool).swap(amount0Out, amount1Out, address(this), data);\r\n        }\r\n\r\n        uint256 balanceAfter = IERC20(info.baseToken).balanceOf(address(this));\r\n        require(balanceAfter > balanceBefore, \"Trade will loose you money reverting\");\r\n\r\n    }\r\n\r\n    // called by pair contract\r\n    //callback function from uniswap. largely the same only minor cistimisations made\r\n    function uniswapV2Call( address sender, uint amount0, uint amount1, bytes calldata data ) external {\r\n        // require(msg.sender == permissionedPairAddress, \"Non permissioned address call\");\r\n        require(sender == address(this), \"Not being sent from ths contract\");\r\n\r\n        //here we check what order our borrowed amount is in i.e is is amount1 or amount 0\r\n        //the  we initialise our calllback struct to extract the data we set iin the flashwap func\r\n        uint256 borrowedAmount = amount0 > 0 ? amount0 : amount1;\r\n        CallbackData memory info = abi.decode(data, (CallbackData));\r\n\r\n        //we then transfer the borrowd tokens to the destination pool swap them and pay back the loan\r\n        IERC20(info.borrowedToken).transfer(info.targetPool, borrowedAmount);\r\n\r\n        //we can use the uniswap interface to swap tokens on any exchange that is a fork of the uniswap codebase\r\n        (uint256 amount0Out, uint256 amount1Out) = info.debtTokenSmaller ? (info.debtTokenOutAmount, uint256(0)) : (uint256(0), info.debtTokenOutAmount);\r\n        IUniswapV2Pair(info.targetPool).swap(amount0Out, amount1Out, address(this), new bytes(0));\r\n\r\n        //transfer back to source exchange topay back flashloan\r\n        IERC20(info.debtToken).transfer(info.debtPool, info.debtAmount);\r\n    }\r\n\r\n        // copy from UniswapV2Library\r\n        // given an output amount of an asset and pair reserves, returns a required input amount of the other asset\r\n        function getAmountIn(uint256 amountOut, uint256 reserveIn, uint256 reserveOut) internal pure returns (uint256 amountIn) {\r\n            require(amountOut > 0, 'UniswapV2Library: INSUFFICIENT_OUTPUT_AMOUNT');\r\n            require(reserveIn > 0 && reserveOut > 0, 'UniswapV2Library: INSUFFICIENT_LIQUIDITY');\r\n            uint256 numerator = reserveIn.mul(amountOut).mul(1000);\r\n            uint256 denominator = reserveOut.sub(amountOut).mul(997);\r\n            amountIn = (numerator / denominator).add(1);\r\n        }\r\n\r\n        // copy from UniswapV2Library\r\n        // given an input amount of an asset and pair reserves, returns the maximum output amount of the other asset\r\n        function getAmountOut(uint256 amountIn, uint256 reserveIn, uint256 reserveOut) internal pure returns (uint256 amountOut) {\r\n            require(amountIn > 0, 'UniswapV2Library: INSUFFICIENT_INPUT_AMOUNT');\r\n            require(reserveIn > 0 && reserveOut > 0, 'UniswapV2Library: INSUFFICIENT_LIQUIDITY');\r\n            uint256 amountInWithFee = amountIn.mul(997);\r\n            uint256 numerator = amountInWithFee.mul(reserveOut);\r\n            uint256 denominator = reserveIn.mul(1000).add(amountInWithFee);\r\n            amountOut = numerator / denominator;\r\n        }\r\n\r\n}\r\n",
  "sourcePath": "C:\\Users\\mcgra\\OneDrive\\Documents\\EthereumProgramming\\Bot\\contracts\\FlashBot.sol",
  "compiler": {
    "name": "solc",
    "version": "0.7.6+commit.7338295f.Emscripten.clang"
  },
  "schemaVersion": "3.4.3",
  "updatedAt": "2021-11-16T18:37:34.526Z",
  "devdoc": {
    "kind": "dev",
    "methods": {},
    "version": 1
  },
  "userdoc": {
    "kind": "user",
    "methods": {
      "getOrderedReserves(address,address,bool)": {
        "notice": "We borrow base token by using flash swap from lower price pool and sell them to higher price pool"
      }
    },
    "version": 1
  }
}