{
  "contractName": "FlashSwap",
  "abi": [
    {
      "inputs": [
        {
          "internalType": "address",
          "name": "_owner",
          "type": "address"
        }
      ],
      "stateMutability": "nonpayable",
      "type": "constructor"
    },
    {
      "inputs": [
        {
          "internalType": "address",
          "name": "token",
          "type": "address"
        }
      ],
      "name": "baseTokensContains",
      "outputs": [
        {
          "internalType": "bool",
          "name": "hasBeenFound",
          "type": "bool"
        }
      ],
      "stateMutability": "view",
      "type": "function"
    },
    {
      "inputs": [
        {
          "internalType": "address",
          "name": "pool0",
          "type": "address"
        },
        {
          "internalType": "address",
          "name": "pool1",
          "type": "address"
        },
        {
          "internalType": "bool",
          "name": "baseTokenSmaller",
          "type": "bool"
        }
      ],
      "name": "getOrderedReserves",
      "outputs": [
        {
          "internalType": "address",
          "name": "lowerPool",
          "type": "address"
        },
        {
          "internalType": "address",
          "name": "higherPool",
          "type": "address"
        },
        {
          "components": [
            {
              "internalType": "uint256",
              "name": "a1",
              "type": "uint256"
            },
            {
              "internalType": "uint256",
              "name": "b1",
              "type": "uint256"
            },
            {
              "internalType": "uint256",
              "name": "a2",
              "type": "uint256"
            },
            {
              "internalType": "uint256",
              "name": "b2",
              "type": "uint256"
            }
          ],
          "internalType": "struct TradeOrder.orderedReserves",
          "name": "orderedReserve",
          "type": "tuple"
        }
      ],
      "stateMutability": "nonpayable",
      "type": "function"
    },
    {
      "inputs": [
        {
          "internalType": "address",
          "name": "pool0",
          "type": "address"
        },
        {
          "internalType": "address",
          "name": "pool1",
          "type": "address"
        }
      ],
      "name": "isbaseTokenSmaller",
      "outputs": [
        {
          "internalType": "bool",
          "name": "baseSmaller",
          "type": "bool"
        },
        {
          "internalType": "address",
          "name": "baseToken",
          "type": "address"
        },
        {
          "internalType": "address",
          "name": "quoteToken",
          "type": "address"
        }
      ],
      "stateMutability": "view",
      "type": "function"
    },
    {
      "inputs": [
        {
          "internalType": "uint256",
          "name": "amount",
          "type": "uint256"
        }
      ],
      "name": "withdraw",
      "outputs": [],
      "stateMutability": "nonpayable",
      "type": "function"
    },
    {
      "inputs": [
        {
          "internalType": "address",
          "name": "pool0",
          "type": "address"
        },
        {
          "internalType": "address",
          "name": "pool1",
          "type": "address"
        },
        {
          "internalType": "uint256",
          "name": "borrowAmount",
          "type": "uint256"
        }
      ],
      "name": "testFlashSwap",
      "outputs": [],
      "stateMutability": "nonpayable",
      "type": "function"
    },
    {
      "inputs": [
        {
          "internalType": "address",
          "name": "sender",
          "type": "address"
        },
        {
          "internalType": "uint256",
          "name": "amount0",
          "type": "uint256"
        },
        {
          "internalType": "uint256",
          "name": "amount1",
          "type": "uint256"
        },
        {
          "internalType": "bytes",
          "name": "data",
          "type": "bytes"
        }
      ],
      "name": "uniswapV2Call",
      "outputs": [],
      "stateMutability": "nonpayable",
      "type": "function"
    }
  ],
  "bytecode": "0x6080604052604051806060016040528073c02aaa39b223fe8d0a0e5c4f27ead9083c756cc273ffffffffffffffffffffffffffffffffffffffff1673ffffffffffffffffffffffffffffffffffffffff16815260200173bb91175307dd50bdebcfe82f2f343bbef607e65973ffffffffffffffffffffffffffffffffffffffff1673ffffffffffffffffffffffffffffffffffffffff16815260200173e844c3710e6319125375628b76e320f52ca6790373ffffffffffffffffffffffffffffffffffffffff1673ffffffffffffffffffffffffffffffffffffffff168152506000906003620000f192919062000152565b50348015620000ff57600080fd5b50604051620028df380380620028df833981810160405281019062000125919062000217565b8073ffffffffffffffffffffffffffffffffffffffff16600160009054906101000a905050505062000291565b828054828255906000526020600020908101928215620001ce579160200282015b82811115620001cd5782518260006101000a81548173ffffffffffffffffffffffffffffffffffffffff021916908373ffffffffffffffffffffffffffffffffffffffff1602179055509160200191906001019062000173565b5b509050620001dd9190620001e1565b5090565b5b80821115620001fc576000816000905550600101620001e2565b5090565b600081519050620002118162000277565b92915050565b6000602082840312156200022a57600080fd5b60006200023a8482850162000200565b91505092915050565b6000620002508262000257565b9050919050565b600073ffffffffffffffffffffffffffffffffffffffff82169050919050565b620002828162000243565b81146200028e57600080fd5b50565b61263e80620002a16000396000f3fe608060405234801561001057600080fd5b50600436106100625760003560e01c806310d1e85c146100675780631a1299691461008357806321d09426146100b55780632e1a7d4d146100e55780638e6222c414610101578063a39992d414610133575b600080fd5b610081600480360381019061007c9190611b89565b61014f565b005b61009d60048036038101906100989190611aaf565b610402565b6040516100ac93929190612260565b60405180910390f35b6100cf60048036038101906100ca9190611a5d565b610850565b6040516100dc9190612245565b60405180910390f35b6100ff60048036038101906100fa9190611caa565b610903565b005b61011b60048036038101906101169190611aeb565b610990565b60405161012a939291906121e5565b60405180910390f35b61014d60048036038101906101489190611b3a565b610c14565b005b3073ffffffffffffffffffffffffffffffffffffffff168573ffffffffffffffffffffffffffffffffffffffff16146101bd576040517f08c379a00000000000000000000000000000000000000000000000000000000081526004016101b490612397565b60405180910390fd5b60008085116101cc57836101ce565b845b9050600083838101906101e19190611c32565b9050806060015173ffffffffffffffffffffffffffffffffffffffff1663a9059cbb8260200151846040518363ffffffff1660e01b815260040161022692919061221c565b602060405180830381600087803b15801561024057600080fd5b505af1158015610254573d6000803e3d6000fd5b505050506040513d601f19601f820116820180604052508101906102789190611c09565b5060008082604001516102915760008360c00151610299565b8260c0015160005b91509150826020015173ffffffffffffffffffffffffffffffffffffffff1663022c0d9f838330600067ffffffffffffffff811180156102d857600080fd5b506040519080825280601f01601f19166020018201604052801561030b5781602001600182028036833780820191505090505b506040518563ffffffff1660e01b815260040161032b9493929190612412565b600060405180830381600087803b15801561034557600080fd5b505af1158015610359573d6000803e3d6000fd5b50505050826080015173ffffffffffffffffffffffffffffffffffffffff1663a9059cbb84600001518560a001516040518363ffffffff1660e01b81526004016103a492919061221c565b602060405180830381600087803b1580156103be57600080fd5b505af11580156103d2573d6000803e3d6000fd5b505050506040513d601f19601f820116820180604052508101906103f69190611c09565b50505050505050505050565b60008060008373ffffffffffffffffffffffffffffffffffffffff168573ffffffffffffffffffffffffffffffffffffffff161415610476576040517f08c379a000000000000000000000000000000000000000000000000000000000815260040161046d90612357565b60405180910390fd5b6000808673ffffffffffffffffffffffffffffffffffffffff16630dfe16816040518163ffffffff1660e01b815260040160206040518083038186803b1580156104bf57600080fd5b505afa1580156104d3573d6000803e3d6000fd5b505050506040513d601f19601f820116820180604052508101906104f79190611a86565b8773ffffffffffffffffffffffffffffffffffffffff1663d21220a76040518163ffffffff1660e01b815260040160206040518083038186803b15801561053d57600080fd5b505afa158015610551573d6000803e3d6000fd5b505050506040513d601f19601f820116820180604052508101906105759190611a86565b915091506000808773ffffffffffffffffffffffffffffffffffffffff16630dfe16816040518163ffffffff1660e01b815260040160206040518083038186803b1580156105c257600080fd5b505afa1580156105d6573d6000803e3d6000fd5b505050506040513d601f19601f820116820180604052508101906105fa9190611a86565b8873ffffffffffffffffffffffffffffffffffffffff1663d21220a76040518163ffffffff1660e01b815260040160206040518083038186803b15801561064057600080fd5b505afa158015610654573d6000803e3d6000fd5b505050506040513d601f19601f820116820180604052508101906106789190611a86565b915091508273ffffffffffffffffffffffffffffffffffffffff168473ffffffffffffffffffffffffffffffffffffffff161080156106e257508073ffffffffffffffffffffffffffffffffffffffff168273ffffffffffffffffffffffffffffffffffffffff16105b610721576040517f08c379a0000000000000000000000000000000000000000000000000000000008152600401610718906122b7565b60405180910390fd5b8173ffffffffffffffffffffffffffffffffffffffff168473ffffffffffffffffffffffffffffffffffffffff1614801561078757508073ffffffffffffffffffffffffffffffffffffffff168373ffffffffffffffffffffffffffffffffffffffff16145b6107c6576040517f08c379a00000000000000000000000000000000000000000000000000000000081526004016107bd906123b7565b60405180910390fd5b6107cf84610850565b806107df57506107de83610850565b5b61081e576040517f08c379a000000000000000000000000000000000000000000000000000000000815260040161081590612377565b60405180910390fd5b61082784610850565b6108345760008385610839565b600184845b809750819850829950505050505050509250925092565b6000806000905060005b6000805490508110156108e8578373ffffffffffffffffffffffffffffffffffffffff166000828154811061088b57fe5b9060005260206000200160009054906101000a900473ffffffffffffffffffffffffffffffffffffffff1673ffffffffffffffffffffffffffffffffffffffff1614156108db57600191506108e8565b808060010191505061085a565b5081156108f95760019150506108fe565b809150505b919050565b60008111610946576040517f08c379a000000000000000000000000000000000000000000000000000000000815260040161093d90612297565b60405180910390fd5b3373ffffffffffffffffffffffffffffffffffffffff166108fc829081150290604051600060405180830381858888f1935050505015801561098c573d6000803e3d6000fd5b5050565b60008061099b611760565b6000808773ffffffffffffffffffffffffffffffffffffffff16630902f1ac6040518163ffffffff1660e01b815260040160606040518083038186803b1580156109e457600080fd5b505afa1580156109f8573d6000803e3d6000fd5b505050506040513d601f19601f82011682018060405250810190610a1c9190611c5b565b506dffffffffffffffffffffffffffff1691506dffffffffffffffffffffffffffff1691506000808873ffffffffffffffffffffffffffffffffffffffff16630902f1ac6040518163ffffffff1660e01b815260040160606040518083038186803b158015610a8a57600080fd5b505afa158015610a9e573d6000803e3d6000fd5b505050506040513d601f19601f82011682018060405250810190610ac29190611c5b565b506dffffffffffffffffffffffffffff1691506dffffffffffffffffffffffffffff16915060008089610b2a57610b0a86610afc876110da565b61111290919063ffffffff16565b610b2585610b17866110da565b61111290919063ffffffff16565b610b61565b610b4585610b37886110da565b61111290919063ffffffff16565b610b6084610b52876110da565b61111290919063ffffffff16565b5b91509150610b78818361114790919063ffffffff16565b15610bc3578b8b809950819a50505089610b955784868486610b9a565b858585855b8a6000018b6020018c6040018d6060018481525084815250848152508481525050505050610c05565b8a8c809950819a50505089610bdb5782848688610be0565b838387875b8a6000018b6020018c6040018d60600184815250848152508481525084815250505050505b50505050505093509350939050565b610c1c611788565b610c268484610402565b8360400184600001856020018373ffffffffffffffffffffffffffffffffffffffff1673ffffffffffffffffffffffffffffffffffffffff168152508373ffffffffffffffffffffffffffffffffffffffff1673ffffffffffffffffffffffffffffffffffffffff168152508315151515815250505050610ca5611760565b610cb485858460400151610990565b84606001856080018295508373ffffffffffffffffffffffffffffffffffffffff1673ffffffffffffffffffffffffffffffffffffffff168152508373ffffffffffffffffffffffffffffffffffffffff1673ffffffffffffffffffffffffffffffffffffffff168152505050506000826000015173ffffffffffffffffffffffffffffffffffffffff166370a08231306040518263ffffffff1660e01b8152600401610d6191906121ca565b60206040518083038186803b158015610d7957600080fd5b505afa158015610d8d573d6000803e3d6000fd5b505050506040513d601f19601f82011682018060405250810190610db19190611cd3565b90506000808460400151610dc757856000610dcb565b6000865b915091506000610de4878660000151876020015161115d565b90506000610dfb888760600151886040015161126e565b9050818111610e3f576040517f08c379a0000000000000000000000000000000000000000000000000000000008152600401610e36906122d7565b60405180910390fd5b610e47611811565b8760600151816000019073ffffffffffffffffffffffffffffffffffffffff16908173ffffffffffffffffffffffffffffffffffffffff16815250508760800151816020019073ffffffffffffffffffffffffffffffffffffffff16908173ffffffffffffffffffffffffffffffffffffffff168152505087604001518160400190151590811515815250508760200151816060019073ffffffffffffffffffffffffffffffffffffffff16908173ffffffffffffffffffffffffffffffffffffffff16815250508760000151816080019073ffffffffffffffffffffffffffffffffffffffff16908173ffffffffffffffffffffffffffffffffffffffff1681525050828160a0018181525050818160c0018181525050600081604051602001610f7291906123f7565b6040516020818303038152906040529050886060015173ffffffffffffffffffffffffffffffffffffffff1663022c0d9f878730856040518563ffffffff1660e01b8152600401610fc69493929190612412565b600060405180830381600087803b158015610fe057600080fd5b505af1158015610ff4573d6000803e3d6000fd5b505050505050505050506000836000015173ffffffffffffffffffffffffffffffffffffffff166370a08231306040518263ffffffff1660e01b815260040161103d91906121ca565b60206040518083038186803b15801561105557600080fd5b505afa158015611069573d6000803e3d6000fd5b505050506040513d601f19601f8201168201806040525081019061108d9190611cd3565b90508181116110d1576040517f08c379a00000000000000000000000000000000000000000000000000000000081526004016110c890612317565b60405180910390fd5b50505050505050565b6110e26118a8565b6040518060200160405280611108670de0b6b3a76400008561137290919063ffffffff16565b8152509050919050565b61111a6118a8565b604051806020016040528061113c8486600001516113f890919063ffffffff16565b815250905092915050565b6000806111548484611442565b14905092915050565b60008084116111a1576040517f08c379a0000000000000000000000000000000000000000000000000000000008152600401611198906122f7565b60405180910390fd5b6000831180156111b15750600082115b6111f0576040517f08c379a00000000000000000000000000000000000000000000000000000000081526004016111e790612337565b60405180910390fd5b60006112196103e861120b878761148290919063ffffffff16565b61148290919063ffffffff16565b905060006112446103e5611236888761150890919063ffffffff16565b61148290919063ffffffff16565b9050611263600182848161125457fe5b0461155290919063ffffffff16565b925050509392505050565b60008084116112b2576040517f08c379a00000000000000000000000000000000000000000000000000000000081526004016112a9906123d7565b60405180910390fd5b6000831180156112c25750600082115b611301576040517f08c379a00000000000000000000000000000000000000000000000000000000081526004016112f890612337565b60405180910390fd5b60006113186103e58661148290919063ffffffff16565b9050600061132f848361148290919063ffffffff16565b9050600061135a8361134c6103e88961148290919063ffffffff16565b61155290919063ffffffff16565b905080828161136557fe5b0493505050509392505050565b60008083141561138557600090506113f2565b600082840290508284828161139657fe5b04146113ed576040517f08c379a00000000000000000000000000000000000000000000000000000000081526004018080602001828103825260218152602001806125e86021913960400191505060405180910390fd5b809150505b92915050565b600061143a83836040518060400160405280601a81526020017f536166654d6174683a206469766973696f6e206279207a65726f0000000000008152506115da565b905092915050565b600081600001518360000151141561145d576001905061147c565b8160000151836000015111611473576000611476565b60025b60ff1690505b92915050565b6000808314156114955760009050611502565b60008284029050828482816114a657fe5b04146114fd576040517f08c379a00000000000000000000000000000000000000000000000000000000081526004018080602001828103825260218152602001806125e86021913960400191505060405180910390fd5b809150505b92915050565b600061154a83836040518060400160405280601e81526020017f536166654d6174683a207375627472616374696f6e206f766572666c6f7700008152506116a0565b905092915050565b6000808284019050838110156115d0576040517f08c379a000000000000000000000000000000000000000000000000000000000815260040180806020018281038252601b8152602001807f536166654d6174683a206164646974696f6e206f766572666c6f77000000000081525060200191505060405180910390fd5b8091505092915050565b60008083118290611686576040517f08c379a00000000000000000000000000000000000000000000000000000000081526004018080602001828103825283818151815260200191508051906020019080838360005b8381101561164b578082015181840152602081019050611630565b50505050905090810190601f1680156116785780820380516001836020036101000a031916815260200191505b509250505060405180910390fd5b50600083858161169257fe5b049050809150509392505050565b600083831115829061174d576040517f08c379a00000000000000000000000000000000000000000000000000000000081526004018080602001828103825283818151815260200191508051906020019080838360005b838110156117125780820151818401526020810190506116f7565b50505050905090810190601f16801561173f5780820380516001836020036101000a031916815260200191505b509250505060405180910390fd5b5060008385039050809150509392505050565b6040518060800160405280600081526020016000815260200160008152602001600081525090565b6040518060a00160405280600073ffffffffffffffffffffffffffffffffffffffff168152602001600073ffffffffffffffffffffffffffffffffffffffff168152602001600015158152602001600073ffffffffffffffffffffffffffffffffffffffff168152602001600073ffffffffffffffffffffffffffffffffffffffff1681525090565b6040518060e00160405280600073ffffffffffffffffffffffffffffffffffffffff168152602001600073ffffffffffffffffffffffffffffffffffffffff168152602001600015158152602001600073ffffffffffffffffffffffffffffffffffffffff168152602001600073ffffffffffffffffffffffffffffffffffffffff16815260200160008152602001600081525090565b6040518060200160405280600081525090565b6000813590506118ca81612574565b92915050565b6000815190506118df81612574565b92915050565b6000813590506118f48161258b565b92915050565b6000815190506119098161258b565b92915050565b60008083601f84011261192157600080fd5b8235905067ffffffffffffffff81111561193a57600080fd5b60208301915083600182028301111561195257600080fd5b9250929050565b600060e0828403121561196b57600080fd5b61197560e061245e565b90506000611985848285016118bb565b6000830152506020611999848285016118bb565b60208301525060406119ad848285016118e5565b60408301525060606119c1848285016118bb565b60608301525060806119d5848285016118bb565b60808301525060a06119e984828501611a1e565b60a08301525060c06119fd84828501611a1e565b60c08301525092915050565b600081519050611a18816125a2565b92915050565b600081359050611a2d816125b9565b92915050565b600081519050611a42816125b9565b92915050565b600081519050611a57816125d0565b92915050565b600060208284031215611a6f57600080fd5b6000611a7d848285016118bb565b91505092915050565b600060208284031215611a9857600080fd5b6000611aa6848285016118d0565b91505092915050565b60008060408385031215611ac257600080fd5b6000611ad0858286016118bb565b9250506020611ae1858286016118bb565b9150509250929050565b600080600060608486031215611b0057600080fd5b6000611b0e868287016118bb565b9350506020611b1f868287016118bb565b9250506040611b30868287016118e5565b9150509250925092565b600080600060608486031215611b4f57600080fd5b6000611b5d868287016118bb565b9350506020611b6e868287016118bb565b9250506040611b7f86828701611a1e565b9150509250925092565b600080600080600060808688031215611ba157600080fd5b6000611baf888289016118bb565b9550506020611bc088828901611a1e565b9450506040611bd188828901611a1e565b935050606086013567ffffffffffffffff811115611bee57600080fd5b611bfa8882890161190f565b92509250509295509295909350565b600060208284031215611c1b57600080fd5b6000611c29848285016118fa565b91505092915050565b600060e08284031215611c4457600080fd5b6000611c5284828501611959565b91505092915050565b600080600060608486031215611c7057600080fd5b6000611c7e86828701611a09565b9350506020611c8f86828701611a09565b9250506040611ca086828701611a48565b9150509250925092565b600060208284031215611cbc57600080fd5b6000611cca84828501611a1e565b91505092915050565b600060208284031215611ce557600080fd5b6000611cf384828501611a33565b91505092915050565b611d05816124bc565b82525050565b611d14816124bc565b82525050565b611d23816124ce565b82525050565b611d32816124ce565b82525050565b6000611d438261248f565b611d4d818561249a565b9350611d5d81856020860161252e565b611d6681612563565b840191505092915050565b6000611d7e6019836124ab565b91507f63616e6e6f74207769746864726177206120302076616c7565000000000000006000830152602082019050919050565b6000611dbe601d836124ab565b91507f4e6f6e207374616e6461726420756e697377617020414d4d20706169720000006000830152602082019050919050565b6000611dfe601b836124ab565b91507f417262697472616765206661696c65642c206e6f2070726f66697400000000006000830152602082019050919050565b6000611e3e602c836124ab565b91507f556e697377617056324c6962726172793a20494e53554646494349454e545f4f60008301527f55545055545f414d4f554e5400000000000000000000000000000000000000006020830152604082019050919050565b6000611ea46024836124ab565b91507f54726164652077696c6c206c6f6f736520796f75206d6f6e657920726576657260008301527f74696e67000000000000000000000000000000000000000000000000000000006020830152604082019050919050565b6000611f0a6028836124ab565b91507f556e697377617056324c6962726172793a20494e53554646494349454e545f4c60008301527f49515549444954590000000000000000000000000000000000000000000000006020830152604082019050919050565b6000611f706011836124ab565b91507f53616d65207061697220616464726573730000000000000000000000000000006000830152602082019050919050565b6000611fb06015836124ab565b91507f4e6f206261736520746f6b656e20696e207061697200000000000000000000006000830152602082019050919050565b6000611ff06020836124ab565b91507f4e6f74206265696e672073656e742066726f6d2074687320636f6e74726163746000830152602082019050919050565b60006120306017836124ab565b91507f526571756972652073616d6520746f6b656e20706169720000000000000000006000830152602082019050919050565b6000612070602b836124ab565b91507f556e697377617056324c6962726172793a20494e53554646494349454e545f4960008301527f4e5055545f414d4f554e540000000000000000000000000000000000000000006020830152604082019050919050565b60e0820160008201516120df6000850182611cfc565b5060208201516120f26020850182611cfc565b5060408201516121056040850182611d1a565b5060608201516121186060850182611cfc565b50608082015161212b6080850182611cfc565b5060a082015161213e60a08501826121ac565b5060c082015161215160c08501826121ac565b50505050565b60808201600082015161216d60008501826121ac565b50602082015161218060208501826121ac565b50604082015161219360408501826121ac565b5060608201516121a660608501826121ac565b50505050565b6121b581612514565b82525050565b6121c481612514565b82525050565b60006020820190506121df6000830184611d0b565b92915050565b600060c0820190506121fa6000830186611d0b565b6122076020830185611d0b565b6122146040830184612157565b949350505050565b60006040820190506122316000830185611d0b565b61223e60208301846121bb565b9392505050565b600060208201905061225a6000830184611d29565b92915050565b60006060820190506122756000830186611d29565b6122826020830185611d0b565b61228f6040830184611d0b565b949350505050565b600060208201905081810360008301526122b081611d71565b9050919050565b600060208201905081810360008301526122d081611db1565b9050919050565b600060208201905081810360008301526122f081611df1565b9050919050565b6000602082019050818103600083015261231081611e31565b9050919050565b6000602082019050818103600083015261233081611e97565b9050919050565b6000602082019050818103600083015261235081611efd565b9050919050565b6000602082019050818103600083015261237081611f63565b9050919050565b6000602082019050818103600083015261239081611fa3565b9050919050565b600060208201905081810360008301526123b081611fe3565b9050919050565b600060208201905081810360008301526123d081612023565b9050919050565b600060208201905081810360008301526123f081612063565b9050919050565b600060e08201905061240c60008301846120c9565b92915050565b600060808201905061242760008301876121bb565b61243460208301866121bb565b6124416040830185611d0b565b81810360608301526124538184611d38565b905095945050505050565b6000604051905081810181811067ffffffffffffffff8211171561248557612484612561565b5b8060405250919050565b600081519050919050565b600082825260208201905092915050565b600082825260208201905092915050565b60006124c7826124f4565b9050919050565b60008115159050919050565b60006dffffffffffffffffffffffffffff82169050919050565b600073ffffffffffffffffffffffffffffffffffffffff82169050919050565b6000819050919050565b600063ffffffff82169050919050565b60005b8381101561254c578082015181840152602081019050612531565b8381111561255b576000848401525b50505050565bfe5b6000601f19601f8301169050919050565b61257d816124bc565b811461258857600080fd5b50565b612594816124ce565b811461259f57600080fd5b50565b6125ab816124da565b81146125b657600080fd5b50565b6125c281612514565b81146125cd57600080fd5b50565b6125d98161251e565b81146125e457600080fd5b5056fe536166654d6174683a206d756c7469706c69636174696f6e206f766572666c6f77a264697066735822122029b9727cf411810a3fba0a509c3e4acb9e47e42ed895a56bca7a4b90c5ba8f9464736f6c63430007060033",
  "immutableReferences": {},
  "source": "// SPDX-License-Identifier: MIT\r\npragma solidity ^0.7.0;\r\npragma experimental ABIEncoderV2;\r\n\r\nimport './utils/UniswapV2Library.sol';\r\nimport './interfaces/IUniswapV2Router02.sol';\r\nimport './interfaces/IUniswapV2Pair.sol';\r\nimport './interfaces/IUniswapV2Factory.sol';\r\nimport \"./interfaces/IERC20.sol\";\r\nimport \"../node_modules//@openzeppelin/contracts/utils/math/SafeMath.sol\";\r\nimport \"../contracts/utils/SafeMathCopy.sol\";\r\nimport \"./TradeOrder.sol\";\r\n\r\ncontract FlashSwap is TradeOrder {\r\n\r\n    using SafeMath for uint256;\r\n\r\n    address owner;\r\n\r\n    constructor(address _owner) {\r\n\r\n        owner == _owner;\r\n    }\r\n    \r\n\r\n    struct ArbitrageInfo {\r\n\r\n        address baseToken;\r\n        address quoteToken;\r\n        bool baseTokenSmaller;\r\n        address lowerPool;\r\n        address higherPool;\r\n    }\r\n\r\n    struct CallbackData {\r\n\r\n        address debtPool;\r\n        address targetPool;\r\n        bool debtTokenSmaller;\r\n        address borrowedToken;\r\n        address debtToken;\r\n        uint256 debtAmount;\r\n        uint256 debtTokenOutAmount;\r\n    }\r\n\r\n    modifier onlyOwner() {\r\n\r\n        require(msg.sender == owner, \"only the FlashBot owner can withdraw funds\");\r\n        _;\r\n    }\r\n\r\n    function withdraw(uint256 amount) public {\r\n\r\n        require(amount > 0, \"cannot withdraw a 0 value\");\r\n        payable(msg.sender).transfer(amount);\r\n    }\r\n\r\n\r\n   \r\n    function testFlashSwap(address pool0, address pool1, uint256 borrowAmount) external {\r\n        ArbitrageInfo memory info;\r\n        (info.baseTokenSmaller, info.baseToken, info.quoteToken) = isbaseTokenSmaller(pool0, pool1);\r\n\r\n        orderedReserves memory orderedReserves;\r\n        (info.lowerPool, info.higherPool, orderedReserves) = getOrderedReserves(pool0, pool1, info.baseTokenSmaller);\r\n\r\n        // permissionedPairAddress  = info.lowerPool;\r\n\r\n        uint256 balanceBefore = IERC20(info.baseToken).balanceOf(address(this));\r\n\r\n        {\r\n            // uint256 borrowAmount = 10**18;\r\n            (uint256 amount0Out, uint256 amount1Out) = info.baseTokenSmaller ? (uint256(0), borrowAmount) : (borrowAmount, uint256(0));\r\n\r\n            uint256 debtAmount = getAmountIn(borrowAmount, orderedReserves.a1, orderedReserves.b1);\r\n\r\n            uint256 baseTokenOutAmount = getAmountOut(borrowAmount, orderedReserves.b2, orderedReserves.a2);\r\n            require(baseTokenOutAmount> debtAmount, \"Arbitrage failed, no profit\");\r\n\r\n\r\n            CallbackData memory callbackData;\r\n            callbackData.debtPool = info.lowerPool;\r\n            callbackData.targetPool = info.higherPool;\r\n            callbackData.debtTokenSmaller = info.baseTokenSmaller;\r\n            callbackData.borrowedToken = info.quoteToken;\r\n            callbackData.debtToken = info.baseToken;\r\n            callbackData.debtAmount = debtAmount;\r\n            callbackData.debtTokenOutAmount = baseTokenOutAmount;\r\n\r\n            bytes memory data = abi.encode(callbackData);\r\n            IUniswapV2Pair(info.lowerPool).swap(amount0Out, amount1Out, address(this), data);\r\n        }\r\n\r\n        uint256 balanceAfter = IERC20(info.baseToken).balanceOf(address(this));\r\n        require(balanceAfter > balanceBefore, \"Trade will loose you money reverting\");\r\n\r\n    }\r\n\r\n    // called by pair contract\r\n    function uniswapV2Call( address sender, uint amount0, uint amount1, bytes calldata data ) external {\r\n        // require(msg.sender == permissionedPairAddress, \"Non permissioned address call\");\r\n        require(sender == address(this), \"Not being sent from ths contract\");\r\n\r\n        uint256 borrowedAmount = amount0 > 0 ? amount0 : amount1;\r\n        CallbackData memory info = abi.decode(data, (CallbackData));\r\n\r\n        IERC20(info.borrowedToken).transfer(info.targetPool, borrowedAmount);\r\n\r\n        (uint256 amount0Out, uint256 amount1Out) = info.debtTokenSmaller ? (info.debtTokenOutAmount, uint256(0)) : (uint256(0), info.debtTokenOutAmount);\r\n        IUniswapV2Pair(info.targetPool).swap(amount0Out, amount1Out, address(this), new bytes(0));\r\n\r\n        IERC20(info.debtToken).transfer(info.debtPool, info.debtAmount);\r\n    }\r\n\r\n        // copy from UniswapV2Library\r\n        // given an output amount of an asset and pair reserves, returns a required input amount of the other asset\r\n        function getAmountIn(uint256 amountOut, uint256 reserveIn, uint256 reserveOut) internal pure returns (uint256 amountIn) {\r\n            require(amountOut > 0, 'UniswapV2Library: INSUFFICIENT_OUTPUT_AMOUNT');\r\n            require(reserveIn > 0 && reserveOut > 0, 'UniswapV2Library: INSUFFICIENT_LIQUIDITY');\r\n            uint256 numerator = reserveIn.mul(amountOut).mul(1000);\r\n            uint256 denominator = reserveOut.sub(amountOut).mul(997);\r\n            amountIn = (numerator / denominator).add(1);\r\n        }\r\n\r\n        // copy from UniswapV2Library\r\n        // given an input amount of an asset and pair reserves, returns the maximum output amount of the other asset\r\n        function getAmountOut(uint256 amountIn, uint256 reserveIn, uint256 reserveOut) internal pure returns (uint256 amountOut) {\r\n            require(amountIn > 0, 'UniswapV2Library: INSUFFICIENT_INPUT_AMOUNT');\r\n            require(reserveIn > 0 && reserveOut > 0, 'UniswapV2Library: INSUFFICIENT_LIQUIDITY');\r\n            uint256 amountInWithFee = amountIn.mul(997);\r\n            uint256 numerator = amountInWithFee.mul(reserveOut);\r\n            uint256 denominator = reserveIn.mul(1000).add(amountInWithFee);\r\n            amountOut = numerator / denominator;\r\n        }\r\n\r\n}\r\n",
  "sourcePath": "C:\\Users\\mcgra\\OneDrive\\Documents\\EthereumProgramming\\Bot\\contracts\\FlashBot.sol",
  "compiler": {
    "name": "solc",
    "version": "0.7.6+commit.7338295f.Emscripten.clang"
  },
  "schemaVersion": "3.4.3",
  "updatedAt": "2021-11-15T14:42:23.950Z",
  "devdoc": {
    "kind": "dev",
    "methods": {},
    "version": 1
  },
  "userdoc": {
    "kind": "user",
    "methods": {
      "getOrderedReserves(address,address,bool)": {
        "notice": "We borrow base token by using flash swap from lower price pool and sell them to higher price pool"
      }
    },
    "version": 1
  }
}