{
  "contractName": "FlashSwap",
  "abi": [
    {
      "inputs": [
        {
          "internalType": "address",
          "name": "_owner",
          "type": "address"
        }
      ],
      "stateMutability": "nonpayable",
      "type": "constructor"
    },
    {
      "inputs": [
        {
          "internalType": "address",
          "name": "token",
          "type": "address"
        }
      ],
      "name": "addBaseToken",
      "outputs": [],
      "stateMutability": "nonpayable",
      "type": "function"
    },
    {
      "inputs": [
        {
          "internalType": "address",
          "name": "token",
          "type": "address"
        }
      ],
      "name": "baseTokensContains",
      "outputs": [
        {
          "internalType": "bool",
          "name": "hasBeenFound",
          "type": "bool"
        }
      ],
      "stateMutability": "view",
      "type": "function"
    },
    {
      "inputs": [],
      "name": "deleteBaseToken",
      "outputs": [],
      "stateMutability": "nonpayable",
      "type": "function"
    },
    {
      "inputs": [],
      "name": "getBaseTokens",
      "outputs": [
        {
          "internalType": "address[]",
          "name": "",
          "type": "address[]"
        }
      ],
      "stateMutability": "nonpayable",
      "type": "function"
    },
    {
      "inputs": [
        {
          "internalType": "address",
          "name": "pool0",
          "type": "address"
        },
        {
          "internalType": "address",
          "name": "pool1",
          "type": "address"
        },
        {
          "internalType": "bool",
          "name": "baseTokenSmaller",
          "type": "bool"
        }
      ],
      "name": "getOrderedReserves",
      "outputs": [
        {
          "internalType": "address",
          "name": "lowerPool",
          "type": "address"
        },
        {
          "internalType": "address",
          "name": "higherPool",
          "type": "address"
        },
        {
          "components": [
            {
              "internalType": "uint256",
              "name": "a1",
              "type": "uint256"
            },
            {
              "internalType": "uint256",
              "name": "b1",
              "type": "uint256"
            },
            {
              "internalType": "uint256",
              "name": "a2",
              "type": "uint256"
            },
            {
              "internalType": "uint256",
              "name": "b2",
              "type": "uint256"
            }
          ],
          "internalType": "struct TradeOrder.orderedReserves",
          "name": "orderedReserve",
          "type": "tuple"
        }
      ],
      "stateMutability": "nonpayable",
      "type": "function"
    },
    {
      "inputs": [
        {
          "internalType": "address",
          "name": "pool0",
          "type": "address"
        },
        {
          "internalType": "address",
          "name": "pool1",
          "type": "address"
        }
      ],
      "name": "isbaseTokenSmaller",
      "outputs": [
        {
          "internalType": "bool",
          "name": "baseSmaller",
          "type": "bool"
        },
        {
          "internalType": "address",
          "name": "baseToken",
          "type": "address"
        },
        {
          "internalType": "address",
          "name": "quoteToken",
          "type": "address"
        }
      ],
      "stateMutability": "view",
      "type": "function"
    },
    {
      "inputs": [
        {
          "internalType": "uint256",
          "name": "amount",
          "type": "uint256"
        }
      ],
      "name": "withdraw",
      "outputs": [],
      "stateMutability": "nonpayable",
      "type": "function"
    },
    {
      "inputs": [
        {
          "internalType": "address",
          "name": "pool0",
          "type": "address"
        },
        {
          "internalType": "address",
          "name": "pool1",
          "type": "address"
        },
        {
          "internalType": "uint256",
          "name": "borrowAmount",
          "type": "uint256"
        }
      ],
      "name": "testFlashSwap",
      "outputs": [],
      "stateMutability": "nonpayable",
      "type": "function"
    },
    {
      "inputs": [
        {
          "internalType": "address",
          "name": "sender",
          "type": "address"
        },
        {
          "internalType": "uint256",
          "name": "amount0",
          "type": "uint256"
        },
        {
          "internalType": "uint256",
          "name": "amount1",
          "type": "uint256"
        },
        {
          "internalType": "bytes",
          "name": "data",
          "type": "bytes"
        }
      ],
      "name": "uniswapV2Call",
      "outputs": [],
      "stateMutability": "nonpayable",
      "type": "function"
    }
  ],
  "bytecode": "0x6080604052604051806060016040528073c02aaa39b223fe8d0a0e5c4f27ead9083c756cc273ffffffffffffffffffffffffffffffffffffffff1673ffffffffffffffffffffffffffffffffffffffff16815260200173bb91175307dd50bdebcfe82f2f343bbef607e65973ffffffffffffffffffffffffffffffffffffffff1673ffffffffffffffffffffffffffffffffffffffff16815260200173e61db86500d9c404031cc60edfead33188a8369573ffffffffffffffffffffffffffffffffffffffff1673ffffffffffffffffffffffffffffffffffffffff168152506000906003620000f192919062000152565b50348015620000ff57600080fd5b5060405162002b9538038062002b95833981810160405281019062000125919062000217565b8073ffffffffffffffffffffffffffffffffffffffff16600160009054906101000a905050505062000291565b828054828255906000526020600020908101928215620001ce579160200282015b82811115620001cd5782518260006101000a81548173ffffffffffffffffffffffffffffffffffffffff021916908373ffffffffffffffffffffffffffffffffffffffff1602179055509160200191906001019062000173565b5b509050620001dd9190620001e1565b5090565b5b80821115620001fc576000816000905550600101620001e2565b5090565b600081519050620002118162000277565b92915050565b6000602082840312156200022a57600080fd5b60006200023a8482850162000200565b91505092915050565b6000620002508262000257565b9050919050565b600073ffffffffffffffffffffffffffffffffffffffff82169050919050565b620002828162000243565b81146200028e57600080fd5b50565b6128f480620002a16000396000f3fe608060405234801561001057600080fd5b50600436106100935760003560e01c80633ac39056116100665780633ac390561461013257806383e280d91461013c5780638e6222c414610158578063a39992d41461018a578063bed64c2f146101a657610093565b806310d1e85c146100985780631a129969146100b457806321d09426146100e65780632e1a7d4d14610116575b600080fd5b6100b260048036038101906100ad9190611d6e565b6101c4565b005b6100ce60048036038101906100c99190611c94565b610477565b6040516100dd939291906124dd565b60405180910390f35b61010060048036038101906100fb9190611c42565b6108c5565b60405161010d91906124c2565b60405180910390f35b610130600480360381019061012b9190611e8f565b610978565b005b61013a610a05565b005b61015660048036038101906101519190611c42565b610a47565b005b610172600480360381019061016d9190611cd0565b610ae7565b60405161018193929190612440565b60405180910390f35b6101a4600480360381019061019f9190611d1f565b610d6b565b005b6101ae611231565b6040516101bb91906124a0565b60405180910390f35b3073ffffffffffffffffffffffffffffffffffffffff168573ffffffffffffffffffffffffffffffffffffffff1614610232576040517f08c379a000000000000000000000000000000000000000000000000000000000815260040161022990612614565b60405180910390fd5b60008085116102415783610243565b845b9050600083838101906102569190611e17565b9050806060015173ffffffffffffffffffffffffffffffffffffffff1663a9059cbb8260200151846040518363ffffffff1660e01b815260040161029b929190612477565b602060405180830381600087803b1580156102b557600080fd5b505af11580156102c9573d6000803e3d6000fd5b505050506040513d601f19601f820116820180604052508101906102ed9190611dee565b5060008082604001516103065760008360c0015161030e565b8260c0015160005b91509150826020015173ffffffffffffffffffffffffffffffffffffffff1663022c0d9f838330600067ffffffffffffffff8111801561034d57600080fd5b506040519080825280601f01601f1916602001820160405280156103805781602001600182028036833780820191505090505b506040518563ffffffff1660e01b81526004016103a0949392919061268f565b600060405180830381600087803b1580156103ba57600080fd5b505af11580156103ce573d6000803e3d6000fd5b50505050826080015173ffffffffffffffffffffffffffffffffffffffff1663a9059cbb84600001518560a001516040518363ffffffff1660e01b8152600401610419929190612477565b602060405180830381600087803b15801561043357600080fd5b505af1158015610447573d6000803e3d6000fd5b505050506040513d601f19601f8201168201806040525081019061046b9190611dee565b50505050505050505050565b60008060008373ffffffffffffffffffffffffffffffffffffffff168573ffffffffffffffffffffffffffffffffffffffff1614156104eb576040517f08c379a00000000000000000000000000000000000000000000000000000000081526004016104e2906125d4565b60405180910390fd5b6000808673ffffffffffffffffffffffffffffffffffffffff16630dfe16816040518163ffffffff1660e01b815260040160206040518083038186803b15801561053457600080fd5b505afa158015610548573d6000803e3d6000fd5b505050506040513d601f19601f8201168201806040525081019061056c9190611c6b565b8773ffffffffffffffffffffffffffffffffffffffff1663d21220a76040518163ffffffff1660e01b815260040160206040518083038186803b1580156105b257600080fd5b505afa1580156105c6573d6000803e3d6000fd5b505050506040513d601f19601f820116820180604052508101906105ea9190611c6b565b915091506000808773ffffffffffffffffffffffffffffffffffffffff16630dfe16816040518163ffffffff1660e01b815260040160206040518083038186803b15801561063757600080fd5b505afa15801561064b573d6000803e3d6000fd5b505050506040513d601f19601f8201168201806040525081019061066f9190611c6b565b8873ffffffffffffffffffffffffffffffffffffffff1663d21220a76040518163ffffffff1660e01b815260040160206040518083038186803b1580156106b557600080fd5b505afa1580156106c9573d6000803e3d6000fd5b505050506040513d601f19601f820116820180604052508101906106ed9190611c6b565b915091508273ffffffffffffffffffffffffffffffffffffffff168473ffffffffffffffffffffffffffffffffffffffff1610801561075757508073ffffffffffffffffffffffffffffffffffffffff168273ffffffffffffffffffffffffffffffffffffffff16105b610796576040517f08c379a000000000000000000000000000000000000000000000000000000000815260040161078d90612534565b60405180910390fd5b8173ffffffffffffffffffffffffffffffffffffffff168473ffffffffffffffffffffffffffffffffffffffff161480156107fc57508073ffffffffffffffffffffffffffffffffffffffff168373ffffffffffffffffffffffffffffffffffffffff16145b61083b576040517f08c379a000000000000000000000000000000000000000000000000000000000815260040161083290612634565b60405180910390fd5b610844846108c5565b806108545750610853836108c5565b5b610893576040517f08c379a000000000000000000000000000000000000000000000000000000000815260040161088a906125f4565b60405180910390fd5b61089c846108c5565b6108a957600083856108ae565b600184845b809750819850829950505050505050509250925092565b6000806000905060005b60008054905081101561095d578373ffffffffffffffffffffffffffffffffffffffff166000828154811061090057fe5b9060005260206000200160009054906101000a900473ffffffffffffffffffffffffffffffffffffffff1673ffffffffffffffffffffffffffffffffffffffff161415610950576001915061095d565b80806001019150506108cf565b50811561096e576001915050610973565b809150505b919050565b600081116109bb576040517f08c379a00000000000000000000000000000000000000000000000000000000081526004016109b290612514565b60405180910390fd5b3373ffffffffffffffffffffffffffffffffffffffff166108fc829081150290604051600060405180830381858888f19350505050158015610a01573d6000803e3d6000fd5b5050565b6000805480610a1057fe5b6001900381819060005260206000200160006101000a81549073ffffffffffffffffffffffffffffffffffffffff02191690559055565b600073ffffffffffffffffffffffffffffffffffffffff168173ffffffffffffffffffffffffffffffffffffffff161415610a8157600080fd5b6000819080600181540180825580915050600190039060005260206000200160009091909190916101000a81548173ffffffffffffffffffffffffffffffffffffffff021916908373ffffffffffffffffffffffffffffffffffffffff16021790555050565b600080610af2611945565b6000808773ffffffffffffffffffffffffffffffffffffffff16630902f1ac6040518163ffffffff1660e01b815260040160606040518083038186803b158015610b3b57600080fd5b505afa158015610b4f573d6000803e3d6000fd5b505050506040513d601f19601f82011682018060405250810190610b739190611e40565b506dffffffffffffffffffffffffffff1691506dffffffffffffffffffffffffffff1691506000808873ffffffffffffffffffffffffffffffffffffffff16630902f1ac6040518163ffffffff1660e01b815260040160606040518083038186803b158015610be157600080fd5b505afa158015610bf5573d6000803e3d6000fd5b505050506040513d601f19601f82011682018060405250810190610c199190611e40565b506dffffffffffffffffffffffffffff1691506dffffffffffffffffffffffffffff16915060008089610c8157610c6186610c53876112bf565b6112f790919063ffffffff16565b610c7c85610c6e866112bf565b6112f790919063ffffffff16565b610cb8565b610c9c85610c8e886112bf565b6112f790919063ffffffff16565b610cb784610ca9876112bf565b6112f790919063ffffffff16565b5b91509150610ccf818361132c90919063ffffffff16565b15610d1a578b8b809950819a50505089610cec5784868486610cf1565b858585855b8a6000018b6020018c6040018d6060018481525084815250848152508481525050505050610d5c565b8a8c809950819a50505089610d325782848688610d37565b838387875b8a6000018b6020018c6040018d60600184815250848152508481525084815250505050505b50505050505093509350939050565b610d7361196d565b610d7d8484610477565b8360400184600001856020018373ffffffffffffffffffffffffffffffffffffffff1673ffffffffffffffffffffffffffffffffffffffff168152508373ffffffffffffffffffffffffffffffffffffffff1673ffffffffffffffffffffffffffffffffffffffff168152508315151515815250505050610dfc611945565b610e0b85858460400151610ae7565b84606001856080018295508373ffffffffffffffffffffffffffffffffffffffff1673ffffffffffffffffffffffffffffffffffffffff168152508373ffffffffffffffffffffffffffffffffffffffff1673ffffffffffffffffffffffffffffffffffffffff168152505050506000826000015173ffffffffffffffffffffffffffffffffffffffff166370a08231306040518263ffffffff1660e01b8152600401610eb89190612425565b60206040518083038186803b158015610ed057600080fd5b505afa158015610ee4573d6000803e3d6000fd5b505050506040513d601f19601f82011682018060405250810190610f089190611eb8565b90506000808460400151610f1e57856000610f22565b6000865b915091506000610f3b8786600001518760200151611342565b90506000610f528887606001518860400151611453565b9050818111610f96576040517f08c379a0000000000000000000000000000000000000000000000000000000008152600401610f8d90612554565b60405180910390fd5b610f9e6119f6565b8760600151816000019073ffffffffffffffffffffffffffffffffffffffff16908173ffffffffffffffffffffffffffffffffffffffff16815250508760800151816020019073ffffffffffffffffffffffffffffffffffffffff16908173ffffffffffffffffffffffffffffffffffffffff168152505087604001518160400190151590811515815250508760200151816060019073ffffffffffffffffffffffffffffffffffffffff16908173ffffffffffffffffffffffffffffffffffffffff16815250508760000151816080019073ffffffffffffffffffffffffffffffffffffffff16908173ffffffffffffffffffffffffffffffffffffffff1681525050828160a0018181525050818160c00181815250506000816040516020016110c99190612674565b6040516020818303038152906040529050886060015173ffffffffffffffffffffffffffffffffffffffff1663022c0d9f878730856040518563ffffffff1660e01b815260040161111d949392919061268f565b600060405180830381600087803b15801561113757600080fd5b505af115801561114b573d6000803e3d6000fd5b505050505050505050506000836000015173ffffffffffffffffffffffffffffffffffffffff166370a08231306040518263ffffffff1660e01b81526004016111949190612425565b60206040518083038186803b1580156111ac57600080fd5b505afa1580156111c0573d6000803e3d6000fd5b505050506040513d601f19601f820116820180604052508101906111e49190611eb8565b9050818111611228576040517f08c379a000000000000000000000000000000000000000000000000000000000815260040161121f90612594565b60405180910390fd5b50505050505050565b606060008054806020026020016040519081016040528092919081815260200182805480156112b557602002820191906000526020600020905b8160009054906101000a900473ffffffffffffffffffffffffffffffffffffffff1673ffffffffffffffffffffffffffffffffffffffff168152602001906001019080831161126b575b5050505050905090565b6112c7611a8d565b60405180602001604052806112ed670de0b6b3a76400008561155790919063ffffffff16565b8152509050919050565b6112ff611a8d565b60405180602001604052806113218486600001516115dd90919063ffffffff16565b815250905092915050565b6000806113398484611627565b14905092915050565b6000808411611386576040517f08c379a000000000000000000000000000000000000000000000000000000000815260040161137d90612574565b60405180910390fd5b6000831180156113965750600082115b6113d5576040517f08c379a00000000000000000000000000000000000000000000000000000000081526004016113cc906125b4565b60405180910390fd5b60006113fe6103e86113f0878761166790919063ffffffff16565b61166790919063ffffffff16565b905060006114296103e561141b88876116ed90919063ffffffff16565b61166790919063ffffffff16565b9050611448600182848161143957fe5b0461173790919063ffffffff16565b925050509392505050565b6000808411611497576040517f08c379a000000000000000000000000000000000000000000000000000000000815260040161148e90612654565b60405180910390fd5b6000831180156114a75750600082115b6114e6576040517f08c379a00000000000000000000000000000000000000000000000000000000081526004016114dd906125b4565b60405180910390fd5b60006114fd6103e58661166790919063ffffffff16565b90506000611514848361166790919063ffffffff16565b9050600061153f836115316103e88961166790919063ffffffff16565b61173790919063ffffffff16565b905080828161154a57fe5b0493505050509392505050565b60008083141561156a57600090506115d7565b600082840290508284828161157b57fe5b04146115d2576040517f08c379a000000000000000000000000000000000000000000000000000000000815260040180806020018281038252602181526020018061289e6021913960400191505060405180910390fd5b809150505b92915050565b600061161f83836040518060400160405280601a81526020017f536166654d6174683a206469766973696f6e206279207a65726f0000000000008152506117bf565b905092915050565b60008160000151836000015114156116425760019050611661565b816000015183600001511161165857600061165b565b60025b60ff1690505b92915050565b60008083141561167a57600090506116e7565b600082840290508284828161168b57fe5b04146116e2576040517f08c379a000000000000000000000000000000000000000000000000000000000815260040180806020018281038252602181526020018061289e6021913960400191505060405180910390fd5b809150505b92915050565b600061172f83836040518060400160405280601e81526020017f536166654d6174683a207375627472616374696f6e206f766572666c6f770000815250611885565b905092915050565b6000808284019050838110156117b5576040517f08c379a000000000000000000000000000000000000000000000000000000000815260040180806020018281038252601b8152602001807f536166654d6174683a206164646974696f6e206f766572666c6f77000000000081525060200191505060405180910390fd5b8091505092915050565b6000808311829061186b576040517f08c379a00000000000000000000000000000000000000000000000000000000081526004018080602001828103825283818151815260200191508051906020019080838360005b83811015611830578082015181840152602081019050611815565b50505050905090810190601f16801561185d5780820380516001836020036101000a031916815260200191505b509250505060405180910390fd5b50600083858161187757fe5b049050809150509392505050565b6000838311158290611932576040517f08c379a00000000000000000000000000000000000000000000000000000000081526004018080602001828103825283818151815260200191508051906020019080838360005b838110156118f75780820151818401526020810190506118dc565b50505050905090810190601f1680156119245780820380516001836020036101000a031916815260200191505b509250505060405180910390fd5b5060008385039050809150509392505050565b6040518060800160405280600081526020016000815260200160008152602001600081525090565b6040518060a00160405280600073ffffffffffffffffffffffffffffffffffffffff168152602001600073ffffffffffffffffffffffffffffffffffffffff168152602001600015158152602001600073ffffffffffffffffffffffffffffffffffffffff168152602001600073ffffffffffffffffffffffffffffffffffffffff1681525090565b6040518060e00160405280600073ffffffffffffffffffffffffffffffffffffffff168152602001600073ffffffffffffffffffffffffffffffffffffffff168152602001600015158152602001600073ffffffffffffffffffffffffffffffffffffffff168152602001600073ffffffffffffffffffffffffffffffffffffffff16815260200160008152602001600081525090565b6040518060200160405280600081525090565b600081359050611aaf8161282a565b92915050565b600081519050611ac48161282a565b92915050565b600081359050611ad981612841565b92915050565b600081519050611aee81612841565b92915050565b60008083601f840112611b0657600080fd5b8235905067ffffffffffffffff811115611b1f57600080fd5b602083019150836001820283011115611b3757600080fd5b9250929050565b600060e08284031215611b5057600080fd5b611b5a60e06126db565b90506000611b6a84828501611aa0565b6000830152506020611b7e84828501611aa0565b6020830152506040611b9284828501611aca565b6040830152506060611ba684828501611aa0565b6060830152506080611bba84828501611aa0565b60808301525060a0611bce84828501611c03565b60a08301525060c0611be284828501611c03565b60c08301525092915050565b600081519050611bfd81612858565b92915050565b600081359050611c128161286f565b92915050565b600081519050611c278161286f565b92915050565b600081519050611c3c81612886565b92915050565b600060208284031215611c5457600080fd5b6000611c6284828501611aa0565b91505092915050565b600060208284031215611c7d57600080fd5b6000611c8b84828501611ab5565b91505092915050565b60008060408385031215611ca757600080fd5b6000611cb585828601611aa0565b9250506020611cc685828601611aa0565b9150509250929050565b600080600060608486031215611ce557600080fd5b6000611cf386828701611aa0565b9350506020611d0486828701611aa0565b9250506040611d1586828701611aca565b9150509250925092565b600080600060608486031215611d3457600080fd5b6000611d4286828701611aa0565b9350506020611d5386828701611aa0565b9250506040611d6486828701611c03565b9150509250925092565b600080600080600060808688031215611d8657600080fd5b6000611d9488828901611aa0565b9550506020611da588828901611c03565b9450506040611db688828901611c03565b935050606086013567ffffffffffffffff811115611dd357600080fd5b611ddf88828901611af4565b92509250509295509295909350565b600060208284031215611e0057600080fd5b6000611e0e84828501611adf565b91505092915050565b600060e08284031215611e2957600080fd5b6000611e3784828501611b3e565b91505092915050565b600080600060608486031215611e5557600080fd5b6000611e6386828701611bee565b9350506020611e7486828701611bee565b9250506040611e8586828701611c2d565b9150509250925092565b600060208284031215611ea157600080fd5b6000611eaf84828501611c03565b91505092915050565b600060208284031215611eca57600080fd5b6000611ed884828501611c18565b91505092915050565b6000611eed8383611ef9565b60208301905092915050565b611f0281612772565b82525050565b611f1181612772565b82525050565b6000611f228261271c565b611f2c818561273f565b9350611f378361270c565b8060005b83811015611f68578151611f4f8882611ee1565b9750611f5a83612732565b925050600181019050611f3b565b5085935050505092915050565b611f7e81612784565b82525050565b611f8d81612784565b82525050565b6000611f9e82612727565b611fa88185612750565b9350611fb88185602086016127e4565b611fc181612819565b840191505092915050565b6000611fd9601983612761565b91507f63616e6e6f74207769746864726177206120302076616c7565000000000000006000830152602082019050919050565b6000612019601d83612761565b91507f4e6f6e207374616e6461726420756e697377617020414d4d20706169720000006000830152602082019050919050565b6000612059601b83612761565b91507f417262697472616765206661696c65642c206e6f2070726f66697400000000006000830152602082019050919050565b6000612099602c83612761565b91507f556e697377617056324c6962726172793a20494e53554646494349454e545f4f60008301527f55545055545f414d4f554e5400000000000000000000000000000000000000006020830152604082019050919050565b60006120ff602483612761565b91507f54726164652077696c6c206c6f6f736520796f75206d6f6e657920726576657260008301527f74696e67000000000000000000000000000000000000000000000000000000006020830152604082019050919050565b6000612165602883612761565b91507f556e697377617056324c6962726172793a20494e53554646494349454e545f4c60008301527f49515549444954590000000000000000000000000000000000000000000000006020830152604082019050919050565b60006121cb601183612761565b91507f53616d65207061697220616464726573730000000000000000000000000000006000830152602082019050919050565b600061220b601583612761565b91507f4e6f206261736520746f6b656e20696e207061697200000000000000000000006000830152602082019050919050565b600061224b602083612761565b91507f4e6f74206265696e672073656e742066726f6d2074687320636f6e74726163746000830152602082019050919050565b600061228b601783612761565b91507f526571756972652073616d6520746f6b656e20706169720000000000000000006000830152602082019050919050565b60006122cb602b83612761565b91507f556e697377617056324c6962726172793a20494e53554646494349454e545f4960008301527f4e5055545f414d4f554e540000000000000000000000000000000000000000006020830152604082019050919050565b60e08201600082015161233a6000850182611ef9565b50602082015161234d6020850182611ef9565b5060408201516123606040850182611f75565b5060608201516123736060850182611ef9565b5060808201516123866080850182611ef9565b5060a082015161239960a0850182612407565b5060c08201516123ac60c0850182612407565b50505050565b6080820160008201516123c86000850182612407565b5060208201516123db6020850182612407565b5060408201516123ee6040850182612407565b5060608201516124016060850182612407565b50505050565b612410816127ca565b82525050565b61241f816127ca565b82525050565b600060208201905061243a6000830184611f08565b92915050565b600060c0820190506124556000830186611f08565b6124626020830185611f08565b61246f60408301846123b2565b949350505050565b600060408201905061248c6000830185611f08565b6124996020830184612416565b9392505050565b600060208201905081810360008301526124ba8184611f17565b905092915050565b60006020820190506124d76000830184611f84565b92915050565b60006060820190506124f26000830186611f84565b6124ff6020830185611f08565b61250c6040830184611f08565b949350505050565b6000602082019050818103600083015261252d81611fcc565b9050919050565b6000602082019050818103600083015261254d8161200c565b9050919050565b6000602082019050818103600083015261256d8161204c565b9050919050565b6000602082019050818103600083015261258d8161208c565b9050919050565b600060208201905081810360008301526125ad816120f2565b9050919050565b600060208201905081810360008301526125cd81612158565b9050919050565b600060208201905081810360008301526125ed816121be565b9050919050565b6000602082019050818103600083015261260d816121fe565b9050919050565b6000602082019050818103600083015261262d8161223e565b9050919050565b6000602082019050818103600083015261264d8161227e565b9050919050565b6000602082019050818103600083015261266d816122be565b9050919050565b600060e0820190506126896000830184612324565b92915050565b60006080820190506126a46000830187612416565b6126b16020830186612416565b6126be6040830185611f08565b81810360608301526126d08184611f93565b905095945050505050565b6000604051905081810181811067ffffffffffffffff8211171561270257612701612817565b5b8060405250919050565b6000819050602082019050919050565b600081519050919050565b600081519050919050565b6000602082019050919050565b600082825260208201905092915050565b600082825260208201905092915050565b600082825260208201905092915050565b600061277d826127aa565b9050919050565b60008115159050919050565b60006dffffffffffffffffffffffffffff82169050919050565b600073ffffffffffffffffffffffffffffffffffffffff82169050919050565b6000819050919050565b600063ffffffff82169050919050565b60005b838110156128025780820151818401526020810190506127e7565b83811115612811576000848401525b50505050565bfe5b6000601f19601f8301169050919050565b61283381612772565b811461283e57600080fd5b50565b61284a81612784565b811461285557600080fd5b50565b61286181612790565b811461286c57600080fd5b50565b612878816127ca565b811461288357600080fd5b50565b61288f816127d4565b811461289a57600080fd5b5056fe536166654d6174683a206d756c7469706c69636174696f6e206f766572666c6f77a264697066735822122013ade77da93b66f4c626ab50124dc4bf3dee0a3f721fa9bff98b4c8b89cb191b64736f6c63430007060033",
  "immutableReferences": {},
  "source": "// SPDX-License-Identifier: MIT\r\npragma solidity ^0.7.0;\r\npragma experimental ABIEncoderV2;\r\n\r\nimport './utils/UniswapV2Library.sol';\r\nimport './interfaces/IUniswapV2Router02.sol';\r\nimport './interfaces/IUniswapV2Pair.sol';\r\nimport './interfaces/IUniswapV2Factory.sol';\r\nimport \"./interfaces/IERC20.sol\";\r\nimport \"../node_modules//@openzeppelin/contracts/utils/math/SafeMath.sol\";\r\nimport \"../contracts/utils/SafeMathCopy.sol\";\r\nimport \"./TradeOrder.sol\";\r\n\r\n//this is the flashsswap contract. I ended up writing another contract TradeOrder.sol which orders the reserves\r\n//in such a way so that we are always borrowing from the lower reserve pool and selling to the higher reserve pool\r\n//this saves us from having to tun the bot script twice where we check arb for TOKEN0/TOKEN1 and TOKEN1/TOKEN0 on\r\n//both exchnages simultaneusly.\r\ncontract FlashSwap is TradeOrder {\r\n\r\n    using SafeMath for uint256;\r\n\r\n    address owner;\r\n\r\n    //here we add the contract deploy and assign him to the owner only the owner can withdraw\r\n    constructor(address _owner) {\r\n\r\n        owner == _owner;\r\n    }\r\n    \r\n    //struct for the srbitrage info such as the base token qoute token etc..\r\n    struct ArbitrageInfo {\r\n\r\n        address baseToken;\r\n        address quoteToken;\r\n        bool baseTokenSmaller;\r\n        address lowerPool;\r\n        address higherPool;\r\n    }\r\n\r\n    //this struct allows us to store data which we can query whenever uniswap\r\n    //calls back the uniswapV2Call function. we can store the amountIn amountOut and ehich pool we botrrow from etc\r\n    struct CallbackData {\r\n\r\n        address debtPool;\r\n        address targetPool;\r\n        bool debtTokenSmaller;\r\n        address borrowedToken;\r\n        address debtToken;\r\n        uint256 debtAmount;\r\n        uint256 debtTokenOutAmount;\r\n    }\r\n\r\n    modifier onlyOwner() {\r\n\r\n        require(msg.sender == owner, \"only the FlashBot owner can withdraw funds\");\r\n        _;\r\n    }\r\n\r\n    function withdraw(uint256 amount) public {\r\n\r\n        require(amount > 0, \"cannot withdraw a 0 value\");\r\n        payable(msg.sender).transfer(amount);\r\n    }\r\n\r\n\r\n   \r\n    function testFlashSwap(address pool0, address pool1, uint256 borrowAmount) external {\r\n\r\n        //here we make and instance of the info struct\r\n        ArbitrageInfo memory info;\r\n        //we then call a function called isBaseTokenSmaller. this function will change the order of the trade\r\n        //so that we are alwsys borrowing from the base token reserve\r\n        (info.baseTokenSmaller, info.baseToken, info.quoteToken) = isbaseTokenSmaller(pool0, pool1);\r\n\r\n        //here we make an instance of the reserve struct\r\n        orderedReserves memory orderedReserves;\r\n        (info.lowerPool, info.higherPool, orderedReserves) = getOrderedReserves(pool0, pool1, info.baseTokenSmaller);\r\n\r\n        // permissionedPairAddress  = info.lowerPool;\r\n\r\n        //check balance before the loan\r\n        uint256 balanceBefore = IERC20(info.baseToken).balanceOf(address(this));\r\n\r\n        {\r\n            // uint256 borrowAmount = 10**18;\r\n            //here we need to set ether amont1 = 0 or amount0 = 0 depending on which pool where gonna borrow from\r\n            (uint256 amount0Out, uint256 amount1Out) = info.baseTokenSmaller ? (uint256(0), borrowAmount) : (borrowAmount, uint256(0));\r\n\r\n            uint256 debtAmount = getAmountIn(borrowAmount, orderedReserves.a1, orderedReserves.b1);\r\n\r\n            uint256 baseTokenOutAmount = getAmountOut(borrowAmount, orderedReserves.b2, orderedReserves.a2);\r\n            require(baseTokenOutAmount> debtAmount, \"Arbitrage failed, no profit\");\r\n\r\n\r\n            //here we assign the callback data so we can query it when uniswap calls the V2Call function\r\n            //using a truct like this is a hand y way tto store the data\r\n            CallbackData memory callbackData;\r\n            callbackData.debtPool = info.lowerPool;\r\n            callbackData.targetPool = info.higherPool;\r\n            callbackData.debtTokenSmaller = info.baseTokenSmaller;\r\n            callbackData.borrowedToken = info.quoteToken;\r\n            callbackData.debtToken = info.baseToken;\r\n            callbackData.debtAmount = debtAmount;\r\n            callbackData.debtTokenOutAmount = baseTokenOutAmount;\r\n\r\n            bytes memory data = abi.encode(callbackData);\r\n            IUniswapV2Pair(info.lowerPool).swap(amount0Out, amount1Out, address(this), data);\r\n        }\r\n\r\n        uint256 balanceAfter = IERC20(info.baseToken).balanceOf(address(this));\r\n        require(balanceAfter > balanceBefore, \"Trade will loose you money reverting\");\r\n\r\n    }\r\n\r\n    // called by pair contract\r\n    //callback function from uniswap. largely the same only minor cistimisations made\r\n    function uniswapV2Call( address sender, uint amount0, uint amount1, bytes calldata data ) external {\r\n        // require(msg.sender == permissionedPairAddress, \"Non permissioned address call\");\r\n        require(sender == address(this), \"Not being sent from ths contract\");\r\n\r\n        //here we check what order our borrowed amount is in i.e is is amount1 or amount 0\r\n        //the  we initialise our calllback struct to extract the data we set iin the flashwap func\r\n        uint256 borrowedAmount = amount0 > 0 ? amount0 : amount1;\r\n        CallbackData memory info = abi.decode(data, (CallbackData));\r\n\r\n        //we then transfer the borrowd tokens to the destination pool swap them and pay back the loan\r\n        IERC20(info.borrowedToken).transfer(info.targetPool, borrowedAmount);\r\n\r\n        //we can use the uniswap interface to swap tokens on any exchange that is a fork of the uniswap codebase\r\n        (uint256 amount0Out, uint256 amount1Out) = info.debtTokenSmaller ? (info.debtTokenOutAmount, uint256(0)) : (uint256(0), info.debtTokenOutAmount);\r\n        IUniswapV2Pair(info.targetPool).swap(amount0Out, amount1Out, address(this), new bytes(0));\r\n\r\n        //transfer back to source exchange topay back flashloan\r\n        IERC20(info.debtToken).transfer(info.debtPool, info.debtAmount);\r\n    }\r\n\r\n        // copy from UniswapV2Library\r\n        // given an output amount of an asset and pair reserves, returns a required input amount of the other asset\r\n        function getAmountIn(uint256 amountOut, uint256 reserveIn, uint256 reserveOut) internal pure returns (uint256 amountIn) {\r\n            require(amountOut > 0, 'UniswapV2Library: INSUFFICIENT_OUTPUT_AMOUNT');\r\n            require(reserveIn > 0 && reserveOut > 0, 'UniswapV2Library: INSUFFICIENT_LIQUIDITY');\r\n            uint256 numerator = reserveIn.mul(amountOut).mul(1000);\r\n            uint256 denominator = reserveOut.sub(amountOut).mul(997);\r\n            amountIn = (numerator / denominator).add(1);\r\n        }\r\n\r\n        // copy from UniswapV2Library\r\n        // given an input amount of an asset and pair reserves, returns the maximum output amount of the other asset\r\n        function getAmountOut(uint256 amountIn, uint256 reserveIn, uint256 reserveOut) internal pure returns (uint256 amountOut) {\r\n            require(amountIn > 0, 'UniswapV2Library: INSUFFICIENT_INPUT_AMOUNT');\r\n            require(reserveIn > 0 && reserveOut > 0, 'UniswapV2Library: INSUFFICIENT_LIQUIDITY');\r\n            uint256 amountInWithFee = amountIn.mul(997);\r\n            uint256 numerator = amountInWithFee.mul(reserveOut);\r\n            uint256 denominator = reserveIn.mul(1000).add(amountInWithFee);\r\n            amountOut = numerator / denominator;\r\n        }\r\n\r\n}\r\n",
  "sourcePath": "C:\\Users\\mcgra\\OneDrive\\Documents\\EthereumProgramming\\Bot\\contracts\\FlashBot.sol",
  "compiler": {
    "name": "solc",
    "version": "0.7.6+commit.7338295f.Emscripten.clang"
  },
  "schemaVersion": "3.4.3",
  "updatedAt": "2021-11-18T15:40:08.893Z",
  "devdoc": {
    "kind": "dev",
    "methods": {},
    "version": 1
  },
  "userdoc": {
    "kind": "user",
    "methods": {
      "getOrderedReserves(address,address,bool)": {
        "notice": "We borrow base token by using flash swap from lower price pool and sell them to higher price pool"
      }
    },
    "version": 1
  }
}