{
  "contractName": "MaximumProfit",
  "abi": [
    {
      "inputs": [],
      "name": "WETH",
      "outputs": [
        {
          "internalType": "address",
          "name": "",
          "type": "address"
        }
      ],
      "stateMutability": "view",
      "type": "function"
    },
    {
      "inputs": [
        {
          "internalType": "address",
          "name": "token",
          "type": "address"
        }
      ],
      "name": "baseTokensContains",
      "outputs": [
        {
          "internalType": "bool",
          "name": "hasBeenFound",
          "type": "bool"
        }
      ],
      "stateMutability": "view",
      "type": "function"
    },
    {
      "inputs": [
        {
          "internalType": "address",
          "name": "pool0",
          "type": "address"
        },
        {
          "internalType": "address",
          "name": "pool1",
          "type": "address"
        }
      ],
      "name": "isbaseTokenSmaller",
      "outputs": [
        {
          "internalType": "bool",
          "name": "baseSmaller",
          "type": "bool"
        },
        {
          "internalType": "address",
          "name": "baseToken",
          "type": "address"
        },
        {
          "internalType": "address",
          "name": "quoteToken",
          "type": "address"
        }
      ],
      "stateMutability": "view",
      "type": "function"
    },
    {
      "inputs": [
        {
          "internalType": "address",
          "name": "pool0",
          "type": "address"
        },
        {
          "internalType": "address",
          "name": "pool1",
          "type": "address"
        },
        {
          "internalType": "bool",
          "name": "baseTokenSmaller",
          "type": "bool"
        }
      ],
      "name": "getOrderedReserves",
      "outputs": [
        {
          "internalType": "address",
          "name": "lowerPool",
          "type": "address"
        },
        {
          "internalType": "address",
          "name": "higherPool",
          "type": "address"
        },
        {
          "components": [
            {
              "internalType": "uint256",
              "name": "a1",
              "type": "uint256"
            },
            {
              "internalType": "uint256",
              "name": "b1",
              "type": "uint256"
            },
            {
              "internalType": "uint256",
              "name": "a2",
              "type": "uint256"
            },
            {
              "internalType": "uint256",
              "name": "b2",
              "type": "uint256"
            }
          ],
          "internalType": "struct MaximumProfit.OrderedReserves",
          "name": "orderedReserves",
          "type": "tuple"
        }
      ],
      "stateMutability": "nonpayable",
      "type": "function"
    }
  ],
  "bytecode": "0x6080604052604051806040016040528073c02aaa39b223fe8d0a0e5c4f27ead9083c756cc273ffffffffffffffffffffffffffffffffffffffff1673ffffffffffffffffffffffffffffffffffffffff1681526020017363ac0665e65d938a8dcc44e3c79c6cd2c18525c273ffffffffffffffffffffffffffffffffffffffff1673ffffffffffffffffffffffffffffffffffffffff1681525060019060026100a99291906100bc565b503480156100b657600080fd5b50610163565b828054828255906000526020600020908101928215610135579160200282015b828111156101345782518260006101000a81548173ffffffffffffffffffffffffffffffffffffffff021916908373ffffffffffffffffffffffffffffffffffffffff160217905550916020019190600101906100dc565b5b5090506101429190610146565b5090565b5b8082111561015f576000816000905550600101610147565b5090565b6110b1806101726000396000f3fe608060405234801561001057600080fd5b506004361061004c5760003560e01c80631a1299691461005157806321d09426146100835780638e6222c4146100b3578063ad5c4648146100e5575b600080fd5b61006b60048036038101906100669190610bfb565b610103565b60405161007a93929190610ec4565b60405180910390f35b61009d60048036038101906100989190610ba9565b610551565b6040516100aa9190610ea9565b60405180910390f35b6100cd60048036038101906100c89190610c37565b610604565b6040516100dc93929190610e72565b60405180910390f35b6100ed610888565b6040516100fa9190610e57565b60405180910390f35b60008060008373ffffffffffffffffffffffffffffffffffffffff168573ffffffffffffffffffffffffffffffffffffffff161415610177576040517f08c379a000000000000000000000000000000000000000000000000000000000815260040161016e90610f1b565b60405180910390fd5b6000808673ffffffffffffffffffffffffffffffffffffffff16630dfe16816040518163ffffffff1660e01b815260040160206040518083038186803b1580156101c057600080fd5b505afa1580156101d4573d6000803e3d6000fd5b505050506040513d601f19601f820116820180604052508101906101f89190610bd2565b8773ffffffffffffffffffffffffffffffffffffffff1663d21220a76040518163ffffffff1660e01b815260040160206040518083038186803b15801561023e57600080fd5b505afa158015610252573d6000803e3d6000fd5b505050506040513d601f19601f820116820180604052508101906102769190610bd2565b915091506000808773ffffffffffffffffffffffffffffffffffffffff16630dfe16816040518163ffffffff1660e01b815260040160206040518083038186803b1580156102c357600080fd5b505afa1580156102d7573d6000803e3d6000fd5b505050506040513d601f19601f820116820180604052508101906102fb9190610bd2565b8873ffffffffffffffffffffffffffffffffffffffff1663d21220a76040518163ffffffff1660e01b815260040160206040518083038186803b15801561034157600080fd5b505afa158015610355573d6000803e3d6000fd5b505050506040513d601f19601f820116820180604052508101906103799190610bd2565b915091508273ffffffffffffffffffffffffffffffffffffffff168473ffffffffffffffffffffffffffffffffffffffff161080156103e357508073ffffffffffffffffffffffffffffffffffffffff168273ffffffffffffffffffffffffffffffffffffffff16105b610422576040517f08c379a000000000000000000000000000000000000000000000000000000000815260040161041990610efb565b60405180910390fd5b8173ffffffffffffffffffffffffffffffffffffffff168473ffffffffffffffffffffffffffffffffffffffff1614801561048857508073ffffffffffffffffffffffffffffffffffffffff168373ffffffffffffffffffffffffffffffffffffffff16145b6104c7576040517f08c379a00000000000000000000000000000000000000000000000000000000081526004016104be90610f5b565b60405180910390fd5b6104d084610551565b806104e057506104df83610551565b5b61051f576040517f08c379a000000000000000000000000000000000000000000000000000000000815260040161051690610f3b565b60405180910390fd5b61052884610551565b610535576000838561053a565b600184845b809750819850829950505050505050509250925092565b6000806000905060005b6001805490508110156105e9578373ffffffffffffffffffffffffffffffffffffffff166001828154811061058c57fe5b9060005260206000200160009054906101000a900473ffffffffffffffffffffffffffffffffffffffff1673ffffffffffffffffffffffffffffffffffffffff1614156105dc57600191506105e9565b808060010191505061055b565b5081156105fa5760019150506105ff565b809150505b919050565b60008061060f610b05565b6000808773ffffffffffffffffffffffffffffffffffffffff16630902f1ac6040518163ffffffff1660e01b815260040160606040518083038186803b15801561065857600080fd5b505afa15801561066c573d6000803e3d6000fd5b505050506040513d601f19601f820116820180604052508101906106909190610c86565b506dffffffffffffffffffffffffffff1691506dffffffffffffffffffffffffffff1691506000808873ffffffffffffffffffffffffffffffffffffffff16630902f1ac6040518163ffffffff1660e01b815260040160606040518083038186803b1580156106fe57600080fd5b505afa158015610712573d6000803e3d6000fd5b505050506040513d601f19601f820116820180604052508101906107369190610c86565b506dffffffffffffffffffffffffffff1691506dffffffffffffffffffffffffffff1691506000808961079e5761077e86610770876108ac565b6108e490919063ffffffff16565b6107998561078b866108ac565b6108e490919063ffffffff16565b6107d5565b6107b9856107ab886108ac565b6108e490919063ffffffff16565b6107d4846107c6876108ac565b6108e490919063ffffffff16565b5b915091506107ec818361091990919063ffffffff16565b15610837578b8b809950819a50505089610809578486848661080e565b858585855b8a6000018b6020018c6040018d6060018481525084815250848152508481525050505050610879565b8a8c809950819a5050508961084f5782848688610854565b838387875b8a6000018b6020018c6040018d60600184815250848152508481525084815250505050505b50505050505093509350939050565b60008054906101000a900473ffffffffffffffffffffffffffffffffffffffff1681565b6108b4610b2d565b60405180602001604052806108da670de0b6b3a76400008561092f90919063ffffffff16565b8152509050919050565b6108ec610b2d565b604051806020016040528061090e8486600001516109b590919063ffffffff16565b815250905092915050565b60008061092684846109ff565b14905092915050565b60008083141561094257600090506109af565b600082840290508284828161095357fe5b04146109aa576040517f08c379a000000000000000000000000000000000000000000000000000000000815260040180806020018281038252602181526020018061105b6021913960400191505060405180910390fd5b809150505b92915050565b60006109f783836040518060400160405280601a81526020017f536166654d6174683a206469766973696f6e206279207a65726f000000000000815250610a3f565b905092915050565b6000816000015183600001511415610a1a5760019050610a39565b8160000151836000015111610a30576000610a33565b60025b60ff1690505b92915050565b60008083118290610aeb576040517f08c379a00000000000000000000000000000000000000000000000000000000081526004018080602001828103825283818151815260200191508051906020019080838360005b83811015610ab0578082015181840152602081019050610a95565b50505050905090810190601f168015610add5780820380516001836020036101000a031916815260200191505b509250505060405180910390fd5b506000838581610af757fe5b049050809150509392505050565b6040518060800160405280600081526020016000815260200160008152602001600081525090565b6040518060200160405280600081525090565b600081359050610b4f81610ffe565b92915050565b600081519050610b6481610ffe565b92915050565b600081359050610b7981611015565b92915050565b600081519050610b8e8161102c565b92915050565b600081519050610ba381611043565b92915050565b600060208284031215610bbb57600080fd5b6000610bc984828501610b40565b91505092915050565b600060208284031215610be457600080fd5b6000610bf284828501610b55565b91505092915050565b60008060408385031215610c0e57600080fd5b6000610c1c85828601610b40565b9250506020610c2d85828601610b40565b9150509250929050565b600080600060608486031215610c4c57600080fd5b6000610c5a86828701610b40565b9350506020610c6b86828701610b40565b9250506040610c7c86828701610b6a565b9150509250925092565b600080600060608486031215610c9b57600080fd5b6000610ca986828701610b7f565b9350506020610cba86828701610b7f565b9250506040610ccb86828701610b94565b9150509250925092565b610cde81610f8c565b82525050565b610ced81610f9e565b82525050565b6000610d00601d83610f7b565b91507f4e6f6e207374616e6461726420756e697377617020414d4d20706169720000006000830152602082019050919050565b6000610d40601183610f7b565b91507f53616d65207061697220616464726573730000000000000000000000000000006000830152602082019050919050565b6000610d80601583610f7b565b91507f4e6f206261736520746f6b656e20696e207061697200000000000000000000006000830152602082019050919050565b6000610dc0601783610f7b565b91507f526571756972652073616d6520746f6b656e20706169720000000000000000006000830152602082019050919050565b608082016000820151610e096000850182610e48565b506020820151610e1c6020850182610e48565b506040820151610e2f6040850182610e48565b506060820151610e426060850182610e48565b50505050565b610e5181610fe4565b82525050565b6000602082019050610e6c6000830184610cd5565b92915050565b600060c082019050610e876000830186610cd5565b610e946020830185610cd5565b610ea16040830184610df3565b949350505050565b6000602082019050610ebe6000830184610ce4565b92915050565b6000606082019050610ed96000830186610ce4565b610ee66020830185610cd5565b610ef36040830184610cd5565b949350505050565b60006020820190508181036000830152610f1481610cf3565b9050919050565b60006020820190508181036000830152610f3481610d33565b9050919050565b60006020820190508181036000830152610f5481610d73565b9050919050565b60006020820190508181036000830152610f7481610db3565b9050919050565b600082825260208201905092915050565b6000610f9782610fc4565b9050919050565b60008115159050919050565b60006dffffffffffffffffffffffffffff82169050919050565b600073ffffffffffffffffffffffffffffffffffffffff82169050919050565b6000819050919050565b600063ffffffff82169050919050565b61100781610f8c565b811461101257600080fd5b50565b61101e81610f9e565b811461102957600080fd5b50565b61103581610faa565b811461104057600080fd5b50565b61104c81610fee565b811461105757600080fd5b5056fe536166654d6174683a206d756c7469706c69636174696f6e206f766572666c6f77a264697066735822122048b1a9f4e2f71910696de21ad4168d0384e7a2e1c479d144f95fefc48816a9ab64736f6c63430007060033",
  "immutableReferences": {},
  "source": "//SPDX-License-Identifier: Unlicense\r\npragma solidity ^0.7.0;\r\npragma experimental ABIEncoderV2;\r\n\r\nimport '@openzeppelin/contracts/utils/structs/EnumerableSet.sol';\r\n// import 'hardhat/console.sol';\r\nimport './interfaces/IUniswapV2Pair.sol';\r\nimport './utils/Decimal.sol';\r\nimport \"../node_modules//@openzeppelin/contracts/utils/math/SafeMath.sol\";\r\n\r\ncontract MaximumProfit {\r\n    using Decimal for Decimal.D256;\r\n    using SafeMath for uint256;\r\n    using EnumerableSet for EnumerableSet.AddressSet;\r\n\r\n     struct OrderedReserves {\r\n        uint256 a1; // base asset\r\n        uint256 b1;\r\n        uint256 a2;\r\n        uint256 b2;\r\n    }\r\n\r\n\r\n\r\n    // address WETH;\r\n    address public WETH;\r\n    address[] baseTokens = [0xC02aaA39b223FE8D0A0e5C4F27eAD9083C756Cc2, 0x63ac0665E65d938a8DCc44e3C79c6cd2C18525c2];\r\n\r\n    function baseTokensContains(address token) public view returns (bool hasBeenFound) {\r\n        \r\n        bool hasbeenFound = false;\r\n        for (uint i = 0; i < baseTokens.length; i++) {\r\n\r\n            if(baseTokens[i] == token) {\r\n\r\n                hasbeenFound = true;\r\n                break;\r\n            }\r\n        }\r\n\r\n        if (hasBeenFound) {\r\n\r\n            return true;\r\n        }\r\n\r\n        return hasbeenFound;\r\n    }\r\n\r\n    function isbaseTokenSmaller(address pool0, address pool1)\r\n        public\r\n        view\r\n        returns (\r\n            bool baseSmaller,\r\n            address baseToken,\r\n            address quoteToken\r\n        )\r\n    {\r\n        require(pool0 != pool1, 'Same pair address');\r\n        (address pool0Token0, address pool0Token1) = (IUniswapV2Pair(pool0).token0(), IUniswapV2Pair(pool0).token1());\r\n        (address pool1Token0, address pool1Token1) = (IUniswapV2Pair(pool1).token0(), IUniswapV2Pair(pool1).token1());\r\n        require(pool0Token0 < pool0Token1 && pool1Token0 < pool1Token1, 'Non standard uniswap AMM pair');\r\n        require(pool0Token0 == pool1Token0 && pool0Token1 == pool1Token1, 'Require same token pair');\r\n        require(baseTokensContains(pool0Token0) || baseTokensContains(pool0Token1), 'No base token in pair');\r\n\r\n        (baseSmaller, baseToken, quoteToken) = baseTokensContains(pool0Token0)\r\n            ? (true, pool0Token0, pool0Token1)\r\n            : (false, pool0Token1, pool0Token0);\r\n    }\r\n\r\n    /// We borrow base token by using flash swap from lower price pool and sell them to higher price pool\r\n    function getOrderedReserves(\r\n        address pool0,\r\n        address pool1,\r\n        bool baseTokenSmaller\r\n    )\r\n        public\r\n        returns (\r\n            address lowerPool,\r\n            address higherPool,\r\n            OrderedReserves memory orderedReserves\r\n        )\r\n    {\r\n        (uint256 pool0Reserve0, uint256 pool0Reserve1, ) = IUniswapV2Pair(pool0).getReserves();\r\n        (uint256 pool1Reserve0, uint256 pool1Reserve1, ) = IUniswapV2Pair(pool1).getReserves();\r\n\r\n        // Calculate the price denominated in quote asset token\r\n        (Decimal.D256 memory price0, Decimal.D256 memory price1) =\r\n            baseTokenSmaller\r\n                ? (Decimal.from(pool0Reserve0).div(pool0Reserve1), Decimal.from(pool1Reserve0).div(pool1Reserve1))\r\n                : (Decimal.from(pool0Reserve1).div(pool0Reserve0), Decimal.from(pool1Reserve1).div(pool1Reserve0));\r\n\r\n        // get a1, b1, a2, b2 with following rule:\r\n        // 1. (a1, b1) represents the pool with lower price, denominated in quote asset token\r\n        // 2. (a1, a2) are the base tokens in two pools\r\n        if (price0.lessThan(price1)) {\r\n            (lowerPool, higherPool) = (pool0, pool1);\r\n            (orderedReserves.a1, orderedReserves.b1, orderedReserves.a2, orderedReserves.b2) = baseTokenSmaller\r\n                ? (pool0Reserve0, pool0Reserve1, pool1Reserve0, pool1Reserve1)\r\n                : (pool0Reserve1, pool0Reserve0, pool1Reserve1, pool1Reserve0);\r\n        } else {\r\n            (lowerPool, higherPool) = (pool1, pool0);\r\n            (orderedReserves.a1, orderedReserves.b1, orderedReserves.a2, orderedReserves.b2) = baseTokenSmaller\r\n                ? (pool1Reserve0, pool1Reserve1, pool0Reserve0, pool0Reserve1)\r\n                : (pool1Reserve1, pool1Reserve0, pool0Reserve1, pool0Reserve0);\r\n        }\r\n        // console.log('Borrow from pool:', lowerPool);\r\n        // console.log('Sell to pool:', higherPool);\r\n    }\r\n\r\n     // copy from UniswapV2Library\r\n    // given an output amount of an asset and pair reserves, returns a required input amount of the other asset\r\n    function getAmountIn(\r\n        uint256 amountOut,\r\n        uint256 reserveIn,\r\n        uint256 reserveOut\r\n    ) internal pure returns (uint256 amountIn) {\r\n        require(amountOut > 0, 'UniswapV2Library: INSUFFICIENT_OUTPUT_AMOUNT');\r\n        require(reserveIn > 0 && reserveOut > 0, 'UniswapV2Library: INSUFFICIENT_LIQUIDITY');\r\n        uint256 numerator = reserveIn.mul(amountOut).mul(1000);\r\n        uint256 denominator = reserveOut.sub(amountOut).mul(997);\r\n        amountIn = (numerator / denominator).add(1);\r\n    }\r\n\r\n    // copy from UniswapV2Library\r\n    // given an input amount of an asset and pair reserves, returns the maximum output amount of the other asset\r\n    function getAmountOut(\r\n        uint256 amountIn,\r\n        uint256 reserveIn,\r\n        uint256 reserveOut\r\n    ) internal pure returns (uint256 amountOut) {\r\n        require(amountIn > 0, 'UniswapV2Library: INSUFFICIENT_INPUT_AMOUNT');\r\n        require(reserveIn > 0 && reserveOut > 0, 'UniswapV2Library: INSUFFICIENT_LIQUIDITY');\r\n        uint256 amountInWithFee = amountIn.mul(997);\r\n        uint256 numerator = amountInWithFee.mul(reserveOut);\r\n        uint256 denominator = reserveIn.mul(1000).add(amountInWithFee);\r\n        amountOut = numerator / denominator;\r\n    }\r\n\r\n}",
  "sourcePath": "C:\\Users\\mcgra\\OneDrive\\Documents\\EthereumProgramming\\Bot\\contracts\\MaximumProfitAlgorithm.sol",
  "compiler": {
    "name": "solc",
    "version": "0.7.6+commit.7338295f.Emscripten.clang"
  },
  "schemaVersion": "3.4.3",
  "updatedAt": "2021-11-15T13:02:16.599Z",
  "devdoc": {
    "kind": "dev",
    "methods": {},
    "version": 1
  },
  "userdoc": {
    "kind": "user",
    "methods": {
      "getOrderedReserves(address,address,bool)": {
        "notice": "We borrow base token by using flash swap from lower price pool and sell them to higher price pool"
      }
    },
    "version": 1
  }
}