{
  "contractName": "MaximumProfit",
  "abi": [
    {
      "inputs": [
        {
          "internalType": "address",
          "name": "token",
          "type": "address"
        }
      ],
      "name": "baseTokensContains",
      "outputs": [
        {
          "internalType": "bool",
          "name": "hasBeenFound",
          "type": "bool"
        }
      ],
      "stateMutability": "view",
      "type": "function"
    },
    {
      "inputs": [
        {
          "internalType": "address",
          "name": "pool0",
          "type": "address"
        },
        {
          "internalType": "address",
          "name": "pool1",
          "type": "address"
        }
      ],
      "name": "isbaseTokenSmaller",
      "outputs": [
        {
          "internalType": "bool",
          "name": "baseSmaller",
          "type": "bool"
        },
        {
          "internalType": "address",
          "name": "baseToken",
          "type": "address"
        },
        {
          "internalType": "address",
          "name": "quoteToken",
          "type": "address"
        }
      ],
      "stateMutability": "view",
      "type": "function"
    },
    {
      "inputs": [
        {
          "internalType": "address",
          "name": "pool0",
          "type": "address"
        },
        {
          "internalType": "address",
          "name": "pool1",
          "type": "address"
        },
        {
          "internalType": "bool",
          "name": "baseTokenSmaller",
          "type": "bool"
        }
      ],
      "name": "getOrderedReserves",
      "outputs": [
        {
          "internalType": "address",
          "name": "lowerPool",
          "type": "address"
        },
        {
          "internalType": "address",
          "name": "higherPool",
          "type": "address"
        },
        {
          "components": [
            {
              "internalType": "uint256",
              "name": "a1",
              "type": "uint256"
            },
            {
              "internalType": "uint256",
              "name": "b1",
              "type": "uint256"
            },
            {
              "internalType": "uint256",
              "name": "a2",
              "type": "uint256"
            },
            {
              "internalType": "uint256",
              "name": "b2",
              "type": "uint256"
            }
          ],
          "internalType": "struct OrderedReserves",
          "name": "orderedReserves",
          "type": "tuple"
        }
      ],
      "stateMutability": "nonpayable",
      "type": "function"
    },
    {
      "inputs": [
        {
          "internalType": "address",
          "name": "pool0",
          "type": "address"
        },
        {
          "internalType": "address",
          "name": "pool1",
          "type": "address"
        },
        {
          "internalType": "uint256",
          "name": "amount",
          "type": "uint256"
        }
      ],
      "name": "getProfit",
      "outputs": [
        {
          "internalType": "uint256",
          "name": "profit",
          "type": "uint256"
        },
        {
          "internalType": "address",
          "name": "baseToken",
          "type": "address"
        }
      ],
      "stateMutability": "nonpayable",
      "type": "function"
    },
    {
      "inputs": [
        {
          "components": [
            {
              "internalType": "uint256",
              "name": "a1",
              "type": "uint256"
            },
            {
              "internalType": "uint256",
              "name": "b1",
              "type": "uint256"
            },
            {
              "internalType": "uint256",
              "name": "a2",
              "type": "uint256"
            },
            {
              "internalType": "uint256",
              "name": "b2",
              "type": "uint256"
            }
          ],
          "internalType": "struct OrderedReserves",
          "name": "reserves",
          "type": "tuple"
        }
      ],
      "name": "calcBorrowAmount",
      "outputs": [
        {
          "internalType": "uint256",
          "name": "amount",
          "type": "uint256"
        }
      ],
      "stateMutability": "pure",
      "type": "function"
    },
    {
      "inputs": [
        {
          "internalType": "int256",
          "name": "a",
          "type": "int256"
        },
        {
          "internalType": "int256",
          "name": "b",
          "type": "int256"
        },
        {
          "internalType": "int256",
          "name": "c",
          "type": "int256"
        }
      ],
      "name": "calcSolutionForQuadratic",
      "outputs": [
        {
          "internalType": "int256",
          "name": "x1",
          "type": "int256"
        },
        {
          "internalType": "int256",
          "name": "x2",
          "type": "int256"
        }
      ],
      "stateMutability": "pure",
      "type": "function"
    },
    {
      "inputs": [
        {
          "internalType": "uint256",
          "name": "n",
          "type": "uint256"
        }
      ],
      "name": "sqrt",
      "outputs": [
        {
          "internalType": "uint256",
          "name": "res",
          "type": "uint256"
        }
      ],
      "stateMutability": "pure",
      "type": "function"
    }
  ],
  "bytecode": "0x6080604052604051806040016040528073c02aaa39b223fe8d0a0e5c4f27ead9083c756cc273ffffffffffffffffffffffffffffffffffffffff1673ffffffffffffffffffffffffffffffffffffffff16815260200173f7d78ad1c7aa9026be9cf6595922d4921b4fca2d73ffffffffffffffffffffffffffffffffffffffff1673ffffffffffffffffffffffffffffffffffffffff168152506000906002620000ab929190620000c0565b50348015620000b957600080fd5b506200018c565b8280548282559060005260206000209081019282156200013c579160200282015b828111156200013b5782518260006101000a81548173ffffffffffffffffffffffffffffffffffffffff021916908373ffffffffffffffffffffffffffffffffffffffff16021790555091602001919060010190620000e1565b5b5090506200014b91906200014f565b5090565b5b808211156200018857600081816101000a81549073ffffffffffffffffffffffffffffffffffffffff02191690555060010162000150565b5090565b611ffb806200019c6000396000f3fe608060405234801561001057600080fd5b506004361061007c5760003560e01c806353f6c31a1161005b57806353f6c31a14610114578063677342ce146101445780638e6222c414610174578063dd8c77d9146101a65761007c565b80625835ba146100815780631a129969146100b257806321d09426146100e4575b600080fd5b61009b6004803603810190610096919061164a565b6101d7565b6040516100a9929190611e09565b60405180910390f35b6100cc60048036038101906100c791906115bf565b610369565b6040516100db93929190611c0c565b60405180910390f35b6100fe60048036038101906100f9919061156d565b6107b7565b60405161010b9190611bf1565b60405180910390f35b61012e600480360381019061012991906116e8565b610859565b60405161013b9190611dee565b60405180910390f35b61015e60048036038101906101599190611760565b610b3a565b60405161016b9190611dee565b60405180910390f35b61018e600480360381019061018991906115fb565b610ba9565b60405161019d93929190611bba565b60405180910390f35b6101c060048036038101906101bb9190611699565b610e3a565b6040516101ce929190611c43565b60405180910390f35b60008060006101e68686610369565b5050905080610272578573ffffffffffffffffffffffffffffffffffffffff1663d21220a76040518163ffffffff1660e01b815260040160206040518083038186803b15801561023557600080fd5b505afa158015610249573d6000803e3d6000fd5b505050506040513d601f19601f8201168201806040525081019061026d9190611596565b6102f1565b8573ffffffffffffffffffffffffffffffffffffffff16630dfe16816040518163ffffffff1660e01b815260040160206040518083038186803b1580156102b857600080fd5b505afa1580156102cc573d6000803e3d6000fd5b505050506040513d601f19601f820116820180604052508101906102f09190611596565b5b91506102fb61142b565b610306878784610ba9565b92505050600061031582610859565b9050600061032c8784600001518560200151610ece565b905060006103438885606001518660400151610fdf565b905081811015610356576000965061035c565b81810396505b5050505050935093915050565b60008060008373ffffffffffffffffffffffffffffffffffffffff168573ffffffffffffffffffffffffffffffffffffffff1614156103dd576040517f08c379a00000000000000000000000000000000000000000000000000000000081526004016103d490611d6e565b60405180910390fd5b6000808673ffffffffffffffffffffffffffffffffffffffff16630dfe16816040518163ffffffff1660e01b815260040160206040518083038186803b15801561042657600080fd5b505afa15801561043a573d6000803e3d6000fd5b505050506040513d601f19601f8201168201806040525081019061045e9190611596565b8773ffffffffffffffffffffffffffffffffffffffff1663d21220a76040518163ffffffff1660e01b815260040160206040518083038186803b1580156104a457600080fd5b505afa1580156104b8573d6000803e3d6000fd5b505050506040513d601f19601f820116820180604052508101906104dc9190611596565b915091506000808773ffffffffffffffffffffffffffffffffffffffff16630dfe16816040518163ffffffff1660e01b815260040160206040518083038186803b15801561052957600080fd5b505afa15801561053d573d6000803e3d6000fd5b505050506040513d601f19601f820116820180604052508101906105619190611596565b8873ffffffffffffffffffffffffffffffffffffffff1663d21220a76040518163ffffffff1660e01b815260040160206040518083038186803b1580156105a757600080fd5b505afa1580156105bb573d6000803e3d6000fd5b505050506040513d601f19601f820116820180604052508101906105df9190611596565b915091508273ffffffffffffffffffffffffffffffffffffffff168473ffffffffffffffffffffffffffffffffffffffff1610801561064957508073ffffffffffffffffffffffffffffffffffffffff168273ffffffffffffffffffffffffffffffffffffffff16105b610688576040517f08c379a000000000000000000000000000000000000000000000000000000000815260040161067f90611cae565b60405180910390fd5b8173ffffffffffffffffffffffffffffffffffffffff168473ffffffffffffffffffffffffffffffffffffffff161480156106ee57508073ffffffffffffffffffffffffffffffffffffffff168373ffffffffffffffffffffffffffffffffffffffff16145b61072d576040517f08c379a000000000000000000000000000000000000000000000000000000000815260040161072490611dae565b60405180910390fd5b610736846107b7565b806107465750610745836107b7565b5b610785576040517f08c379a000000000000000000000000000000000000000000000000000000000815260040161077c90611d8e565b60405180910390fd5b61078e846107b7565b61079b57600083856107a0565b600184845b809750819850829950505050505050509250925092565b6000806000905060005b60008054905081101561084f578373ffffffffffffffffffffffffffffffffffffffff16600082815481106107f257fe5b9060005260206000200160009054906101000a900473ffffffffffffffffffffffffffffffffffffffff1673ffffffffffffffffffffffffffffffffffffffff161415610842576001915061084f565b80806001019150506107c1565b5080915050919050565b600080826020015183600001511061087557826020015161087b565b82600001515b90506000836060015184604001511061089857836060015161089e565b83604001515b905060008183106108af57816108b1565b825b9050600069d3c21bcecceda10000008211156108d85768056bc75e2d631000009050610a02565b69152d02c7e14af68000008211156108fa57678ac7230489e800009050610a01565b69021e19e0c9bab240000082111561091c57670de0b6b3a76400009050610a00565b683635c9adc5dea0000082111561093d5767016345785d8a000090506109ff565b68056bc75e2d6310000082111561095d57662386f26fc1000090506109fe565b678ac7230489e8000082111561097c5766038d7ea4c6800090506109fd565b670de0b6b3a764000082111561099a57655af3107a400090506109fc565b67016345785d8a00008211156109b8576509184e72a00090506109fb565b662386f26fc100008211156109d45764e8d4a5100090506109fa565b66038d7ea4c680008211156109f05764174876e80090506109f9565b6402540be40090505b5b5b5b5b5b5b5b5b5b600080600080848a6000015181610a1557fe5b04858b6040015181610a2357fe5b04868c6020015181610a3157fe5b04878d6060015181610a3f57fe5b04935093509350935060008184028386020390506000848601838560020202029050600084860284880203848602029050600080610a7e858585610e3a565b91509150600082138015610a9157508682125b8015610a9c57508582125b80610abd5750600081138015610ab157508681125b8015610abc57508581125b5b610afc576040517f08c379a0000000000000000000000000000000000000000000000000000000008152600401610af390611c8e565b60405180910390fd5b600082138015610b0b57508682125b8015610b1657508582125b610b2257898102610b26565b8982025b9d5050505050505050505050505050919050565b600060018211610b4657fe5b6000620f424083029050600081905081925060005b600115610b93576002848381610b6d57fe5b04850181610b7757fe5b0490506103e88185031015610b8b57610b93565b809350610b5b565b6103e88481610b9e57fe5b049350505050919050565b600080610bb461142b565b6000808773ffffffffffffffffffffffffffffffffffffffff16630902f1ac6040518163ffffffff1660e01b815260040160606040518083038186803b158015610bfd57600080fd5b505afa158015610c11573d6000803e3d6000fd5b505050506040513d601f19601f82011682018060405250810190610c359190611711565b506dffffffffffffffffffffffffffff1691506dffffffffffffffffffffffffffff1691506000808873ffffffffffffffffffffffffffffffffffffffff16630902f1ac6040518163ffffffff1660e01b815260040160606040518083038186803b158015610ca357600080fd5b505afa158015610cb7573d6000803e3d6000fd5b505050506040513d601f19601f82011682018060405250810190610cdb9190611711565b506dffffffffffffffffffffffffffff1691506dffffffffffffffffffffffffffff169150610d08611453565b610d10611453565b89610d5057610d3086610d22876110e3565b61111b90919063ffffffff16565b610d4b85610d3d866110e3565b61111b90919063ffffffff16565b610d87565b610d6b85610d5d886110e3565b61111b90919063ffffffff16565b610d8684610d78876110e3565b61111b90919063ffffffff16565b5b91509150610d9e818361115090919063ffffffff16565b15610de9578b8b809950819a50505089610dbb5784868486610dc0565b858585855b8a6000018b6020018c6040018d6060018481525084815250848152508481525050505050610e2b565b8a8c809950819a50505089610e015782848688610e06565b838387875b8a6000018b6020018c6040018d60600184815250848152508481525084815250505050505b50505050505093509350939050565b60008060008386600402026002860a03905060008113610e8f576040517f08c379a0000000000000000000000000000000000000000000000000000000008152600401610e8690611d4e565b60405180910390fd5b6000610e9a82610b3a565b90508660020281876000030181610ead57fe5b0593508660020281876000030381610ec157fe5b0592505050935093915050565b6000808411610f12576040517f08c379a0000000000000000000000000000000000000000000000000000000008152600401610f0990611cee565b60405180910390fd5b600083118015610f225750600082115b610f61576040517f08c379a0000000000000000000000000000000000000000000000000000000008152600401610f5890611d0e565b60405180910390fd5b6000610f8a6103e8610f7c878761116690919063ffffffff16565b61116690919063ffffffff16565b90506000610fb56103e5610fa788876111d690919063ffffffff16565b61116690919063ffffffff16565b9050610fd46001828481610fc557fe5b0461122090919063ffffffff16565b925050509392505050565b6000808411611023576040517f08c379a000000000000000000000000000000000000000000000000000000000815260040161101a90611dce565b60405180910390fd5b6000831180156110335750600082115b611072576040517f08c379a000000000000000000000000000000000000000000000000000000000815260040161106990611d0e565b60405180910390fd5b60006110896103e58661116690919063ffffffff16565b905060006110a0848361116690919063ffffffff16565b905060006110cb836110bd6103e88961116690919063ffffffff16565b61122090919063ffffffff16565b90508082816110d657fe5b0493505050509392505050565b6110eb611453565b6040518060200160405280611111670de0b6b3a76400008561127590919063ffffffff16565b8152509050919050565b611123611453565b60405180602001604052806111458486600001516112e590919063ffffffff16565b815250905092915050565b60008061115d848461132f565b14905092915050565b60008083141561117957600090506111d0565b600082840290508284828161118a57fe5b04146111cb576040517f08c379a00000000000000000000000000000000000000000000000000000000081526004016111c290611d2e565b60405180910390fd5b809150505b92915050565b600061121883836040518060400160405280601e81526020017f536166654d6174683a207375627472616374696f6e206f766572666c6f77000081525061136f565b905092915050565b60008082840190508381101561126b576040517f08c379a000000000000000000000000000000000000000000000000000000000815260040161126290611cce565b60405180910390fd5b8091505092915050565b60008083141561128857600090506112df565b600082840290508284828161129957fe5b04146112da576040517f08c379a00000000000000000000000000000000000000000000000000000000081526004016112d190611d2e565b60405180910390fd5b809150505b92915050565b600061132783836040518060400160405280601a81526020017f536166654d6174683a206469766973696f6e206279207a65726f0000000000008152506113ca565b905092915050565b600081600001518360000151141561134a5760019050611369565b8160000151836000015111611360576000611363565b60025b60ff1690505b92915050565b60008383111582906113b7576040517f08c379a00000000000000000000000000000000000000000000000000000000081526004016113ae9190611c6c565b60405180910390fd5b5060008385039050809150509392505050565b60008083118290611411576040517f08c379a00000000000000000000000000000000000000000000000000000000081526004016114089190611c6c565b60405180910390fd5b50600083858161141d57fe5b049050809150509392505050565b6040518060800160405280600081526020016000815260200160008152602001600081525090565b6040518060200160405280600081525090565b60008135905061147581611f3b565b92915050565b60008151905061148a81611f3b565b92915050565b60008135905061149f81611f52565b92915050565b6000813590506114b481611f69565b92915050565b6000608082840312156114cc57600080fd5b6114d66080611e32565b905060006114e684828501611543565b60008301525060206114fa84828501611543565b602083015250604061150e84828501611543565b604083015250606061152284828501611543565b60608301525092915050565b60008151905061153d81611f80565b92915050565b60008135905061155281611f97565b92915050565b60008151905061156781611fae565b92915050565b60006020828403121561157f57600080fd5b600061158d84828501611466565b91505092915050565b6000602082840312156115a857600080fd5b60006115b68482850161147b565b91505092915050565b600080604083850312156115d257600080fd5b60006115e085828601611466565b92505060206115f185828601611466565b9150509250929050565b60008060006060848603121561161057600080fd5b600061161e86828701611466565b935050602061162f86828701611466565b925050604061164086828701611490565b9150509250925092565b60008060006060848603121561165f57600080fd5b600061166d86828701611466565b935050602061167e86828701611466565b925050604061168f86828701611543565b9150509250925092565b6000806000606084860312156116ae57600080fd5b60006116bc868287016114a5565b93505060206116cd868287016114a5565b92505060406116de868287016114a5565b9150509250925092565b6000608082840312156116fa57600080fd5b6000611708848285016114ba565b91505092915050565b60008060006060848603121561172657600080fd5b60006117348682870161152e565b93505060206117458682870161152e565b925050604061175686828701611558565b9150509250925092565b60006020828403121561177257600080fd5b600061178084828501611543565b91505092915050565b61179281611e7b565b82525050565b6117a181611e8d565b82525050565b6117b081611e99565b82525050565b60006117c182611e5f565b6117cb8185611e6a565b93506117db818560208601611ef7565b6117e481611f2a565b840191505092915050565b60006117fc601183611e6a565b91507f57726f6e6720696e707574206f726465720000000000000000000000000000006000830152602082019050919050565b600061183c601d83611e6a565b91507f4e6f6e207374616e6461726420756e697377617020414d4d20706169720000006000830152602082019050919050565b600061187c601b83611e6a565b91507f536166654d6174683a206164646974696f6e206f766572666c6f7700000000006000830152602082019050919050565b60006118bc602c83611e6a565b91507f556e697377617056324c6962726172793a20494e53554646494349454e545f4f60008301527f55545055545f414d4f554e5400000000000000000000000000000000000000006020830152604082019050919050565b6000611922602883611e6a565b91507f556e697377617056324c6962726172793a20494e53554646494349454e545f4c60008301527f49515549444954590000000000000000000000000000000000000000000000006020830152604082019050919050565b6000611988602183611e6a565b91507f536166654d6174683a206d756c7469706c69636174696f6e206f766572666c6f60008301527f77000000000000000000000000000000000000000000000000000000000000006020830152604082019050919050565b60006119ee600e83611e6a565b91507f436f6d706c6578206e756d6265720000000000000000000000000000000000006000830152602082019050919050565b6000611a2e601183611e6a565b91507f53616d65207061697220616464726573730000000000000000000000000000006000830152602082019050919050565b6000611a6e601583611e6a565b91507f4e6f206261736520746f6b656e20696e207061697200000000000000000000006000830152602082019050919050565b6000611aae601783611e6a565b91507f526571756972652073616d6520746f6b656e20706169720000000000000000006000830152602082019050919050565b6000611aee602b83611e6a565b91507f556e697377617056324c6962726172793a20494e53554646494349454e545f4960008301527f4e5055545f414d4f554e540000000000000000000000000000000000000000006020830152604082019050919050565b608082016000820151611b5d6000850182611b9c565b506020820151611b706020850182611b9c565b506040820151611b836040850182611b9c565b506060820151611b966060850182611b9c565b50505050565b611ba581611edd565b82525050565b611bb481611edd565b82525050565b600060c082019050611bcf6000830186611789565b611bdc6020830185611789565b611be96040830184611b47565b949350505050565b6000602082019050611c066000830184611798565b92915050565b6000606082019050611c216000830186611798565b611c2e6020830185611789565b611c3b6040830184611789565b949350505050565b6000604082019050611c5860008301856117a7565b611c6560208301846117a7565b9392505050565b60006020820190508181036000830152611c8681846117b6565b905092915050565b60006020820190508181036000830152611ca7816117ef565b9050919050565b60006020820190508181036000830152611cc78161182f565b9050919050565b60006020820190508181036000830152611ce78161186f565b9050919050565b60006020820190508181036000830152611d07816118af565b9050919050565b60006020820190508181036000830152611d2781611915565b9050919050565b60006020820190508181036000830152611d478161197b565b9050919050565b60006020820190508181036000830152611d67816119e1565b9050919050565b60006020820190508181036000830152611d8781611a21565b9050919050565b60006020820190508181036000830152611da781611a61565b9050919050565b60006020820190508181036000830152611dc781611aa1565b9050919050565b60006020820190508181036000830152611de781611ae1565b9050919050565b6000602082019050611e036000830184611bab565b92915050565b6000604082019050611e1e6000830185611bab565b611e2b6020830184611789565b9392505050565b6000604051905081810181811067ffffffffffffffff82111715611e5557600080fd5b8060405250919050565b600081519050919050565b600082825260208201905092915050565b6000611e8682611ebd565b9050919050565b60008115159050919050565b6000819050919050565b60006dffffffffffffffffffffffffffff82169050919050565b600073ffffffffffffffffffffffffffffffffffffffff82169050919050565b6000819050919050565b600063ffffffff82169050919050565b60005b83811015611f15578082015181840152602081019050611efa565b83811115611f24576000848401525b50505050565b6000601f19601f8301169050919050565b611f4481611e7b565b8114611f4f57600080fd5b50565b611f5b81611e8d565b8114611f6657600080fd5b50565b611f7281611e99565b8114611f7d57600080fd5b50565b611f8981611ea3565b8114611f9457600080fd5b50565b611fa081611edd565b8114611fab57600080fd5b50565b611fb781611ee7565b8114611fc257600080fd5b5056fea26469706673582212201484f3ef3c4edd865efd585648a07fba716f866ed051656c9063e86d34066aaa64736f6c634300060c0033",
  "immutableReferences": {},
  "source": "//SPDX-License-Identifier: Unlicense\r\npragma solidity ^0.6.6;\r\npragma experimental ABIEncoderV2;\r\n\r\nimport '@openzeppelin/contracts/utils//structs/EnumerableSet.sol';\r\n// import 'hardhat/console.sol';\r\nimport './interfaces/IUniswapV2Pair.sol';\r\nimport './utils/Decimal.sol';\r\nimport \"../node_modules//@openzeppelin/contracts/utils/math/SafeMath.sol\";\r\n\r\n\r\n    struct OrderedReserves {\r\n    uint256 a1; // base asset\r\n    uint256 b1;\r\n    uint256 a2;\r\n    uint256 b2;\r\n    }\r\n\r\n\r\ncontract MaximumProfit {\r\n    using Decimal for Decimal.D256;\r\n    using SafeMath for uint256;\r\n    using EnumerableSet for EnumerableSet.AddressSet;\r\n\r\n    // address WETH;\r\n    address[] baseTokens = [0xC02aaA39b223FE8D0A0e5C4F27eAD9083C756Cc2, 0xF7d78aD1c7aA9026be9cf6595922d4921B4FcA2d];\r\n\r\n  \r\n\r\n    function baseTokensContains(address token) public view returns (bool hasBeenFound) {\r\n        \r\n        bool hasbeenFound = false;\r\n        for (uint i = 0; i < baseTokens.length; i++) {\r\n\r\n            if(baseTokens[i] == token) {\r\n\r\n                hasbeenFound = true;\r\n                break;\r\n            }\r\n        }\r\n\r\n        return hasbeenFound;\r\n    }\r\n\r\n    function isbaseTokenSmaller(address pool0, address pool1)\r\n        public\r\n        view\r\n        returns (\r\n            bool baseSmaller,\r\n            address baseToken,\r\n            address quoteToken\r\n        )\r\n    {\r\n        require(pool0 != pool1, 'Same pair address');\r\n        (address pool0Token0, address pool0Token1) = (IUniswapV2Pair(pool0).token0(), IUniswapV2Pair(pool0).token1());\r\n        (address pool1Token0, address pool1Token1) = (IUniswapV2Pair(pool1).token0(), IUniswapV2Pair(pool1).token1());\r\n        require(pool0Token0 < pool0Token1 && pool1Token0 < pool1Token1, 'Non standard uniswap AMM pair');\r\n        require(pool0Token0 == pool1Token0 && pool0Token1 == pool1Token1, 'Require same token pair');\r\n        require(baseTokensContains(pool0Token0) || baseTokensContains(pool0Token1), 'No base token in pair');\r\n\r\n        (baseSmaller, baseToken, quoteToken) = baseTokensContains(pool0Token0)\r\n            ? (true, pool0Token0, pool0Token1)\r\n            : (false, pool0Token1, pool0Token0);\r\n    }\r\n\r\n    /// We borrow base token by using flash swap from lower price pool and sell them to higher price pool\r\n    function getOrderedReserves(\r\n        address pool0,\r\n        address pool1,\r\n        bool baseTokenSmaller\r\n    )\r\n        public\r\n        returns (\r\n            address lowerPool,\r\n            address higherPool,\r\n            OrderedReserves memory orderedReserves\r\n        )\r\n    {\r\n        (uint256 pool0Reserve0, uint256 pool0Reserve1, ) = IUniswapV2Pair(pool0).getReserves();\r\n        (uint256 pool1Reserve0, uint256 pool1Reserve1, ) = IUniswapV2Pair(pool1).getReserves();\r\n\r\n        // Calculate the price denominated in quote asset token\r\n        (Decimal.D256 memory price0, Decimal.D256 memory price1) =\r\n            baseTokenSmaller\r\n                ? (Decimal.from(pool0Reserve0).div(pool0Reserve1), Decimal.from(pool1Reserve0).div(pool1Reserve1))\r\n                : (Decimal.from(pool0Reserve1).div(pool0Reserve0), Decimal.from(pool1Reserve1).div(pool1Reserve0));\r\n\r\n        // get a1, b1, a2, b2 with following rule:\r\n        // 1. (a1, b1) represents the pool with lower price, denominated in quote asset token\r\n        // 2. (a1, a2) are the base tokens in two pools\r\n        if (price0.lessThan(price1)) {\r\n            (lowerPool, higherPool) = (pool0, pool1);\r\n            (orderedReserves.a1, orderedReserves.b1, orderedReserves.a2, orderedReserves.b2) = baseTokenSmaller\r\n                ? (pool0Reserve0, pool0Reserve1, pool1Reserve0, pool1Reserve1)\r\n                : (pool0Reserve1, pool0Reserve0, pool1Reserve1, pool1Reserve0);\r\n        } else {\r\n            (lowerPool, higherPool) = (pool1, pool0);\r\n            (orderedReserves.a1, orderedReserves.b1, orderedReserves.a2, orderedReserves.b2) = baseTokenSmaller\r\n                ? (pool1Reserve0, pool1Reserve1, pool0Reserve0, pool0Reserve1)\r\n                : (pool1Reserve1, pool1Reserve0, pool0Reserve1, pool0Reserve0);\r\n        }\r\n        // console.log('Borrow from pool:', lowerPool);\r\n        // console.log('Sell to pool:', higherPool);\r\n    }\r\n\r\n     /// @notice Calculate how much profit we can by arbitraging between two pools\r\n    function getProfit(address pool0, address pool1, uint amount) public returns (uint256 profit, address baseToken) {\r\n        (bool baseTokenSmaller, , ) = isbaseTokenSmaller(pool0, pool1);\r\n        baseToken = baseTokenSmaller ? IUniswapV2Pair(pool0).token0() : IUniswapV2Pair(pool0).token1();\r\n\r\n        (, , OrderedReserves memory orderedReserves) = getOrderedReserves(pool0, pool1, baseTokenSmaller);\r\n\r\n        uint256 borrowAmount = calcBorrowAmount(orderedReserves);\r\n        // borrow quote token on lower price pool,\r\n        uint256 debtAmount = getAmountIn(amount, orderedReserves.a1, orderedReserves.b1);\r\n        // sell borrowed quote token on higher price pool\r\n        uint256 baseTokenOutAmount = getAmountOut(amount, orderedReserves.b2, orderedReserves.a2);\r\n        if (baseTokenOutAmount < debtAmount) {\r\n            profit = 0;\r\n        } else {\r\n            profit = baseTokenOutAmount - debtAmount;\r\n        }\r\n    }\r\n\r\n \r\n    /// @dev calculate the maximum base asset amount to borrow in order to get maximum profit during arbitrage\r\n    function calcBorrowAmount(OrderedReserves memory reserves) public pure returns (uint256 amount) {\r\n      \r\n        uint256 min1 = reserves.a1 < reserves.b1 ? reserves.a1 : reserves.b1;\r\n        uint256 min2 = reserves.a2 < reserves.b2 ? reserves.a2 : reserves.b2;\r\n        uint256 min = min1 < min2 ? min1 : min2;\r\n\r\n        // choose appropriate number to divide based on the minimum number\r\n        uint256 d;\r\n        if (min > 1e24) {\r\n            d = 1e20;\r\n        } else if (min > 1e23) {\r\n            d = 1e19;\r\n        } else if (min > 1e22) {\r\n            d = 1e18;\r\n        } else if (min > 1e21) {\r\n            d = 1e17;\r\n        } else if (min > 1e20) {\r\n            d = 1e16;\r\n        } else if (min > 1e19) {\r\n            d = 1e15;\r\n        } else if (min > 1e18) {\r\n            d = 1e14;\r\n        } else if (min > 1e17) {\r\n            d = 1e13;\r\n        } else if (min > 1e16) {\r\n            d = 1e12;\r\n        } else if (min > 1e15) {\r\n            d = 1e11;\r\n        } else {\r\n            d = 1e10;\r\n        }\r\n\r\n        (int256 a1, int256 a2, int256 b1, int256 b2) =\r\n            (int256(reserves.a1 / d), int256(reserves.a2 / d), int256(reserves.b1 / d), int256(reserves.b2 / d));\r\n\r\n        int256 a = a1 * b1 - a2 * b2;\r\n        int256 b = 2 * b1 * b2 * (a1 + a2);\r\n        int256 c = b1 * b2 * (a1 * b2 - a2 * b1);\r\n\r\n        (int256 x1, int256 x2) = calcSolutionForQuadratic(a, b, c);\r\n\r\n        // 0 < x < b1 and 0 < x < b2\r\n        require((x1 > 0 && x1 < b1 && x1 < b2) || (x2 > 0 && x2 < b1 && x2 < b2), 'Wrong input order');\r\n        amount = (x1 > 0 && x1 < b1 && x1 < b2) ? uint256(x1) * d : uint256(x2) * d;\r\n    }\r\n\r\n    /// @dev find solution of quadratic equation: ax^2 + bx + c = 0, only return the positive solution\r\n    function calcSolutionForQuadratic(\r\n        int256 a,\r\n        int256 b,\r\n        int256 c\r\n    ) public pure returns (int256 x1, int256 x2) {\r\n        int256 m = b**2 - 4 * a * c;\r\n        // m < 0 leads to complex number\r\n        require(m > 0, 'Complex number');\r\n\r\n        int256 sqrtM = int256(sqrt(uint256(m)));\r\n        x1 = (-b + sqrtM) / (2 * a);\r\n        x2 = (-b - sqrtM) / (2 * a);\r\n    }\r\n\r\n    /// @dev Newtons method for caculating square root of n\r\n    function sqrt(uint256 n) public pure returns (uint256 res) {\r\n        assert(n > 1);\r\n\r\n        // The scale factor is a crude way to turn everything into integer calcs.\r\n        // Actually do (n * 10 ^ 4) ^ (1/2)\r\n        uint256 _n = n * 10**6;\r\n        uint256 c = _n;\r\n        res = _n;\r\n\r\n        uint256 xi;\r\n        while (true) {\r\n            xi = (res + c / res) / 2;\r\n            // don't need be too precise to save gas\r\n            if (res - xi < 1000) {\r\n                break;\r\n            }\r\n            res = xi;\r\n        }\r\n        res = res / 10**3;\r\n    }\r\n\r\n     // copy from UniswapV2Library\r\n    // given an output amount of an asset and pair reserves, returns a required input amount of the other asset\r\n    function getAmountIn(\r\n        uint256 amountOut,\r\n        uint256 reserveIn,\r\n        uint256 reserveOut\r\n    ) internal pure returns (uint256 amountIn) {\r\n        require(amountOut > 0, 'UniswapV2Library: INSUFFICIENT_OUTPUT_AMOUNT');\r\n        require(reserveIn > 0 && reserveOut > 0, 'UniswapV2Library: INSUFFICIENT_LIQUIDITY');\r\n        uint256 numerator = reserveIn.mul(amountOut).mul(1000);\r\n        uint256 denominator = reserveOut.sub(amountOut).mul(997);\r\n        amountIn = (numerator / denominator).add(1);\r\n    }\r\n\r\n    // copy from UniswapV2Library\r\n    // given an input amount of an asset and pair reserves, returns the maximum output amount of the other asset\r\n    function getAmountOut(\r\n        uint256 amountIn,\r\n        uint256 reserveIn,\r\n        uint256 reserveOut\r\n    ) internal pure returns (uint256 amountOut) {\r\n        require(amountIn > 0, 'UniswapV2Library: INSUFFICIENT_INPUT_AMOUNT');\r\n        require(reserveIn > 0 && reserveOut > 0, 'UniswapV2Library: INSUFFICIENT_LIQUIDITY');\r\n        uint256 amountInWithFee = amountIn.mul(997);\r\n        uint256 numerator = amountInWithFee.mul(reserveOut);\r\n        uint256 denominator = reserveIn.mul(1000).add(amountInWithFee);\r\n        amountOut = numerator / denominator;\r\n    }\r\n\r\n}",
  "sourcePath": "C:\\Users\\mcgra\\OneDrive\\Documents\\EthereumProgramming\\Bot\\contracts\\MaximumProfitAlgorithm.sol",
  "compiler": {
    "name": "solc",
    "version": "0.6.12+commit.27d51765.Emscripten.clang"
  },
  "schemaVersion": "3.4.3",
  "updatedAt": "2021-11-14T03:46:36.923Z",
  "devdoc": {
    "kind": "dev",
    "methods": {
      "calcBorrowAmount((uint256,uint256,uint256,uint256))": {
        "details": "calculate the maximum base asset amount to borrow in order to get maximum profit during arbitrage"
      },
      "calcSolutionForQuadratic(int256,int256,int256)": {
        "details": "find solution of quadratic equation: ax^2 + bx + c = 0, only return the positive solution"
      },
      "sqrt(uint256)": {
        "details": "Newtons method for caculating square root of n"
      }
    },
    "version": 1
  },
  "userdoc": {
    "kind": "user",
    "methods": {
      "getOrderedReserves(address,address,bool)": {
        "notice": "We borrow base token by using flash swap from lower price pool and sell them to higher price pool"
      },
      "getProfit(address,address,uint256)": {
        "notice": "Calculate how much profit we can by arbitraging between two pools"
      }
    },
    "version": 1
  }
}