{
  "contractName": "TestUniswapFlashSwap",
  "abi": [
    {
      "anonymous": false,
      "inputs": [
        {
          "indexed": false,
          "internalType": "string",
          "name": "message",
          "type": "string"
        },
        {
          "indexed": false,
          "internalType": "uint256",
          "name": "val",
          "type": "uint256"
        }
      ],
      "name": "Log",
      "type": "event"
    },
    {
      "inputs": [
        {
          "internalType": "address",
          "name": "token",
          "type": "address"
        }
      ],
      "name": "baseTokensContains",
      "outputs": [
        {
          "internalType": "bool",
          "name": "hasBeenFound",
          "type": "bool"
        }
      ],
      "stateMutability": "view",
      "type": "function"
    },
    {
      "inputs": [
        {
          "internalType": "address",
          "name": "pool0",
          "type": "address"
        },
        {
          "internalType": "address",
          "name": "pool1",
          "type": "address"
        }
      ],
      "name": "isbaseTokenSmaller",
      "outputs": [
        {
          "internalType": "bool",
          "name": "baseSmaller",
          "type": "bool"
        },
        {
          "internalType": "address",
          "name": "baseToken",
          "type": "address"
        },
        {
          "internalType": "address",
          "name": "quoteToken",
          "type": "address"
        }
      ],
      "stateMutability": "view",
      "type": "function"
    },
    {
      "inputs": [
        {
          "internalType": "address",
          "name": "pool0",
          "type": "address"
        },
        {
          "internalType": "address",
          "name": "pool1",
          "type": "address"
        },
        {
          "internalType": "bool",
          "name": "baseTokenSmaller",
          "type": "bool"
        }
      ],
      "name": "getOrderedReserves",
      "outputs": [
        {
          "internalType": "address",
          "name": "lowerPool",
          "type": "address"
        },
        {
          "internalType": "address",
          "name": "higherPool",
          "type": "address"
        },
        {
          "components": [
            {
              "internalType": "uint256",
              "name": "a1",
              "type": "uint256"
            },
            {
              "internalType": "uint256",
              "name": "b1",
              "type": "uint256"
            },
            {
              "internalType": "uint256",
              "name": "a2",
              "type": "uint256"
            },
            {
              "internalType": "uint256",
              "name": "b2",
              "type": "uint256"
            }
          ],
          "internalType": "struct TestUniswapFlashSwap.OrderedReserves",
          "name": "orderedReserves",
          "type": "tuple"
        }
      ],
      "stateMutability": "nonpayable",
      "type": "function"
    },
    {
      "inputs": [
        {
          "internalType": "address",
          "name": "pool0",
          "type": "address"
        },
        {
          "internalType": "address",
          "name": "pool1",
          "type": "address"
        },
        {
          "internalType": "uint256",
          "name": "borrowAmount",
          "type": "uint256"
        }
      ],
      "name": "testFlashSwap",
      "outputs": [],
      "stateMutability": "nonpayable",
      "type": "function"
    },
    {
      "inputs": [
        {
          "internalType": "address",
          "name": "sender",
          "type": "address"
        },
        {
          "internalType": "uint256",
          "name": "amount0",
          "type": "uint256"
        },
        {
          "internalType": "uint256",
          "name": "amount1",
          "type": "uint256"
        },
        {
          "internalType": "bytes",
          "name": "data",
          "type": "bytes"
        }
      ],
      "name": "uniswapV2Call",
      "outputs": [],
      "stateMutability": "nonpayable",
      "type": "function"
    }
  ],
  "bytecode": "0x6080604052604051806060016040528073c02aaa39b223fe8d0a0e5c4f27ead9083c756cc273ffffffffffffffffffffffffffffffffffffffff1673ffffffffffffffffffffffffffffffffffffffff168152602001738a71ff29c3b1b38a4df5ae4df0948822c94abfb273ffffffffffffffffffffffffffffffffffffffff1673ffffffffffffffffffffffffffffffffffffffff16815260200173ecdeeded52ca09b1d5fb81070882ed3a8ad9913873ffffffffffffffffffffffffffffffffffffffff1673ffffffffffffffffffffffffffffffffffffffff168152506000906003620000f192919062000106565b50348015620000ff57600080fd5b50620001b4565b82805482825590600052602060002090810192821562000182579160200282015b82811115620001815782518260006101000a81548173ffffffffffffffffffffffffffffffffffffffff021916908373ffffffffffffffffffffffffffffffffffffffff1602179055509160200191906001019062000127565b5b50905062000191919062000195565b5090565b5b80821115620001b057600081600090555060010162000196565b5090565b61250180620001c46000396000f3fe608060405234801561001057600080fd5b50600436106100575760003560e01c806310d1e85c1461005c5780631a1299691461007857806321d09426146100aa5780638e6222c4146100da578063a39992d41461010c575b600080fd5b61007660048036038101906100719190611ad5565b610128565b005b610092600480360381019061008d91906119fb565b6103db565b6040516100a193929190612143565b60405180910390f35b6100c460048036038101906100bf91906119a9565b610829565b6040516100d19190612128565b60405180910390f35b6100f460048036038101906100ef9190611a37565b6108dc565b604051610103939291906120c8565b60405180910390f35b61012660048036038101906101219190611a86565b610b60565b005b3073ffffffffffffffffffffffffffffffffffffffff168573ffffffffffffffffffffffffffffffffffffffff1614610196576040517f08c379a000000000000000000000000000000000000000000000000000000000815260040161018d9061225a565b60405180910390fd5b60008085116101a557836101a7565b845b9050600083838101906101ba9190611b7e565b9050806060015173ffffffffffffffffffffffffffffffffffffffff1663a9059cbb8260200151846040518363ffffffff1660e01b81526004016101ff9291906120ff565b602060405180830381600087803b15801561021957600080fd5b505af115801561022d573d6000803e3d6000fd5b505050506040513d601f19601f820116820180604052508101906102519190611b55565b50600080826040015161026a5760008360c00151610272565b8260c0015160005b91509150826020015173ffffffffffffffffffffffffffffffffffffffff1663022c0d9f838330600067ffffffffffffffff811180156102b157600080fd5b506040519080825280601f01601f1916602001820160405280156102e45781602001600182028036833780820191505090505b506040518563ffffffff1660e01b815260040161030494939291906122d5565b600060405180830381600087803b15801561031e57600080fd5b505af1158015610332573d6000803e3d6000fd5b50505050826080015173ffffffffffffffffffffffffffffffffffffffff1663a9059cbb84600001518560a001516040518363ffffffff1660e01b815260040161037d9291906120ff565b602060405180830381600087803b15801561039757600080fd5b505af11580156103ab573d6000803e3d6000fd5b505050506040513d601f19601f820116820180604052508101906103cf9190611b55565b50505050505050505050565b60008060008373ffffffffffffffffffffffffffffffffffffffff168573ffffffffffffffffffffffffffffffffffffffff16141561044f576040517f08c379a00000000000000000000000000000000000000000000000000000000081526004016104469061221a565b60405180910390fd5b6000808673ffffffffffffffffffffffffffffffffffffffff16630dfe16816040518163ffffffff1660e01b815260040160206040518083038186803b15801561049857600080fd5b505afa1580156104ac573d6000803e3d6000fd5b505050506040513d601f19601f820116820180604052508101906104d091906119d2565b8773ffffffffffffffffffffffffffffffffffffffff1663d21220a76040518163ffffffff1660e01b815260040160206040518083038186803b15801561051657600080fd5b505afa15801561052a573d6000803e3d6000fd5b505050506040513d601f19601f8201168201806040525081019061054e91906119d2565b915091506000808773ffffffffffffffffffffffffffffffffffffffff16630dfe16816040518163ffffffff1660e01b815260040160206040518083038186803b15801561059b57600080fd5b505afa1580156105af573d6000803e3d6000fd5b505050506040513d601f19601f820116820180604052508101906105d391906119d2565b8873ffffffffffffffffffffffffffffffffffffffff1663d21220a76040518163ffffffff1660e01b815260040160206040518083038186803b15801561061957600080fd5b505afa15801561062d573d6000803e3d6000fd5b505050506040513d601f19601f8201168201806040525081019061065191906119d2565b915091508273ffffffffffffffffffffffffffffffffffffffff168473ffffffffffffffffffffffffffffffffffffffff161080156106bb57508073ffffffffffffffffffffffffffffffffffffffff168273ffffffffffffffffffffffffffffffffffffffff16105b6106fa576040517f08c379a00000000000000000000000000000000000000000000000000000000081526004016106f19061217a565b60405180910390fd5b8173ffffffffffffffffffffffffffffffffffffffff168473ffffffffffffffffffffffffffffffffffffffff1614801561076057508073ffffffffffffffffffffffffffffffffffffffff168373ffffffffffffffffffffffffffffffffffffffff16145b61079f576040517f08c379a00000000000000000000000000000000000000000000000000000000081526004016107969061227a565b60405180910390fd5b6107a884610829565b806107b857506107b783610829565b5b6107f7576040517f08c379a00000000000000000000000000000000000000000000000000000000081526004016107ee9061223a565b60405180910390fd5b61080084610829565b61080d5760008385610812565b600184845b809750819850829950505050505050509250925092565b6000806000905060005b6000805490508110156108c1578373ffffffffffffffffffffffffffffffffffffffff166000828154811061086457fe5b9060005260206000200160009054906101000a900473ffffffffffffffffffffffffffffffffffffffff1673ffffffffffffffffffffffffffffffffffffffff1614156108b457600191506108c1565b8080600101915050610833565b5081156108d25760019150506108d7565b809150505b919050565b6000806108e76116ac565b6000808773ffffffffffffffffffffffffffffffffffffffff16630902f1ac6040518163ffffffff1660e01b815260040160606040518083038186803b15801561093057600080fd5b505afa158015610944573d6000803e3d6000fd5b505050506040513d601f19601f820116820180604052508101906109689190611ba7565b506dffffffffffffffffffffffffffff1691506dffffffffffffffffffffffffffff1691506000808873ffffffffffffffffffffffffffffffffffffffff16630902f1ac6040518163ffffffff1660e01b815260040160606040518083038186803b1580156109d657600080fd5b505afa1580156109ea573d6000803e3d6000fd5b505050506040513d601f19601f82011682018060405250810190610a0e9190611ba7565b506dffffffffffffffffffffffffffff1691506dffffffffffffffffffffffffffff16915060008089610a7657610a5686610a4887611026565b61105e90919063ffffffff16565b610a7185610a6386611026565b61105e90919063ffffffff16565b610aad565b610a9185610a8388611026565b61105e90919063ffffffff16565b610aac84610a9e87611026565b61105e90919063ffffffff16565b5b91509150610ac4818361109390919063ffffffff16565b15610b0f578b8b809950819a50505089610ae15784868486610ae6565b858585855b8a6000018b6020018c6040018d6060018481525084815250848152508481525050505050610b51565b8a8c809950819a50505089610b275782848688610b2c565b838387875b8a6000018b6020018c6040018d60600184815250848152508481525084815250505050505b50505050505093509350939050565b610b686116d4565b610b7284846103db565b8360400184600001856020018373ffffffffffffffffffffffffffffffffffffffff1673ffffffffffffffffffffffffffffffffffffffff168152508373ffffffffffffffffffffffffffffffffffffffff1673ffffffffffffffffffffffffffffffffffffffff168152508315151515815250505050610bf16116ac565b610c00858584604001516108dc565b84606001856080018295508373ffffffffffffffffffffffffffffffffffffffff1673ffffffffffffffffffffffffffffffffffffffff168152508373ffffffffffffffffffffffffffffffffffffffff1673ffffffffffffffffffffffffffffffffffffffff168152505050506000826000015173ffffffffffffffffffffffffffffffffffffffff166370a08231306040518263ffffffff1660e01b8152600401610cad91906120ad565b60206040518083038186803b158015610cc557600080fd5b505afa158015610cd9573d6000803e3d6000fd5b505050506040513d601f19601f82011682018060405250810190610cfd9190611bf6565b90506000808460400151610d1357856000610d17565b6000865b915091506000610d3087866000015187602001516110a9565b90506000610d4788876060015188604001516111ba565b9050818111610d8b576040517f08c379a0000000000000000000000000000000000000000000000000000000008152600401610d829061219a565b60405180910390fd5b610d9361175d565b8760600151816000019073ffffffffffffffffffffffffffffffffffffffff16908173ffffffffffffffffffffffffffffffffffffffff16815250508760800151816020019073ffffffffffffffffffffffffffffffffffffffff16908173ffffffffffffffffffffffffffffffffffffffff168152505087604001518160400190151590811515815250508760200151816060019073ffffffffffffffffffffffffffffffffffffffff16908173ffffffffffffffffffffffffffffffffffffffff16815250508760000151816080019073ffffffffffffffffffffffffffffffffffffffff16908173ffffffffffffffffffffffffffffffffffffffff1681525050828160a0018181525050818160c0018181525050600081604051602001610ebe91906122ba565b6040516020818303038152906040529050886060015173ffffffffffffffffffffffffffffffffffffffff1663022c0d9f878730856040518563ffffffff1660e01b8152600401610f1294939291906122d5565b600060405180830381600087803b158015610f2c57600080fd5b505af1158015610f40573d6000803e3d6000fd5b505050505050505050506000836000015173ffffffffffffffffffffffffffffffffffffffff166370a08231306040518263ffffffff1660e01b8152600401610f8991906120ad565b60206040518083038186803b158015610fa157600080fd5b505afa158015610fb5573d6000803e3d6000fd5b505050506040513d601f19601f82011682018060405250810190610fd99190611bf6565b905081811161101d576040517f08c379a0000000000000000000000000000000000000000000000000000000008152600401611014906121da565b60405180910390fd5b50505050505050565b61102e6117f4565b6040518060200160405280611054670de0b6b3a7640000856112be90919063ffffffff16565b8152509050919050565b6110666117f4565b604051806020016040528061108884866000015161134490919063ffffffff16565b815250905092915050565b6000806110a0848461138e565b14905092915050565b60008084116110ed576040517f08c379a00000000000000000000000000000000000000000000000000000000081526004016110e4906121ba565b60405180910390fd5b6000831180156110fd5750600082115b61113c576040517f08c379a0000000000000000000000000000000000000000000000000000000008152600401611133906121fa565b60405180910390fd5b60006111656103e861115787876113ce90919063ffffffff16565b6113ce90919063ffffffff16565b905060006111906103e5611182888761145490919063ffffffff16565b6113ce90919063ffffffff16565b90506111af60018284816111a057fe5b0461149e90919063ffffffff16565b925050509392505050565b60008084116111fe576040517f08c379a00000000000000000000000000000000000000000000000000000000081526004016111f59061229a565b60405180910390fd5b60008311801561120e5750600082115b61124d576040517f08c379a0000000000000000000000000000000000000000000000000000000008152600401611244906121fa565b60405180910390fd5b60006112646103e5866113ce90919063ffffffff16565b9050600061127b84836113ce90919063ffffffff16565b905060006112a6836112986103e8896113ce90919063ffffffff16565b61149e90919063ffffffff16565b90508082816112b157fe5b0493505050509392505050565b6000808314156112d1576000905061133e565b60008284029050828482816112e257fe5b0414611339576040517f08c379a00000000000000000000000000000000000000000000000000000000081526004018080602001828103825260218152602001806124ab6021913960400191505060405180910390fd5b809150505b92915050565b600061138683836040518060400160405280601a81526020017f536166654d6174683a206469766973696f6e206279207a65726f000000000000815250611526565b905092915050565b60008160000151836000015114156113a957600190506113c8565b81600001518360000151116113bf5760006113c2565b60025b60ff1690505b92915050565b6000808314156113e1576000905061144e565b60008284029050828482816113f257fe5b0414611449576040517f08c379a00000000000000000000000000000000000000000000000000000000081526004018080602001828103825260218152602001806124ab6021913960400191505060405180910390fd5b809150505b92915050565b600061149683836040518060400160405280601e81526020017f536166654d6174683a207375627472616374696f6e206f766572666c6f7700008152506115ec565b905092915050565b60008082840190508381101561151c576040517f08c379a000000000000000000000000000000000000000000000000000000000815260040180806020018281038252601b8152602001807f536166654d6174683a206164646974696f6e206f766572666c6f77000000000081525060200191505060405180910390fd5b8091505092915050565b600080831182906115d2576040517f08c379a00000000000000000000000000000000000000000000000000000000081526004018080602001828103825283818151815260200191508051906020019080838360005b8381101561159757808201518184015260208101905061157c565b50505050905090810190601f1680156115c45780820380516001836020036101000a031916815260200191505b509250505060405180910390fd5b5060008385816115de57fe5b049050809150509392505050565b6000838311158290611699576040517f08c379a00000000000000000000000000000000000000000000000000000000081526004018080602001828103825283818151815260200191508051906020019080838360005b8381101561165e578082015181840152602081019050611643565b50505050905090810190601f16801561168b5780820380516001836020036101000a031916815260200191505b509250505060405180910390fd5b5060008385039050809150509392505050565b6040518060800160405280600081526020016000815260200160008152602001600081525090565b6040518060a00160405280600073ffffffffffffffffffffffffffffffffffffffff168152602001600073ffffffffffffffffffffffffffffffffffffffff168152602001600015158152602001600073ffffffffffffffffffffffffffffffffffffffff168152602001600073ffffffffffffffffffffffffffffffffffffffff1681525090565b6040518060e00160405280600073ffffffffffffffffffffffffffffffffffffffff168152602001600073ffffffffffffffffffffffffffffffffffffffff168152602001600015158152602001600073ffffffffffffffffffffffffffffffffffffffff168152602001600073ffffffffffffffffffffffffffffffffffffffff16815260200160008152602001600081525090565b6040518060200160405280600081525090565b60008135905061181681612437565b92915050565b60008151905061182b81612437565b92915050565b6000813590506118408161244e565b92915050565b6000815190506118558161244e565b92915050565b60008083601f84011261186d57600080fd5b8235905067ffffffffffffffff81111561188657600080fd5b60208301915083600182028301111561189e57600080fd5b9250929050565b600060e082840312156118b757600080fd5b6118c160e0612321565b905060006118d184828501611807565b60008301525060206118e584828501611807565b60208301525060406118f984828501611831565b604083015250606061190d84828501611807565b606083015250608061192184828501611807565b60808301525060a06119358482850161196a565b60a08301525060c06119498482850161196a565b60c08301525092915050565b60008151905061196481612465565b92915050565b6000813590506119798161247c565b92915050565b60008151905061198e8161247c565b92915050565b6000815190506119a381612493565b92915050565b6000602082840312156119bb57600080fd5b60006119c984828501611807565b91505092915050565b6000602082840312156119e457600080fd5b60006119f28482850161181c565b91505092915050565b60008060408385031215611a0e57600080fd5b6000611a1c85828601611807565b9250506020611a2d85828601611807565b9150509250929050565b600080600060608486031215611a4c57600080fd5b6000611a5a86828701611807565b9350506020611a6b86828701611807565b9250506040611a7c86828701611831565b9150509250925092565b600080600060608486031215611a9b57600080fd5b6000611aa986828701611807565b9350506020611aba86828701611807565b9250506040611acb8682870161196a565b9150509250925092565b600080600080600060808688031215611aed57600080fd5b6000611afb88828901611807565b9550506020611b0c8882890161196a565b9450506040611b1d8882890161196a565b935050606086013567ffffffffffffffff811115611b3a57600080fd5b611b468882890161185b565b92509250509295509295909350565b600060208284031215611b6757600080fd5b6000611b7584828501611846565b91505092915050565b600060e08284031215611b9057600080fd5b6000611b9e848285016118a5565b91505092915050565b600080600060608486031215611bbc57600080fd5b6000611bca86828701611955565b9350506020611bdb86828701611955565b9250506040611bec86828701611994565b9150509250925092565b600060208284031215611c0857600080fd5b6000611c168482850161197f565b91505092915050565b611c288161237f565b82525050565b611c378161237f565b82525050565b611c4681612391565b82525050565b611c5581612391565b82525050565b6000611c6682612352565b611c70818561235d565b9350611c808185602086016123f1565b611c8981612426565b840191505092915050565b6000611ca1601d8361236e565b91507f4e6f6e207374616e6461726420756e697377617020414d4d20706169720000006000830152602082019050919050565b6000611ce1601b8361236e565b91507f417262697472616765206661696c65642c206e6f2070726f66697400000000006000830152602082019050919050565b6000611d21602c8361236e565b91507f556e697377617056324c6962726172793a20494e53554646494349454e545f4f60008301527f55545055545f414d4f554e5400000000000000000000000000000000000000006020830152604082019050919050565b6000611d8760248361236e565b91507f54726164652077696c6c206c6f6f736520796f75206d6f6e657920726576657260008301527f74696e67000000000000000000000000000000000000000000000000000000006020830152604082019050919050565b6000611ded60288361236e565b91507f556e697377617056324c6962726172793a20494e53554646494349454e545f4c60008301527f49515549444954590000000000000000000000000000000000000000000000006020830152604082019050919050565b6000611e5360118361236e565b91507f53616d65207061697220616464726573730000000000000000000000000000006000830152602082019050919050565b6000611e9360158361236e565b91507f4e6f206261736520746f6b656e20696e207061697200000000000000000000006000830152602082019050919050565b6000611ed360208361236e565b91507f4e6f74206265696e672073656e742066726f6d2074687320636f6e74726163746000830152602082019050919050565b6000611f1360178361236e565b91507f526571756972652073616d6520746f6b656e20706169720000000000000000006000830152602082019050919050565b6000611f53602b8361236e565b91507f556e697377617056324c6962726172793a20494e53554646494349454e545f4960008301527f4e5055545f414d4f554e540000000000000000000000000000000000000000006020830152604082019050919050565b60e082016000820151611fc26000850182611c1f565b506020820151611fd56020850182611c1f565b506040820151611fe86040850182611c3d565b506060820151611ffb6060850182611c1f565b50608082015161200e6080850182611c1f565b5060a082015161202160a085018261208f565b5060c082015161203460c085018261208f565b50505050565b608082016000820151612050600085018261208f565b506020820151612063602085018261208f565b506040820151612076604085018261208f565b506060820151612089606085018261208f565b50505050565b612098816123d7565b82525050565b6120a7816123d7565b82525050565b60006020820190506120c26000830184611c2e565b92915050565b600060c0820190506120dd6000830186611c2e565b6120ea6020830185611c2e565b6120f7604083018461203a565b949350505050565b60006040820190506121146000830185611c2e565b612121602083018461209e565b9392505050565b600060208201905061213d6000830184611c4c565b92915050565b60006060820190506121586000830186611c4c565b6121656020830185611c2e565b6121726040830184611c2e565b949350505050565b6000602082019050818103600083015261219381611c94565b9050919050565b600060208201905081810360008301526121b381611cd4565b9050919050565b600060208201905081810360008301526121d381611d14565b9050919050565b600060208201905081810360008301526121f381611d7a565b9050919050565b6000602082019050818103600083015261221381611de0565b9050919050565b6000602082019050818103600083015261223381611e46565b9050919050565b6000602082019050818103600083015261225381611e86565b9050919050565b6000602082019050818103600083015261227381611ec6565b9050919050565b6000602082019050818103600083015261229381611f06565b9050919050565b600060208201905081810360008301526122b381611f46565b9050919050565b600060e0820190506122cf6000830184611fac565b92915050565b60006080820190506122ea600083018761209e565b6122f7602083018661209e565b6123046040830185611c2e565b81810360608301526123168184611c5b565b905095945050505050565b6000604051905081810181811067ffffffffffffffff8211171561234857612347612424565b5b8060405250919050565b600081519050919050565b600082825260208201905092915050565b600082825260208201905092915050565b600061238a826123b7565b9050919050565b60008115159050919050565b60006dffffffffffffffffffffffffffff82169050919050565b600073ffffffffffffffffffffffffffffffffffffffff82169050919050565b6000819050919050565b600063ffffffff82169050919050565b60005b8381101561240f5780820151818401526020810190506123f4565b8381111561241e576000848401525b50505050565bfe5b6000601f19601f8301169050919050565b6124408161237f565b811461244b57600080fd5b50565b61245781612391565b811461246257600080fd5b50565b61246e8161239d565b811461247957600080fd5b50565b612485816123d7565b811461249057600080fd5b50565b61249c816123e1565b81146124a757600080fd5b5056fe536166654d6174683a206d756c7469706c69636174696f6e206f766572666c6f77a26469706673582212209e01605907191811db8cf7d010255d8dac1b36c062c29457837cdf49c9dc1aba64736f6c63430007060033",
  "immutableReferences": {},
  "source": "// SPDX-License-Identifier: MIT\r\npragma solidity ^0.7.0;\r\npragma experimental ABIEncoderV2;\r\n\r\nimport './utils/UniswapV2Library.sol';\r\nimport './interfaces/IUniswapV2Router02.sol';\r\nimport './interfaces/IUniswapV2Pair.sol';\r\nimport './interfaces/IUniswapV2Factory.sol';\r\nimport \"./interfaces/IERC20.sol\";\r\n// import \"./interfaces/Uniswap.sol\";\r\nimport '@openzeppelin/contracts/utils/structs/EnumerableSet.sol';\r\n// import 'hardhat/console.sol';\r\nimport \"../node_modules//@openzeppelin/contracts/utils/math/SafeMath.sol\";\r\nimport './utils/Decimal.sol';\r\nimport \"../contracts/utils/SafeMathCopy.sol\";\r\n\r\ninterface IUniswapV2Callee {\r\n  function uniswapV2Call(\r\n    address sender,\r\n    uint amount0,\r\n    uint amount1,\r\n    bytes calldata data\r\n  ) external;\r\n}\r\n\r\n\r\n// https://uniswap.org/docs/v2/smart-contracts\r\n\r\n\r\n\r\ncontract TestUniswapFlashSwap is IUniswapV2Callee {\r\n\r\n    // address permissionedPairAddress  = address(1);\r\n    using Decimal for Decimal.D256;\r\n    using SafeMath for uint256;\r\n    // using SafeERC20 for IERC20;\r\n    using EnumerableSet for EnumerableSet.AddressSet;\r\n\r\n    struct ArbitrageInfo {\r\n\r\n        address baseToken;\r\n        address quoteToken;\r\n        bool baseTokenSmaller;\r\n        address lowerPool;\r\n        address higherPool;\r\n    }\r\n\r\n    struct CallbackData {\r\n\r\n        address debtPool;\r\n        address targetPool;\r\n        bool debtTokenSmaller;\r\n        address borrowedToken;\r\n        address debtToken;\r\n        uint256 debtAmount;\r\n        uint256 debtTokenOutAmount;\r\n    }\r\n\r\n    struct OrderedReserves {\r\n        uint256 a1; // base asset\r\n        uint256 b1;\r\n        uint256 a2;\r\n        uint256 b2;\r\n    }\r\n\r\n    address[] baseTokens = [0xC02aaA39b223FE8D0A0e5C4F27eAD9083C756Cc2, 0x8A71fF29c3b1B38A4Df5aE4DF0948822c94AbfB2, 0xECdEEded52Ca09b1d5fb81070882ED3A8AD99138];\r\n\r\n    // permissionedPairAddress = address(1);\r\n  // Uniswap V2 router\r\n  // 0x7a250d5630B4cF539739dF2C5dAcb4c659F2488D\r\n  address private constant WETH = 0xC02aaA39b223FE8D0A0e5C4F27eAD9083C756Cc2;\r\n  // Uniswap V2 factory\r\n  address private constant FACTORY = 0x5C69bEe701ef814a2B6a3EDD4B1652CB9cc5aA6f;\r\n\r\n  event Log(string message, uint val);\r\n\r\n  function baseTokensContains(address token) public view returns (bool hasBeenFound) {\r\n        \r\n        bool hasbeenFound = false;\r\n        for (uint i = 0; i < baseTokens.length; i++) {\r\n\r\n            if(baseTokens[i] == token) {\r\n\r\n                hasbeenFound = true;\r\n                break;\r\n            }\r\n        }\r\n\r\n        if (hasBeenFound) {\r\n\r\n            return true;\r\n        }\r\n\r\n        return hasbeenFound;\r\n    }\r\n\r\n    function isbaseTokenSmaller(address pool0, address pool1)\r\n        public\r\n        view\r\n        returns (\r\n            bool baseSmaller,\r\n            address baseToken,\r\n            address quoteToken\r\n        )\r\n    {\r\n        require(pool0 != pool1, 'Same pair address');\r\n        (address pool0Token0, address pool0Token1) = (IUniswapV2Pair(pool0).token0(), IUniswapV2Pair(pool0).token1());\r\n        (address pool1Token0, address pool1Token1) = (IUniswapV2Pair(pool1).token0(), IUniswapV2Pair(pool1).token1());\r\n        require(pool0Token0 < pool0Token1 && pool1Token0 < pool1Token1, 'Non standard uniswap AMM pair');\r\n        require(pool0Token0 == pool1Token0 && pool0Token1 == pool1Token1, 'Require same token pair');\r\n        require(baseTokensContains(pool0Token0) || baseTokensContains(pool0Token1), 'No base token in pair');\r\n\r\n        (baseSmaller, baseToken, quoteToken) = baseTokensContains(pool0Token0)\r\n            ? (true, pool0Token0, pool0Token1)\r\n            : (false, pool0Token1, pool0Token0);\r\n    }\r\n\r\n    /// We borrow base token by using flash swap from lower price pool and sell them to higher price pool\r\n    function getOrderedReserves(\r\n        address pool0,\r\n        address pool1,\r\n        bool baseTokenSmaller\r\n    )\r\n        public\r\n        returns (\r\n            address lowerPool,\r\n            address higherPool,\r\n            OrderedReserves memory orderedReserves\r\n        )\r\n    {\r\n        (uint256 pool0Reserve0, uint256 pool0Reserve1, ) = IUniswapV2Pair(pool0).getReserves();\r\n        (uint256 pool1Reserve0, uint256 pool1Reserve1, ) = IUniswapV2Pair(pool1).getReserves();\r\n\r\n        // Calculate the price denominated in quote asset token\r\n        (Decimal.D256 memory price0, Decimal.D256 memory price1) =\r\n            baseTokenSmaller\r\n                ? (Decimal.from(pool0Reserve0).div(pool0Reserve1), Decimal.from(pool1Reserve0).div(pool1Reserve1))\r\n                : (Decimal.from(pool0Reserve1).div(pool0Reserve0), Decimal.from(pool1Reserve1).div(pool1Reserve0));\r\n\r\n        // get a1, b1, a2, b2 with following rule:\r\n        // 1. (a1, b1) represents the pool with lower price, denominated in quote asset token\r\n        // 2. (a1, a2) are the base tokens in two pools\r\n        if (price0.lessThan(price1)) {\r\n            (lowerPool, higherPool) = (pool0, pool1);\r\n            (orderedReserves.a1, orderedReserves.b1, orderedReserves.a2, orderedReserves.b2) = baseTokenSmaller\r\n                ? (pool0Reserve0, pool0Reserve1, pool1Reserve0, pool1Reserve1)\r\n                : (pool0Reserve1, pool0Reserve0, pool1Reserve1, pool1Reserve0);\r\n        } else {\r\n            (lowerPool, higherPool) = (pool1, pool0);\r\n            (orderedReserves.a1, orderedReserves.b1, orderedReserves.a2, orderedReserves.b2) = baseTokenSmaller\r\n                ? (pool1Reserve0, pool1Reserve1, pool0Reserve0, pool0Reserve1)\r\n                : (pool1Reserve1, pool1Reserve0, pool0Reserve1, pool0Reserve0);\r\n        }\r\n        // console.log('Borrow from pool:', lowerPool);\r\n        // console.log('Sell to pool:', higherPool);\r\n    }\r\n\r\n  function testFlashSwap(address pool0, address pool1, uint256 borrowAmount) external {\r\n    ArbitrageInfo memory info;\r\n    (info.baseTokenSmaller, info.baseToken, info.quoteToken) = isbaseTokenSmaller(pool0, pool1);\r\n\r\n    OrderedReserves memory orderedReserves;\r\n    (info.lowerPool, info.higherPool, orderedReserves) = getOrderedReserves(pool0, pool1, info.baseTokenSmaller);\r\n\r\n    // permissionedPairAddress  = info.lowerPool;\r\n\r\n    uint256 balanceBefore = IERC20(info.baseToken).balanceOf(address(this));\r\n\r\n    {\r\n        // uint256 borrowAmount = 10**18;\r\n        (uint256 amount0Out, uint256 amount1Out) = info.baseTokenSmaller ? (uint256(0), borrowAmount) : (borrowAmount, uint256(0));\r\n\r\n        uint256 debtAmount = getAmountIn(borrowAmount, orderedReserves.a1, orderedReserves.b1);\r\n\r\n        uint256 baseTokenOutAmount = getAmountOut(borrowAmount, orderedReserves.b2, orderedReserves.a2);\r\n        require(baseTokenOutAmount> debtAmount, \"Arbitrage failed, no profit\");\r\n\r\n\r\n        CallbackData memory callbackData;\r\n        callbackData.debtPool = info.lowerPool;\r\n        callbackData.targetPool = info.higherPool;\r\n        callbackData.debtTokenSmaller = info.baseTokenSmaller;\r\n        callbackData.borrowedToken = info.quoteToken;\r\n        callbackData.debtToken = info.baseToken;\r\n        callbackData.debtAmount = debtAmount;\r\n        callbackData.debtTokenOutAmount = baseTokenOutAmount;\r\n\r\n        bytes memory data = abi.encode(callbackData);\r\n        IUniswapV2Pair(info.lowerPool).swap(amount0Out, amount1Out, address(this), data);\r\n    }\r\n\r\n    uint256 balanceAfter = IERC20(info.baseToken).balanceOf(address(this));\r\n    require(balanceAfter > balanceBefore, \"Trade will loose you money reverting\");\r\n\r\n    // if (info.baseToken == WETH) {\r\n\r\n    //     IWETH(info.baseToken).withdraw(balanceAfter);\r\n    // }\r\n\r\n    // permissionedPairAddress = address(1)\r\n  }\r\n\r\n  // called by pair contract\r\n  function uniswapV2Call(\r\n    address sender,\r\n    uint amount0,\r\n    uint amount1,\r\n    bytes calldata data\r\n  ) external override {\r\n    // require(msg.sender == permissionedPairAddress, \"Non permissioned address call\");\r\n    require(sender == address(this), \"Not being sent from ths contract\");\r\n\r\n    uint256 borrowedAmount = amount0 > 0 ? amount0 : amount1;\r\n    CallbackData memory info = abi.decode(data, (CallbackData));\r\n\r\n    IERC20(info.borrowedToken).transfer(info.targetPool, borrowedAmount);\r\n\r\n    (uint256 amount0Out, uint256 amount1Out) = info.debtTokenSmaller ? (info.debtTokenOutAmount, uint256(0)) : (uint256(0), info.debtTokenOutAmount);\r\n    IUniswapV2Pair(info.targetPool).swap(amount0Out, amount1Out, address(this), new bytes(0));\r\n\r\n    IERC20(info.debtToken).transfer(info.debtPool, info.debtAmount);\r\n  }\r\n\r\n    // copy from UniswapV2Library\r\n    // given an output amount of an asset and pair reserves, returns a required input amount of the other asset\r\n    function getAmountIn(\r\n        uint256 amountOut,\r\n        uint256 reserveIn,\r\n        uint256 reserveOut\r\n    ) internal pure returns (uint256 amountIn) {\r\n        require(amountOut > 0, 'UniswapV2Library: INSUFFICIENT_OUTPUT_AMOUNT');\r\n        require(reserveIn > 0 && reserveOut > 0, 'UniswapV2Library: INSUFFICIENT_LIQUIDITY');\r\n        uint256 numerator = reserveIn.mul(amountOut).mul(1000);\r\n        uint256 denominator = reserveOut.sub(amountOut).mul(997);\r\n        amountIn = (numerator / denominator).add(1);\r\n    }\r\n\r\n    // copy from UniswapV2Library\r\n    // given an input amount of an asset and pair reserves, returns the maximum output amount of the other asset\r\n    function getAmountOut(\r\n        uint256 amountIn,\r\n        uint256 reserveIn,\r\n        uint256 reserveOut\r\n    ) internal pure returns (uint256 amountOut) {\r\n        require(amountIn > 0, 'UniswapV2Library: INSUFFICIENT_INPUT_AMOUNT');\r\n        require(reserveIn > 0 && reserveOut > 0, 'UniswapV2Library: INSUFFICIENT_LIQUIDITY');\r\n        uint256 amountInWithFee = amountIn.mul(997);\r\n        uint256 numerator = amountInWithFee.mul(reserveOut);\r\n        uint256 denominator = reserveIn.mul(1000).add(amountInWithFee);\r\n        amountOut = numerator / denominator;\r\n    }\r\n\r\n}\r\n",
  "sourcePath": "C:\\Users\\mcgra\\OneDrive\\Documents\\EthereumProgramming\\Bot\\contracts\\uniswapflash.sol",
  "compiler": {
    "name": "solc",
    "version": "0.7.6+commit.7338295f.Emscripten.clang"
  },
  "schemaVersion": "3.4.3",
  "updatedAt": "2021-11-15T13:02:16.935Z",
  "devdoc": {
    "kind": "dev",
    "methods": {},
    "version": 1
  },
  "userdoc": {
    "kind": "user",
    "methods": {
      "getOrderedReserves(address,address,bool)": {
        "notice": "We borrow base token by using flash swap from lower price pool and sell them to higher price pool"
      }
    },
    "version": 1
  }
}