{
  "contractName": "TradeOrder",
  "abi": [
    {
      "inputs": [
        {
          "internalType": "address",
          "name": "token",
          "type": "address"
        }
      ],
      "name": "baseTokensContains",
      "outputs": [
        {
          "internalType": "bool",
          "name": "hasBeenFound",
          "type": "bool"
        }
      ],
      "stateMutability": "view",
      "type": "function"
    },
    {
      "inputs": [
        {
          "internalType": "address",
          "name": "token",
          "type": "address"
        }
      ],
      "name": "addBaseToken",
      "outputs": [],
      "stateMutability": "nonpayable",
      "type": "function"
    },
    {
      "inputs": [
        {
          "internalType": "address",
          "name": "token",
          "type": "address"
        }
      ],
      "name": "deleteBaseToken",
      "outputs": [],
      "stateMutability": "nonpayable",
      "type": "function"
    },
    {
      "inputs": [],
      "name": "getBaseTokens",
      "outputs": [
        {
          "internalType": "address[]",
          "name": "",
          "type": "address[]"
        }
      ],
      "stateMutability": "nonpayable",
      "type": "function"
    },
    {
      "inputs": [
        {
          "internalType": "address",
          "name": "pool0",
          "type": "address"
        },
        {
          "internalType": "address",
          "name": "pool1",
          "type": "address"
        }
      ],
      "name": "isbaseTokenSmaller",
      "outputs": [
        {
          "internalType": "bool",
          "name": "baseSmaller",
          "type": "bool"
        },
        {
          "internalType": "address",
          "name": "baseToken",
          "type": "address"
        },
        {
          "internalType": "address",
          "name": "quoteToken",
          "type": "address"
        }
      ],
      "stateMutability": "view",
      "type": "function"
    },
    {
      "inputs": [
        {
          "internalType": "address",
          "name": "pool0",
          "type": "address"
        },
        {
          "internalType": "address",
          "name": "pool1",
          "type": "address"
        },
        {
          "internalType": "bool",
          "name": "baseTokenSmaller",
          "type": "bool"
        }
      ],
      "name": "getOrderedReserves",
      "outputs": [
        {
          "internalType": "address",
          "name": "lowerPool",
          "type": "address"
        },
        {
          "internalType": "address",
          "name": "higherPool",
          "type": "address"
        },
        {
          "components": [
            {
              "internalType": "uint256",
              "name": "a1",
              "type": "uint256"
            },
            {
              "internalType": "uint256",
              "name": "b1",
              "type": "uint256"
            },
            {
              "internalType": "uint256",
              "name": "a2",
              "type": "uint256"
            },
            {
              "internalType": "uint256",
              "name": "b2",
              "type": "uint256"
            }
          ],
          "internalType": "struct TradeOrder.orderedReserves",
          "name": "orderedReserve",
          "type": "tuple"
        }
      ],
      "stateMutability": "nonpayable",
      "type": "function"
    }
  ],
  "bytecode": "0x6080604052604051806060016040528073c02aaa39b223fe8d0a0e5c4f27ead9083c756cc273ffffffffffffffffffffffffffffffffffffffff1673ffffffffffffffffffffffffffffffffffffffff16815260200173bb91175307dd50bdebcfe82f2f343bbef607e65973ffffffffffffffffffffffffffffffffffffffff1673ffffffffffffffffffffffffffffffffffffffff168152602001737d7224b9979343de24fd6ba2eb3f73f528caa6cf73ffffffffffffffffffffffffffffffffffffffff1673ffffffffffffffffffffffffffffffffffffffff1681525060009060036100ef929190610102565b503480156100fc57600080fd5b506101a9565b82805482825590600052602060002090810192821561017b579160200282015b8281111561017a5782518260006101000a81548173ffffffffffffffffffffffffffffffffffffffff021916908373ffffffffffffffffffffffffffffffffffffffff16021790555091602001919060010190610122565b5b509050610188919061018c565b5090565b5b808211156101a557600081600090555060010161018d565b5090565b611311806101b86000396000f3fe608060405234801561001057600080fd5b50600436106100625760003560e01c80631a1299691461006757806321d094261461009957806383e280d9146100c95780638e6222c4146100e5578063bed64c2f14610117578063f0a43e9c14610135575b600080fd5b610081600480360381019061007c9190610d96565b610151565b604051610090939291906110eb565b60405180910390f35b6100b360048036038101906100ae9190610d44565b61059f565b6040516100c091906110d0565b60405180910390f35b6100e360048036038101906100de9190610d44565b610652565b005b6100ff60048036038101906100fa9190610dd2565b6106f2565b60405161010e93929190611077565b60405180910390f35b61011f610976565b60405161012c91906110ae565b60405180910390f35b61014f600480360381019061014a9190610d44565b610a04565b005b60008060008373ffffffffffffffffffffffffffffffffffffffff168573ffffffffffffffffffffffffffffffffffffffff1614156101c5576040517f08c379a00000000000000000000000000000000000000000000000000000000081526004016101bc90611142565b60405180910390fd5b6000808673ffffffffffffffffffffffffffffffffffffffff16630dfe16816040518163ffffffff1660e01b815260040160206040518083038186803b15801561020e57600080fd5b505afa158015610222573d6000803e3d6000fd5b505050506040513d601f19601f820116820180604052508101906102469190610d6d565b8773ffffffffffffffffffffffffffffffffffffffff1663d21220a76040518163ffffffff1660e01b815260040160206040518083038186803b15801561028c57600080fd5b505afa1580156102a0573d6000803e3d6000fd5b505050506040513d601f19601f820116820180604052508101906102c49190610d6d565b915091506000808773ffffffffffffffffffffffffffffffffffffffff16630dfe16816040518163ffffffff1660e01b815260040160206040518083038186803b15801561031157600080fd5b505afa158015610325573d6000803e3d6000fd5b505050506040513d601f19601f820116820180604052508101906103499190610d6d565b8873ffffffffffffffffffffffffffffffffffffffff1663d21220a76040518163ffffffff1660e01b815260040160206040518083038186803b15801561038f57600080fd5b505afa1580156103a3573d6000803e3d6000fd5b505050506040513d601f19601f820116820180604052508101906103c79190610d6d565b915091508273ffffffffffffffffffffffffffffffffffffffff168473ffffffffffffffffffffffffffffffffffffffff1610801561043157508073ffffffffffffffffffffffffffffffffffffffff168273ffffffffffffffffffffffffffffffffffffffff16105b610470576040517f08c379a000000000000000000000000000000000000000000000000000000000815260040161046790611122565b60405180910390fd5b8173ffffffffffffffffffffffffffffffffffffffff168473ffffffffffffffffffffffffffffffffffffffff161480156104d657508073ffffffffffffffffffffffffffffffffffffffff168373ffffffffffffffffffffffffffffffffffffffff16145b610515576040517f08c379a000000000000000000000000000000000000000000000000000000000815260040161050c90611182565b60405180910390fd5b61051e8461059f565b8061052e575061052d8361059f565b5b61056d576040517f08c379a000000000000000000000000000000000000000000000000000000000815260040161056490611162565b60405180910390fd5b6105768461059f565b6105835760008385610588565b600184845b809750819850829950505050505050509250925092565b6000806000905060005b600080549050811015610637578373ffffffffffffffffffffffffffffffffffffffff16600082815481106105da57fe5b9060005260206000200160009054906101000a900473ffffffffffffffffffffffffffffffffffffffff1673ffffffffffffffffffffffffffffffffffffffff16141561062a5760019150610637565b80806001019150506105a9565b50811561064857600191505061064d565b809150505b919050565b600073ffffffffffffffffffffffffffffffffffffffff168173ffffffffffffffffffffffffffffffffffffffff16141561068c57600080fd5b6000819080600181540180825580915050600190039060005260206000200160009091909190916101000a81548173ffffffffffffffffffffffffffffffffffffffff021916908373ffffffffffffffffffffffffffffffffffffffff16021790555050565b6000806106fd610ca0565b6000808773ffffffffffffffffffffffffffffffffffffffff16630902f1ac6040518163ffffffff1660e01b815260040160606040518083038186803b15801561074657600080fd5b505afa15801561075a573d6000803e3d6000fd5b505050506040513d601f19601f8201168201806040525081019061077e9190610e21565b506dffffffffffffffffffffffffffff1691506dffffffffffffffffffffffffffff1691506000808873ffffffffffffffffffffffffffffffffffffffff16630902f1ac6040518163ffffffff1660e01b815260040160606040518083038186803b1580156107ec57600080fd5b505afa158015610800573d6000803e3d6000fd5b505050506040513d601f19601f820116820180604052508101906108249190610e21565b506dffffffffffffffffffffffffffff1691506dffffffffffffffffffffffffffff1691506000808961088c5761086c8661085e87610a47565b610a7f90919063ffffffff16565b6108878561087986610a47565b610a7f90919063ffffffff16565b6108c3565b6108a78561089988610a47565b610a7f90919063ffffffff16565b6108c2846108b487610a47565b610a7f90919063ffffffff16565b5b915091506108da8183610ab490919063ffffffff16565b15610925578b8b809950819a505050896108f757848684866108fc565b858585855b8a6000018b6020018c6040018d6060018481525084815250848152508481525050505050610967565b8a8c809950819a5050508961093d5782848688610942565b838387875b8a6000018b6020018c6040018d60600184815250848152508481525084815250505050505b50505050505093509350939050565b606060008054806020026020016040519081016040528092919081815260200182805480156109fa57602002820191906000526020600020905b8160009054906101000a900473ffffffffffffffffffffffffffffffffffffffff1673ffffffffffffffffffffffffffffffffffffffff16815260200190600101908083116109b0575b5050505050905090565b6000805480610a0f57fe5b6001900381819060005260206000200160006101000a81549073ffffffffffffffffffffffffffffffffffffffff0219169055905550565b610a4f610cc8565b6040518060200160405280610a75670de0b6b3a764000085610aca90919063ffffffff16565b8152509050919050565b610a87610cc8565b6040518060200160405280610aa9848660000151610b5090919063ffffffff16565b815250905092915050565b600080610ac18484610b9a565b14905092915050565b600080831415610add5760009050610b4a565b6000828402905082848281610aee57fe5b0414610b45576040517f08c379a00000000000000000000000000000000000000000000000000000000081526004018080602001828103825260218152602001806112bb6021913960400191505060405180910390fd5b809150505b92915050565b6000610b9283836040518060400160405280601a81526020017f536166654d6174683a206469766973696f6e206279207a65726f000000000000815250610bda565b905092915050565b6000816000015183600001511415610bb55760019050610bd4565b8160000151836000015111610bcb576000610bce565b60025b60ff1690505b92915050565b60008083118290610c86576040517f08c379a00000000000000000000000000000000000000000000000000000000081526004018080602001828103825283818151815260200191508051906020019080838360005b83811015610c4b578082015181840152602081019050610c30565b50505050905090810190601f168015610c785780820380516001836020036101000a031916815260200191505b509250505060405180910390fd5b506000838581610c9257fe5b049050809150509392505050565b6040518060800160405280600081526020016000815260200160008152602001600081525090565b6040518060200160405280600081525090565b600081359050610cea8161125e565b92915050565b600081519050610cff8161125e565b92915050565b600081359050610d1481611275565b92915050565b600081519050610d298161128c565b92915050565b600081519050610d3e816112a3565b92915050565b600060208284031215610d5657600080fd5b6000610d6484828501610cdb565b91505092915050565b600060208284031215610d7f57600080fd5b6000610d8d84828501610cf0565b91505092915050565b60008060408385031215610da957600080fd5b6000610db785828601610cdb565b9250506020610dc885828601610cdb565b9150509250929050565b600080600060608486031215610de757600080fd5b6000610df586828701610cdb565b9350506020610e0686828701610cdb565b9250506040610e1786828701610d05565b9150509250925092565b600080600060608486031215610e3657600080fd5b6000610e4486828701610d1a565b9350506020610e5586828701610d1a565b9250506040610e6686828701610d2f565b9150509250925092565b6000610e7c8383610e88565b60208301905092915050565b610e91816111ec565b82525050565b610ea0816111ec565b82525050565b6000610eb1826111b2565b610ebb81856111ca565b9350610ec6836111a2565b8060005b83811015610ef7578151610ede8882610e70565b9750610ee9836111bd565b925050600181019050610eca565b5085935050505092915050565b610f0d816111fe565b82525050565b6000610f20601d836111db565b91507f4e6f6e207374616e6461726420756e697377617020414d4d20706169720000006000830152602082019050919050565b6000610f606011836111db565b91507f53616d65207061697220616464726573730000000000000000000000000000006000830152602082019050919050565b6000610fa06015836111db565b91507f4e6f206261736520746f6b656e20696e207061697200000000000000000000006000830152602082019050919050565b6000610fe06017836111db565b91507f526571756972652073616d6520746f6b656e20706169720000000000000000006000830152602082019050919050565b6080820160008201516110296000850182611068565b50602082015161103c6020850182611068565b50604082015161104f6040850182611068565b5060608201516110626060850182611068565b50505050565b61107181611244565b82525050565b600060c08201905061108c6000830186610e97565b6110996020830185610e97565b6110a66040830184611013565b949350505050565b600060208201905081810360008301526110c88184610ea6565b905092915050565b60006020820190506110e56000830184610f04565b92915050565b60006060820190506111006000830186610f04565b61110d6020830185610e97565b61111a6040830184610e97565b949350505050565b6000602082019050818103600083015261113b81610f13565b9050919050565b6000602082019050818103600083015261115b81610f53565b9050919050565b6000602082019050818103600083015261117b81610f93565b9050919050565b6000602082019050818103600083015261119b81610fd3565b9050919050565b6000819050602082019050919050565b600081519050919050565b6000602082019050919050565b600082825260208201905092915050565b600082825260208201905092915050565b60006111f782611224565b9050919050565b60008115159050919050565b60006dffffffffffffffffffffffffffff82169050919050565b600073ffffffffffffffffffffffffffffffffffffffff82169050919050565b6000819050919050565b600063ffffffff82169050919050565b611267816111ec565b811461127257600080fd5b50565b61127e816111fe565b811461128957600080fd5b50565b6112958161120a565b81146112a057600080fd5b50565b6112ac8161124e565b81146112b757600080fd5b5056fe536166654d6174683a206d756c7469706c69636174696f6e206f766572666c6f77a26469706673582212209a7dc1c95b76df655c2e6850c426e50c775c18372b2a33a979a7b14c0978e84164736f6c63430007060033",
  "immutableReferences": {},
  "source": "//SPDX-License-Identifier: Unlicense\r\npragma solidity ^0.7.0;\r\npragma experimental ABIEncoderV2;\r\n\r\nimport '@openzeppelin/contracts/utils/structs/EnumerableSet.sol';\r\nimport './interfaces/IUniswapV2Pair.sol';\r\nimport './utils/Decimal.sol';\r\nimport \"../node_modules//@openzeppelin/contracts/utils/math/SafeMath.sol\";\r\n\r\ncontract TradeOrder {\r\n\r\n    using Decimal for Decimal.D256;\r\n    using SafeMath for uint256;\r\n\r\n    struct orderedReserves {\r\n        uint256 a1; // base asset\r\n        uint256 b1;\r\n        uint256 a2;\r\n        uint256 b2;\r\n    }\r\n\r\n    address private constant WETH = 0xC02aaA39b223FE8D0A0e5C4F27eAD9083C756Cc2;\r\n\r\n\r\n    // address[] baseTokens = [WETH, 0xBB91175307DD50bdebCfE82F2f343BbEf607e659, 0x7aC0F08dd5CE5098ec8e0C98a0D2464E0602A32F];\r\n\r\n    //array of basetokens weth is added by standard and the other one is hard coded from my test script.\r\n    //however we also have a function to let users add their own basetoken so it is dynamic\r\n    address[] baseTokens = [WETH, 0xBB91175307DD50bdebCfE82F2f343BbEf607e659, 0x7D7224b9979343dE24Fd6BA2eB3F73f528cAA6cf];\r\n\r\n\r\n\r\n\r\n   function baseTokensContains(address token) public view returns (bool hasBeenFound) {\r\n        \r\n        bool hasbeenFound = false;\r\n        for (uint i = 0; i < baseTokens.length; i++) {\r\n\r\n            if(baseTokens[i] == token) {\r\n\r\n                hasbeenFound = true;\r\n                break;\r\n            }\r\n        }\r\n\r\n        if (hasBeenFound) {\r\n\r\n            return true;\r\n        }\r\n\r\n        return hasbeenFound;\r\n    }\r\n\r\n    function addBaseToken(address token) public {\r\n\r\n        require(token != address(0));\r\n        baseTokens.push(token);\r\n    }\r\n\r\n    function deleteBaseToken(address token) public {\r\n\r\n        baseTokens.pop();\r\n    }\r\n\r\n    function getBaseTokens() public returns(address[] memory) {\r\n\r\n        return baseTokens;\r\n    }\r\n\r\n    function isbaseTokenSmaller(address pool0, address pool1) public view returns (bool baseSmaller, address baseToken, address quoteToken) {\r\n\r\n        require(pool0 != pool1, 'Same pair address');\r\n        (address pool0Token0, address pool0Token1) = (IUniswapV2Pair(pool0).token0(), IUniswapV2Pair(pool0).token1());\r\n        (address pool1Token0, address pool1Token1) = (IUniswapV2Pair(pool1).token0(), IUniswapV2Pair(pool1).token1());\r\n\r\n        require(pool0Token0 < pool0Token1 && pool1Token0 < pool1Token1, 'Non standard uniswap AMM pair');\r\n        require(pool0Token0 == pool1Token0 && pool0Token1 == pool1Token1, 'Require same token pair');\r\n        require(baseTokensContains(pool0Token0) || baseTokensContains(pool0Token1), 'No base token in pair');\r\n\r\n        (baseSmaller, baseToken, quoteToken) = baseTokensContains(pool0Token0) ? (true, pool0Token0, pool0Token1) : (false, pool0Token1, pool0Token0);\r\n        // if the baseToken contains the qoute token or token0 then we set basetokensmaller to \r\n        // true and token0 remains the ouote and token1 remains the base\r\n        // if (baseTokensContains(pool0Token0)) { \r\n        //     (baseSmaller, baseToken, quoteToken) = (true, pool0Token0, pool0Token1);\r\n\r\n        // //is the basetoken is not equal to token 0 then the base token is not smaller and we revers the order of \r\n        // //the base and quote token this efficetively would for example set DAI/WETH to WETH/DAI\r\n        //  } else {\r\n        //      (baseSmaller, baseToken, quoteToken) = (false, pool0Token1, pool0Token0);\r\n        //  }\r\n\r\n    }   \r\n    /// We borrow base token by using flash swap from lower price pool and sell them to higher price pool\r\n    function getOrderedReserves(address pool0, address pool1, bool baseTokenSmaller) public returns (address lowerPool, address higherPool, orderedReserves memory orderedReserve ) {\r\n\r\n        //we first get the pool reserves so we can order them\r\n        (uint256 pool0Reserve0, uint256 pool0Reserve1, ) = IUniswapV2Pair(pool0).getReserves();\r\n        (uint256 pool1Reserve0, uint256 pool1Reserve1, ) = IUniswapV2Pair(pool1).getReserves();\r\n\r\n        // Calculate the price denominated in quote asset token\r\n        (Decimal.D256 memory price0, Decimal.D256 memory price1) =\r\n            baseTokenSmaller ? (Decimal.from(pool0Reserve0).div(pool0Reserve1), Decimal.from(pool1Reserve0).div(pool1Reserve1)) : (Decimal.from(pool0Reserve1).div(pool0Reserve0), Decimal.from(pool1Reserve1).div(pool1Reserve0));\r\n\r\n        //then we set the price vars\r\n        // Decimal.D256 memory price0;\r\n        // Decimal.D256 memory price1;\r\n\r\n        // //if the basetoken is smaller price token 0 is reserve0 / reserve 1\r\n        // //and the price token1 is reserve1 / reserve0\r\n        // if (baseTokenSmaller) {\r\n\r\n        //     Decimal.D256 memory price0 = Decimal.from(pool0Reserve0).div(pool0Reserve1);\r\n        //     Decimal.D256 memory price1 = Decimal.from(pool1Reserve0).div(pool1Reserve1);\r\n\r\n        // //if the base token is not smaller then we reverse the results for the token0 token 1 prices\r\n        // } else {\r\n        //     Decimal.D256 memory price0 = Decimal.from(pool0Reserve1).div(pool0Reserve0);\r\n        //     Decimal.D256 memory price1 = Decimal.from(pool1Reserve1).div(pool1Reserve0);\r\n\r\n        // }\r\n        // get a1, b1, a2, b2 with following rule:\r\n        // 1. (a1, b1) represents the pool with lower price, denominated in quote asset token\r\n        // 2. (a1, a2) are the base tokens in two pools\r\n        if (price0.lessThan(price1)) {\r\n            (lowerPool, higherPool) = (pool0, pool1);\r\n            (orderedReserve.a1, orderedReserve.b1, orderedReserve.a2, orderedReserve.b2) = baseTokenSmaller ? (pool0Reserve0, pool0Reserve1, pool1Reserve0, pool1Reserve1) : (pool0Reserve1, pool0Reserve0, pool1Reserve1, pool1Reserve0);\r\n            //  if (baseTokenSmaller) {\r\n                \r\n            //     orderedReserve.a1 = pool0Reserve0;\r\n            //     orderedReserve.b1 = pool0Reserve1;\r\n            //     orderedReserve.a2 = pool1Reserve0;\r\n            //     orderedReserve.b2 = pool1Reserve1;\r\n\r\n            // } else {\r\n\r\n            //     orderedReserve.a1 = pool0Reserve1;\r\n            //     orderedReserve.b1 = pool0Reserve0;\r\n            //     orderedReserve.a2 = pool1Reserve1;\r\n            //     orderedReserve.b2 = pool1Reserve0;\r\n            // }\r\n\r\n        } else {\r\n            (lowerPool, higherPool) = (pool1, pool0);\r\n\r\n            // if (baseTokenSmaller) {\r\n\r\n            //     orderedReserve.a1 = pool1Reserve0;\r\n            //     orderedReserve.b1 = pool1Reserve1;\r\n            //     orderedReserve.a2 = pool0Reserve0;\r\n            //     orderedReserve.b2 = pool0Reserve1;\r\n        \r\n            // } else {\r\n\r\n            //     orderedReserve.a1 = pool1Reserve1;\r\n            //     orderedReserve.b1 = pool1Reserve0;\r\n            //     orderedReserve.a2 = pool0Reserve1;\r\n            //     orderedReserve.b2 = pool0Reserve0;\r\n            // }\r\n            (orderedReserve.a1, orderedReserve.b1, orderedReserve.a2, orderedReserve.b2) = baseTokenSmaller ? (pool1Reserve0, pool1Reserve1, pool0Reserve0, pool0Reserve1) : (pool1Reserve1, pool1Reserve0, pool0Reserve1, pool0Reserve0);\r\n        }\r\n    }\r\n\r\n}",
  "sourcePath": "C:\\Users\\mcgra\\OneDrive\\Documents\\EthereumProgramming\\Bot\\contracts\\TradeOrder.sol",
  "compiler": {
    "name": "solc",
    "version": "0.7.6+commit.7338295f.Emscripten.clang"
  },
  "schemaVersion": "3.4.3",
  "updatedAt": "2021-11-16T18:37:34.553Z",
  "devdoc": {
    "kind": "dev",
    "methods": {},
    "version": 1
  },
  "userdoc": {
    "kind": "user",
    "methods": {
      "getOrderedReserves(address,address,bool)": {
        "notice": "We borrow base token by using flash swap from lower price pool and sell them to higher price pool"
      }
    },
    "version": 1
  }
}