{
  "contractName": "TradeOrder",
  "abi": [
    {
      "inputs": [
        {
          "internalType": "address",
          "name": "token",
          "type": "address"
        }
      ],
      "name": "baseTokensContains",
      "outputs": [
        {
          "internalType": "bool",
          "name": "hasBeenFound",
          "type": "bool"
        }
      ],
      "stateMutability": "view",
      "type": "function"
    },
    {
      "inputs": [
        {
          "internalType": "address",
          "name": "pool0",
          "type": "address"
        },
        {
          "internalType": "address",
          "name": "pool1",
          "type": "address"
        }
      ],
      "name": "isbaseTokenSmaller",
      "outputs": [
        {
          "internalType": "bool",
          "name": "baseSmaller",
          "type": "bool"
        },
        {
          "internalType": "address",
          "name": "baseToken",
          "type": "address"
        },
        {
          "internalType": "address",
          "name": "quoteToken",
          "type": "address"
        }
      ],
      "stateMutability": "view",
      "type": "function"
    },
    {
      "inputs": [
        {
          "internalType": "address",
          "name": "pool0",
          "type": "address"
        },
        {
          "internalType": "address",
          "name": "pool1",
          "type": "address"
        },
        {
          "internalType": "bool",
          "name": "baseTokenSmaller",
          "type": "bool"
        }
      ],
      "name": "getOrderedReserves",
      "outputs": [
        {
          "internalType": "address",
          "name": "lowerPool",
          "type": "address"
        },
        {
          "internalType": "address",
          "name": "higherPool",
          "type": "address"
        },
        {
          "components": [
            {
              "internalType": "uint256",
              "name": "a1",
              "type": "uint256"
            },
            {
              "internalType": "uint256",
              "name": "b1",
              "type": "uint256"
            },
            {
              "internalType": "uint256",
              "name": "a2",
              "type": "uint256"
            },
            {
              "internalType": "uint256",
              "name": "b2",
              "type": "uint256"
            }
          ],
          "internalType": "struct TradeOrder.orderedReserves",
          "name": "orderedReserve",
          "type": "tuple"
        }
      ],
      "stateMutability": "nonpayable",
      "type": "function"
    }
  ],
  "bytecode": "0x6080604052604051806060016040528073c02aaa39b223fe8d0a0e5c4f27ead9083c756cc273ffffffffffffffffffffffffffffffffffffffff1673ffffffffffffffffffffffffffffffffffffffff16815260200173bb91175307dd50bdebcfe82f2f343bbef607e65973ffffffffffffffffffffffffffffffffffffffff1673ffffffffffffffffffffffffffffffffffffffff16815260200173ca0bfd7aefa72c61bbdf6ad293ad2f943cfb592d73ffffffffffffffffffffffffffffffffffffffff1673ffffffffffffffffffffffffffffffffffffffff1681525060009060036100ef929190610102565b503480156100fc57600080fd5b506101a9565b82805482825590600052602060002090810192821561017b579160200282015b8281111561017a5782518260006101000a81548173ffffffffffffffffffffffffffffffffffffffff021916908373ffffffffffffffffffffffffffffffffffffffff16021790555091602001919060010190610122565b5b509050610188919061018c565b5090565b5b808211156101a557600081600090555060010161018d565b5090565b6110be806101b86000396000f3fe608060405234801561001057600080fd5b50600436106100415760003560e01c80631a1299691461004657806321d09426146100785780638e6222c4146100a8575b600080fd5b610060600480360381019061005b9190610c23565b6100da565b60405161006f93929190610ed1565b60405180910390f35b610092600480360381019061008d9190610bd1565b610535565b60405161009f9190610eb6565b60405180910390f35b6100c260048036038101906100bd9190610c5f565b6105e8565b6040516100d193929190610e7f565b60405180910390f35b60008060008373ffffffffffffffffffffffffffffffffffffffff168573ffffffffffffffffffffffffffffffffffffffff16141561014e576040517f08c379a000000000000000000000000000000000000000000000000000000000815260040161014590610f28565b60405180910390fd5b6000808673ffffffffffffffffffffffffffffffffffffffff16630dfe16816040518163ffffffff1660e01b815260040160206040518083038186803b15801561019757600080fd5b505afa1580156101ab573d6000803e3d6000fd5b505050506040513d601f19601f820116820180604052508101906101cf9190610bfa565b8773ffffffffffffffffffffffffffffffffffffffff1663d21220a76040518163ffffffff1660e01b815260040160206040518083038186803b15801561021557600080fd5b505afa158015610229573d6000803e3d6000fd5b505050506040513d601f19601f8201168201806040525081019061024d9190610bfa565b915091506000808773ffffffffffffffffffffffffffffffffffffffff16630dfe16816040518163ffffffff1660e01b815260040160206040518083038186803b15801561029a57600080fd5b505afa1580156102ae573d6000803e3d6000fd5b505050506040513d601f19601f820116820180604052508101906102d29190610bfa565b8873ffffffffffffffffffffffffffffffffffffffff1663d21220a76040518163ffffffff1660e01b815260040160206040518083038186803b15801561031857600080fd5b505afa15801561032c573d6000803e3d6000fd5b505050506040513d601f19601f820116820180604052508101906103509190610bfa565b915091508273ffffffffffffffffffffffffffffffffffffffff168473ffffffffffffffffffffffffffffffffffffffff161080156103ba57508073ffffffffffffffffffffffffffffffffffffffff168273ffffffffffffffffffffffffffffffffffffffff16105b6103f9576040517f08c379a00000000000000000000000000000000000000000000000000000000081526004016103f090610f08565b60405180910390fd5b8173ffffffffffffffffffffffffffffffffffffffff168473ffffffffffffffffffffffffffffffffffffffff1614801561045f57508073ffffffffffffffffffffffffffffffffffffffff168373ffffffffffffffffffffffffffffffffffffffff16145b61049e576040517f08c379a000000000000000000000000000000000000000000000000000000000815260040161049590610f68565b60405180910390fd5b6104a784610535565b806104b757506104b683610535565b5b6104f6576040517f08c379a00000000000000000000000000000000000000000000000000000000081526004016104ed90610f48565b60405180910390fd5b6104ff84610535565b15610519576001848480975081985082995050505061052a565b600083858097508198508299505050505b505050509250925092565b6000806000905060005b6000805490508110156105cd578373ffffffffffffffffffffffffffffffffffffffff166000828154811061057057fe5b9060005260206000200160009054906101000a900473ffffffffffffffffffffffffffffffffffffffff1673ffffffffffffffffffffffffffffffffffffffff1614156105c057600191506105cd565b808060010191505061053f565b5081156105de5760019150506105e3565b809150505b919050565b6000806105f3610b2d565b6000808773ffffffffffffffffffffffffffffffffffffffff16630902f1ac6040518163ffffffff1660e01b815260040160606040518083038186803b15801561063c57600080fd5b505afa158015610650573d6000803e3d6000fd5b505050506040513d601f19601f820116820180604052508101906106749190610cae565b506dffffffffffffffffffffffffffff1691506dffffffffffffffffffffffffffff1691506000808873ffffffffffffffffffffffffffffffffffffffff16630902f1ac6040518163ffffffff1660e01b815260040160606040518083038186803b1580156106e257600080fd5b505afa1580156106f6573d6000803e3d6000fd5b505050506040513d601f19601f8201168201806040525081019061071a9190610cae565b506dffffffffffffffffffffffffffff1691506dffffffffffffffffffffffffffff169150610747610b55565b61074f610b55565b891561079a57600061077286610764896108d4565b61090c90919063ffffffff16565b9050600061079185610783886108d4565b61090c90919063ffffffff16565b905050506107db565b60006107b7876107a9886108d4565b61090c90919063ffffffff16565b905060006107d6866107c8876108d4565b61090c90919063ffffffff16565b905050505b6107ee818361094190919063ffffffff16565b1561085e578b8b809950819a50505089156108305785876000018181525050848760200181815250508387604001818152505082876060018181525050610859565b848760000181815250508587602001818152505082876040018181525050838760600181815250505b6108c5565b8a8c809950819a505050891561089b57838760000181815250508287602001818152505085876040018181525050848760600181815250506108c4565b828760000181815250508387602001818152505084876040018181525050858760600181815250505b5b50505050505093509350939050565b6108dc610b55565b6040518060200160405280610902670de0b6b3a76400008561095790919063ffffffff16565b8152509050919050565b610914610b55565b60405180602001604052806109368486600001516109dd90919063ffffffff16565b815250905092915050565b60008061094e8484610a27565b14905092915050565b60008083141561096a57600090506109d7565b600082840290508284828161097b57fe5b04146109d2576040517f08c379a00000000000000000000000000000000000000000000000000000000081526004018080602001828103825260218152602001806110686021913960400191505060405180910390fd5b809150505b92915050565b6000610a1f83836040518060400160405280601a81526020017f536166654d6174683a206469766973696f6e206279207a65726f000000000000815250610a67565b905092915050565b6000816000015183600001511415610a425760019050610a61565b8160000151836000015111610a58576000610a5b565b60025b60ff1690505b92915050565b60008083118290610b13576040517f08c379a00000000000000000000000000000000000000000000000000000000081526004018080602001828103825283818151815260200191508051906020019080838360005b83811015610ad8578082015181840152602081019050610abd565b50505050905090810190601f168015610b055780820380516001836020036101000a031916815260200191505b509250505060405180910390fd5b506000838581610b1f57fe5b049050809150509392505050565b6040518060800160405280600081526020016000815260200160008152602001600081525090565b6040518060200160405280600081525090565b600081359050610b778161100b565b92915050565b600081519050610b8c8161100b565b92915050565b600081359050610ba181611022565b92915050565b600081519050610bb681611039565b92915050565b600081519050610bcb81611050565b92915050565b600060208284031215610be357600080fd5b6000610bf184828501610b68565b91505092915050565b600060208284031215610c0c57600080fd5b6000610c1a84828501610b7d565b91505092915050565b60008060408385031215610c3657600080fd5b6000610c4485828601610b68565b9250506020610c5585828601610b68565b9150509250929050565b600080600060608486031215610c7457600080fd5b6000610c8286828701610b68565b9350506020610c9386828701610b68565b9250506040610ca486828701610b92565b9150509250925092565b600080600060608486031215610cc357600080fd5b6000610cd186828701610ba7565b9350506020610ce286828701610ba7565b9250506040610cf386828701610bbc565b9150509250925092565b610d0681610f99565b82525050565b610d1581610fab565b82525050565b6000610d28601d83610f88565b91507f4e6f6e207374616e6461726420756e697377617020414d4d20706169720000006000830152602082019050919050565b6000610d68601183610f88565b91507f53616d65207061697220616464726573730000000000000000000000000000006000830152602082019050919050565b6000610da8601583610f88565b91507f4e6f206261736520746f6b656e20696e207061697200000000000000000000006000830152602082019050919050565b6000610de8601783610f88565b91507f526571756972652073616d6520746f6b656e20706169720000000000000000006000830152602082019050919050565b608082016000820151610e316000850182610e70565b506020820151610e446020850182610e70565b506040820151610e576040850182610e70565b506060820151610e6a6060850182610e70565b50505050565b610e7981610ff1565b82525050565b600060c082019050610e946000830186610cfd565b610ea16020830185610cfd565b610eae6040830184610e1b565b949350505050565b6000602082019050610ecb6000830184610d0c565b92915050565b6000606082019050610ee66000830186610d0c565b610ef36020830185610cfd565b610f006040830184610cfd565b949350505050565b60006020820190508181036000830152610f2181610d1b565b9050919050565b60006020820190508181036000830152610f4181610d5b565b9050919050565b60006020820190508181036000830152610f6181610d9b565b9050919050565b60006020820190508181036000830152610f8181610ddb565b9050919050565b600082825260208201905092915050565b6000610fa482610fd1565b9050919050565b60008115159050919050565b60006dffffffffffffffffffffffffffff82169050919050565b600073ffffffffffffffffffffffffffffffffffffffff82169050919050565b6000819050919050565b600063ffffffff82169050919050565b61101481610f99565b811461101f57600080fd5b50565b61102b81610fab565b811461103657600080fd5b50565b61104281610fb7565b811461104d57600080fd5b50565b61105981610ffb565b811461106457600080fd5b5056fe536166654d6174683a206d756c7469706c69636174696f6e206f766572666c6f77a26469706673582212206345c91bb15a09fbd07162c3d92419b204d5fee493a994073cdcc143e2ccc94864736f6c63430007060033",
  "immutableReferences": {},
  "source": "//SPDX-License-Identifier: Unlicense\r\npragma solidity ^0.7.0;\r\npragma experimental ABIEncoderV2;\r\n\r\nimport '@openzeppelin/contracts/utils/structs/EnumerableSet.sol';\r\nimport './interfaces/IUniswapV2Pair.sol';\r\nimport './utils/Decimal.sol';\r\nimport \"../node_modules//@openzeppelin/contracts/utils/math/SafeMath.sol\";\r\n\r\ncontract TradeOrder {\r\n\r\n    using Decimal for Decimal.D256;\r\n    using SafeMath for uint256;\r\n\r\n    struct orderedReserves {\r\n        uint256 a1; // base asset\r\n        uint256 b1;\r\n        uint256 a2;\r\n        uint256 b2;\r\n    }\r\n\r\n    address private constant WETH = 0xC02aaA39b223FE8D0A0e5C4F27eAD9083C756Cc2;\r\n\r\n    address[] baseTokens = [WETH, 0xBB91175307DD50bdebCfE82F2f343BbEf607e659, 0xCa0bFD7aEFa72c61BbDF6Ad293AD2f943cfb592d];\r\n\r\n\r\n   function baseTokensContains(address token) public view returns (bool hasBeenFound) {\r\n        \r\n        bool hasbeenFound = false;\r\n        for (uint i = 0; i < baseTokens.length; i++) {\r\n\r\n            if(baseTokens[i] == token) {\r\n\r\n                hasbeenFound = true;\r\n                break;\r\n            }\r\n        }\r\n\r\n        if (hasBeenFound) {\r\n\r\n            return true;\r\n        }\r\n\r\n        return hasbeenFound;\r\n    }\r\n\r\n    function isbaseTokenSmaller(address pool0, address pool1) public view returns (bool baseSmaller, address baseToken, address quoteToken) {\r\n        require(pool0 != pool1, 'Same pair address');\r\n        (address pool0Token0, address pool0Token1) = (IUniswapV2Pair(pool0).token0(), IUniswapV2Pair(pool0).token1());\r\n        (address pool1Token0, address pool1Token1) = (IUniswapV2Pair(pool1).token0(), IUniswapV2Pair(pool1).token1());\r\n        require(pool0Token0 < pool0Token1 && pool1Token0 < pool1Token1, 'Non standard uniswap AMM pair');\r\n        require(pool0Token0 == pool1Token0 && pool0Token1 == pool1Token1, 'Require same token pair');\r\n        require(baseTokensContains(pool0Token0) || baseTokensContains(pool0Token1), 'No base token in pair');\r\n\r\n        // (baseSmaller, baseToken, quoteToken) = baseTokensContains(pool0Token0) ? (true, pool0Token0, pool0Token1) : (false, pool0Token1, pool0Token0);\r\n        if (baseTokensContains(pool0Token0)) { \r\n            (baseSmaller, baseToken, quoteToken) = (true, pool0Token0, pool0Token1);\r\n         } else {\r\n             (baseSmaller, baseToken, quoteToken) = (false, pool0Token1, pool0Token0);\r\n         }\r\n\r\n    }   \r\n    /// We borrow base token by using flash swap from lower price pool and sell them to higher price pool\r\n    function getOrderedReserves(address pool0, address pool1, bool baseTokenSmaller) public returns (address lowerPool, address higherPool, orderedReserves memory orderedReserve ) {\r\n        (uint256 pool0Reserve0, uint256 pool0Reserve1, ) = IUniswapV2Pair(pool0).getReserves();\r\n        (uint256 pool1Reserve0, uint256 pool1Reserve1, ) = IUniswapV2Pair(pool1).getReserves();\r\n\r\n        // Calculate the price denominated in quote asset token\r\n        // (Decimal.D256 memory price0, Decimal.D256 memory price1) =\r\n        //     baseTokenSmaller ? (Decimal.from(pool0Reserve0).div(pool0Reserve1), Decimal.from(pool1Reserve0).div(pool1Reserve1)) : (Decimal.from(pool0Reserve1).div(pool0Reserve0), Decimal.from(pool1Reserve1).div(pool1Reserve0));\r\n\r\n        Decimal.D256 memory price0;\r\n        Decimal.D256 memory price1;\r\n\r\n        if (baseTokenSmaller) {\r\n\r\n            Decimal.D256 memory price0 = Decimal.from(pool0Reserve0).div(pool0Reserve1);\r\n            Decimal.D256 memory price1 = Decimal.from(pool1Reserve0).div(pool1Reserve1);\r\n\r\n        } else {\r\n            Decimal.D256 memory price0 = Decimal.from(pool0Reserve1).div(pool0Reserve0);\r\n            Decimal.D256 memory price1 = Decimal.from(pool1Reserve1).div(pool1Reserve0);\r\n\r\n        }\r\n        // get a1, b1, a2, b2 with following rule:\r\n        // 1. (a1, b1) represents the pool with lower price, denominated in quote asset token\r\n        // 2. (a1, a2) are the base tokens in two pools\r\n        if (price0.lessThan(price1)) {\r\n            (lowerPool, higherPool) = (pool0, pool1);\r\n            // (orderedReserve.a1, orderedReserve.b1, orderedReserve.a2, orderedReserve.b2) = baseTokenSmaller ? (pool0Reserve0, pool0Reserve1, pool1Reserve0, pool1Reserve1) : (pool0Reserve1, pool0Reserve0, pool1Reserve1, pool1Reserve0);\r\n             if (baseTokenSmaller) {\r\n                \r\n                orderedReserve.a1 = pool0Reserve0;\r\n                orderedReserve.b1 = pool0Reserve1;\r\n                orderedReserve.a2 = pool1Reserve0;\r\n                orderedReserve.b2 = pool1Reserve1;\r\n\r\n            } else {\r\n\r\n                orderedReserve.a1 = pool0Reserve1;\r\n                orderedReserve.b1 = pool0Reserve0;\r\n                orderedReserve.a2 = pool1Reserve1;\r\n                orderedReserve.b2 = pool1Reserve0;\r\n            }\r\n\r\n        } else {\r\n            (lowerPool, higherPool) = (pool1, pool0);\r\n\r\n            if (baseTokenSmaller) {\r\n\r\n                orderedReserve.a1 = pool1Reserve0;\r\n                orderedReserve.b1 = pool1Reserve1;\r\n                orderedReserve.a2 = pool0Reserve0;\r\n                orderedReserve.b2 = pool0Reserve1;\r\n        \r\n            } else {\r\n\r\n                orderedReserve.a1 = pool1Reserve1;\r\n                orderedReserve.b1 = pool1Reserve0;\r\n                orderedReserve.a2 = pool0Reserve1;\r\n                orderedReserve.b2 = pool0Reserve0;\r\n            }\r\n            // (orderedReserve.a1, orderedReserve.b1, orderedReserve.a2, orderedReserve.b2) = baseTokenSmaller ? (pool1Reserve0, pool1Reserve1, pool0Reserve0, pool0Reserve1) : (pool1Reserve1, pool1Reserve0, pool0Reserve1, pool0Reserve0);\r\n        }\r\n    }\r\n\r\n}",
  "sourcePath": "C:\\Users\\mcgra\\OneDrive\\Documents\\EthereumProgramming\\Bot\\contracts\\TradeOrder.sol",
  "compiler": {
    "name": "solc",
    "version": "0.7.6+commit.7338295f.Emscripten.clang"
  },
  "schemaVersion": "3.4.3",
  "updatedAt": "2021-11-15T20:25:14.897Z",
  "devdoc": {
    "kind": "dev",
    "methods": {},
    "version": 1
  },
  "userdoc": {
    "kind": "user",
    "methods": {
      "getOrderedReserves(address,address,bool)": {
        "notice": "We borrow base token by using flash swap from lower price pool and sell them to higher price pool"
      }
    },
    "version": 1
  }
}