{
  "contractName": "TradeOrder",
  "abi": [
    {
      "inputs": [
        {
          "internalType": "address",
          "name": "token",
          "type": "address"
        }
      ],
      "name": "baseTokensContains",
      "outputs": [
        {
          "internalType": "bool",
          "name": "hasBeenFound",
          "type": "bool"
        }
      ],
      "stateMutability": "view",
      "type": "function"
    },
    {
      "inputs": [
        {
          "internalType": "address",
          "name": "token",
          "type": "address"
        }
      ],
      "name": "addBaseToken",
      "outputs": [],
      "stateMutability": "nonpayable",
      "type": "function"
    },
    {
      "inputs": [],
      "name": "deleteBaseToken",
      "outputs": [],
      "stateMutability": "nonpayable",
      "type": "function"
    },
    {
      "inputs": [],
      "name": "getBaseTokens",
      "outputs": [
        {
          "internalType": "address[]",
          "name": "",
          "type": "address[]"
        }
      ],
      "stateMutability": "nonpayable",
      "type": "function"
    },
    {
      "inputs": [
        {
          "internalType": "address",
          "name": "pool0",
          "type": "address"
        },
        {
          "internalType": "address",
          "name": "pool1",
          "type": "address"
        }
      ],
      "name": "isbaseTokenSmaller",
      "outputs": [
        {
          "internalType": "bool",
          "name": "baseSmaller",
          "type": "bool"
        },
        {
          "internalType": "address",
          "name": "baseToken",
          "type": "address"
        },
        {
          "internalType": "address",
          "name": "quoteToken",
          "type": "address"
        }
      ],
      "stateMutability": "view",
      "type": "function"
    },
    {
      "inputs": [
        {
          "internalType": "address",
          "name": "pool0",
          "type": "address"
        },
        {
          "internalType": "address",
          "name": "pool1",
          "type": "address"
        },
        {
          "internalType": "bool",
          "name": "baseTokenSmaller",
          "type": "bool"
        }
      ],
      "name": "getOrderedReserves",
      "outputs": [
        {
          "internalType": "address",
          "name": "lowerPool",
          "type": "address"
        },
        {
          "internalType": "address",
          "name": "higherPool",
          "type": "address"
        },
        {
          "components": [
            {
              "internalType": "uint256",
              "name": "a1",
              "type": "uint256"
            },
            {
              "internalType": "uint256",
              "name": "b1",
              "type": "uint256"
            },
            {
              "internalType": "uint256",
              "name": "a2",
              "type": "uint256"
            },
            {
              "internalType": "uint256",
              "name": "b2",
              "type": "uint256"
            }
          ],
          "internalType": "struct TradeOrder.orderedReserves",
          "name": "orderedReserve",
          "type": "tuple"
        }
      ],
      "stateMutability": "nonpayable",
      "type": "function"
    }
  ],
  "bytecode": "0x6080604052604051806040016040528073c02aaa39b223fe8d0a0e5c4f27ead9083c756cc273ffffffffffffffffffffffffffffffffffffffff1673ffffffffffffffffffffffffffffffffffffffff16815260200173e96580fed107064e74a1c65530bbc8d9d9e8becf73ffffffffffffffffffffffffffffffffffffffff1673ffffffffffffffffffffffffffffffffffffffff1681525060009060026100a99291906100bc565b503480156100b657600080fd5b50610163565b828054828255906000526020600020908101928215610135579160200282015b828111156101345782518260006101000a81548173ffffffffffffffffffffffffffffffffffffffff021916908373ffffffffffffffffffffffffffffffffffffffff160217905550916020019190600101906100dc565b5b5090506101429190610146565b5090565b5b8082111561015f576000816000905550600101610147565b5090565b6112fe806101726000396000f3fe608060405234801561001057600080fd5b50600436106100625760003560e01c80631a1299691461006757806321d09426146100995780633ac39056146100c957806383e280d9146100d35780638e6222c4146100ef578063bed64c2f14610121575b600080fd5b610081600480360381019061007c9190610d83565b61013f565b604051610090939291906110d8565b60405180910390f35b6100b360048036038101906100ae9190610d31565b61058d565b6040516100c091906110bd565b60405180910390f35b6100d1610640565b005b6100ed60048036038101906100e89190610d31565b610682565b005b61010960048036038101906101049190610dbf565b610722565b60405161011893929190611064565b60405180910390f35b6101296109a6565b604051610136919061109b565b60405180910390f35b60008060008373ffffffffffffffffffffffffffffffffffffffff168573ffffffffffffffffffffffffffffffffffffffff1614156101b3576040517f08c379a00000000000000000000000000000000000000000000000000000000081526004016101aa9061112f565b60405180910390fd5b6000808673ffffffffffffffffffffffffffffffffffffffff16630dfe16816040518163ffffffff1660e01b815260040160206040518083038186803b1580156101fc57600080fd5b505afa158015610210573d6000803e3d6000fd5b505050506040513d601f19601f820116820180604052508101906102349190610d5a565b8773ffffffffffffffffffffffffffffffffffffffff1663d21220a76040518163ffffffff1660e01b815260040160206040518083038186803b15801561027a57600080fd5b505afa15801561028e573d6000803e3d6000fd5b505050506040513d601f19601f820116820180604052508101906102b29190610d5a565b915091506000808773ffffffffffffffffffffffffffffffffffffffff16630dfe16816040518163ffffffff1660e01b815260040160206040518083038186803b1580156102ff57600080fd5b505afa158015610313573d6000803e3d6000fd5b505050506040513d601f19601f820116820180604052508101906103379190610d5a565b8873ffffffffffffffffffffffffffffffffffffffff1663d21220a76040518163ffffffff1660e01b815260040160206040518083038186803b15801561037d57600080fd5b505afa158015610391573d6000803e3d6000fd5b505050506040513d601f19601f820116820180604052508101906103b59190610d5a565b915091508273ffffffffffffffffffffffffffffffffffffffff168473ffffffffffffffffffffffffffffffffffffffff1610801561041f57508073ffffffffffffffffffffffffffffffffffffffff168273ffffffffffffffffffffffffffffffffffffffff16105b61045e576040517f08c379a00000000000000000000000000000000000000000000000000000000081526004016104559061110f565b60405180910390fd5b8173ffffffffffffffffffffffffffffffffffffffff168473ffffffffffffffffffffffffffffffffffffffff161480156104c457508073ffffffffffffffffffffffffffffffffffffffff168373ffffffffffffffffffffffffffffffffffffffff16145b610503576040517f08c379a00000000000000000000000000000000000000000000000000000000081526004016104fa9061116f565b60405180910390fd5b61050c8461058d565b8061051c575061051b8361058d565b5b61055b576040517f08c379a00000000000000000000000000000000000000000000000000000000081526004016105529061114f565b60405180910390fd5b6105648461058d565b6105715760008385610576565b600184845b809750819850829950505050505050509250925092565b6000806000905060005b600080549050811015610625578373ffffffffffffffffffffffffffffffffffffffff16600082815481106105c857fe5b9060005260206000200160009054906101000a900473ffffffffffffffffffffffffffffffffffffffff1673ffffffffffffffffffffffffffffffffffffffff1614156106185760019150610625565b8080600101915050610597565b50811561063657600191505061063b565b809150505b919050565b600080548061064b57fe5b6001900381819060005260206000200160006101000a81549073ffffffffffffffffffffffffffffffffffffffff02191690559055565b600073ffffffffffffffffffffffffffffffffffffffff168173ffffffffffffffffffffffffffffffffffffffff1614156106bc57600080fd5b6000819080600181540180825580915050600190039060005260206000200160009091909190916101000a81548173ffffffffffffffffffffffffffffffffffffffff021916908373ffffffffffffffffffffffffffffffffffffffff16021790555050565b60008061072d610c8d565b6000808773ffffffffffffffffffffffffffffffffffffffff16630902f1ac6040518163ffffffff1660e01b815260040160606040518083038186803b15801561077657600080fd5b505afa15801561078a573d6000803e3d6000fd5b505050506040513d601f19601f820116820180604052508101906107ae9190610e0e565b506dffffffffffffffffffffffffffff1691506dffffffffffffffffffffffffffff1691506000808873ffffffffffffffffffffffffffffffffffffffff16630902f1ac6040518163ffffffff1660e01b815260040160606040518083038186803b15801561081c57600080fd5b505afa158015610830573d6000803e3d6000fd5b505050506040513d601f19601f820116820180604052508101906108549190610e0e565b506dffffffffffffffffffffffffffff1691506dffffffffffffffffffffffffffff169150600080896108bc5761089c8661088e87610a34565b610a6c90919063ffffffff16565b6108b7856108a986610a34565b610a6c90919063ffffffff16565b6108f3565b6108d7856108c988610a34565b610a6c90919063ffffffff16565b6108f2846108e487610a34565b610a6c90919063ffffffff16565b5b9150915061090a8183610aa190919063ffffffff16565b15610955578b8b809950819a50505089610927578486848661092c565b858585855b8a6000018b6020018c6040018d6060018481525084815250848152508481525050505050610997565b8a8c809950819a5050508961096d5782848688610972565b838387875b8a6000018b6020018c6040018d60600184815250848152508481525084815250505050505b50505050505093509350939050565b60606000805480602002602001604051908101604052809291908181526020018280548015610a2a57602002820191906000526020600020905b8160009054906101000a900473ffffffffffffffffffffffffffffffffffffffff1673ffffffffffffffffffffffffffffffffffffffff16815260200190600101908083116109e0575b5050505050905090565b610a3c610cb5565b6040518060200160405280610a62670de0b6b3a764000085610ab790919063ffffffff16565b8152509050919050565b610a74610cb5565b6040518060200160405280610a96848660000151610b3d90919063ffffffff16565b815250905092915050565b600080610aae8484610b87565b14905092915050565b600080831415610aca5760009050610b37565b6000828402905082848281610adb57fe5b0414610b32576040517f08c379a00000000000000000000000000000000000000000000000000000000081526004018080602001828103825260218152602001806112a86021913960400191505060405180910390fd5b809150505b92915050565b6000610b7f83836040518060400160405280601a81526020017f536166654d6174683a206469766973696f6e206279207a65726f000000000000815250610bc7565b905092915050565b6000816000015183600001511415610ba25760019050610bc1565b8160000151836000015111610bb8576000610bbb565b60025b60ff1690505b92915050565b60008083118290610c73576040517f08c379a00000000000000000000000000000000000000000000000000000000081526004018080602001828103825283818151815260200191508051906020019080838360005b83811015610c38578082015181840152602081019050610c1d565b50505050905090810190601f168015610c655780820380516001836020036101000a031916815260200191505b509250505060405180910390fd5b506000838581610c7f57fe5b049050809150509392505050565b6040518060800160405280600081526020016000815260200160008152602001600081525090565b6040518060200160405280600081525090565b600081359050610cd78161124b565b92915050565b600081519050610cec8161124b565b92915050565b600081359050610d0181611262565b92915050565b600081519050610d1681611279565b92915050565b600081519050610d2b81611290565b92915050565b600060208284031215610d4357600080fd5b6000610d5184828501610cc8565b91505092915050565b600060208284031215610d6c57600080fd5b6000610d7a84828501610cdd565b91505092915050565b60008060408385031215610d9657600080fd5b6000610da485828601610cc8565b9250506020610db585828601610cc8565b9150509250929050565b600080600060608486031215610dd457600080fd5b6000610de286828701610cc8565b9350506020610df386828701610cc8565b9250506040610e0486828701610cf2565b9150509250925092565b600080600060608486031215610e2357600080fd5b6000610e3186828701610d07565b9350506020610e4286828701610d07565b9250506040610e5386828701610d1c565b9150509250925092565b6000610e698383610e75565b60208301905092915050565b610e7e816111d9565b82525050565b610e8d816111d9565b82525050565b6000610e9e8261119f565b610ea881856111b7565b9350610eb38361118f565b8060005b83811015610ee4578151610ecb8882610e5d565b9750610ed6836111aa565b925050600181019050610eb7565b5085935050505092915050565b610efa816111eb565b82525050565b6000610f0d601d836111c8565b91507f4e6f6e207374616e6461726420756e697377617020414d4d20706169720000006000830152602082019050919050565b6000610f4d6011836111c8565b91507f53616d65207061697220616464726573730000000000000000000000000000006000830152602082019050919050565b6000610f8d6015836111c8565b91507f4e6f206261736520746f6b656e20696e207061697200000000000000000000006000830152602082019050919050565b6000610fcd6017836111c8565b91507f526571756972652073616d6520746f6b656e20706169720000000000000000006000830152602082019050919050565b6080820160008201516110166000850182611055565b5060208201516110296020850182611055565b50604082015161103c6040850182611055565b50606082015161104f6060850182611055565b50505050565b61105e81611231565b82525050565b600060c0820190506110796000830186610e84565b6110866020830185610e84565b6110936040830184611000565b949350505050565b600060208201905081810360008301526110b58184610e93565b905092915050565b60006020820190506110d26000830184610ef1565b92915050565b60006060820190506110ed6000830186610ef1565b6110fa6020830185610e84565b6111076040830184610e84565b949350505050565b6000602082019050818103600083015261112881610f00565b9050919050565b6000602082019050818103600083015261114881610f40565b9050919050565b6000602082019050818103600083015261116881610f80565b9050919050565b6000602082019050818103600083015261118881610fc0565b9050919050565b6000819050602082019050919050565b600081519050919050565b6000602082019050919050565b600082825260208201905092915050565b600082825260208201905092915050565b60006111e482611211565b9050919050565b60008115159050919050565b60006dffffffffffffffffffffffffffff82169050919050565b600073ffffffffffffffffffffffffffffffffffffffff82169050919050565b6000819050919050565b600063ffffffff82169050919050565b611254816111d9565b811461125f57600080fd5b50565b61126b816111eb565b811461127657600080fd5b50565b611282816111f7565b811461128d57600080fd5b50565b6112998161123b565b81146112a457600080fd5b5056fe536166654d6174683a206d756c7469706c69636174696f6e206f766572666c6f77a2646970667358221220e23e64c3b6497933032ff98939c1d2ab2a3b58aa98c4641ea6bf1dc627b7a12164736f6c63430007060033",
  "immutableReferences": {},
  "source": "//SPDX-License-Identifier: Unlicense\r\npragma solidity ^0.7.0;\r\npragma experimental ABIEncoderV2;\r\n\r\nimport '@openzeppelin/contracts/utils/structs/EnumerableSet.sol';\r\nimport './interfaces/IUniswapV2Pair.sol';\r\nimport './utils/Decimal.sol';\r\nimport \"../node_modules//@openzeppelin/contracts/utils/math/SafeMath.sol\";\r\n\r\ncontract TradeOrder {\r\n\r\n    using Decimal for Decimal.D256;\r\n    using SafeMath for uint256;\r\n\r\n    struct orderedReserves {\r\n        uint256 a1; // base asset\r\n        uint256 b1;\r\n        uint256 a2;\r\n        uint256 b2;\r\n    }\r\n\r\n    address private constant WETH = 0xC02aaA39b223FE8D0A0e5C4F27eAD9083C756Cc2;\r\n\r\n\r\n   \r\n\r\n    //array of basetokens weth is added by standard and the other one is hard coded from my test script.\r\n    //however we also have a function to let users add their own basetoken so it is dynamic\r\n    address[] baseTokens = [WETH, 0xe96580FED107064e74A1C65530BBc8D9D9E8bECF];\r\n\r\n\r\n\r\n\r\n   function baseTokensContains(address token) public view returns (bool hasBeenFound) {\r\n        \r\n        bool hasbeenFound = false;\r\n        for (uint i = 0; i < baseTokens.length; i++) {\r\n\r\n            if(baseTokens[i] == token) {\r\n\r\n                hasbeenFound = true;\r\n                break;\r\n            }\r\n        }\r\n\r\n        if (hasBeenFound) {\r\n\r\n            return true;\r\n        }\r\n\r\n        return hasbeenFound;\r\n    }\r\n\r\n    function addBaseToken(address token) public {\r\n\r\n        require(token != address(0));\r\n        baseTokens.push(token);\r\n    }\r\n\r\n    function deleteBaseToken() public {\r\n\r\n        baseTokens.pop();\r\n    }\r\n\r\n    function getBaseTokens() public returns(address[] memory) {\r\n\r\n        return baseTokens;\r\n    }\r\n\r\n    function isbaseTokenSmaller(address pool0, address pool1) public view returns (bool baseSmaller, address baseToken, address quoteToken) {\r\n\r\n        require(pool0 != pool1, 'Same pair address');\r\n        (address pool0Token0, address pool0Token1) = (IUniswapV2Pair(pool0).token0(), IUniswapV2Pair(pool0).token1());\r\n        (address pool1Token0, address pool1Token1) = (IUniswapV2Pair(pool1).token0(), IUniswapV2Pair(pool1).token1());\r\n\r\n        require(pool0Token0 < pool0Token1 && pool1Token0 < pool1Token1, 'Non standard uniswap AMM pair');\r\n        require(pool0Token0 == pool1Token0 && pool0Token1 == pool1Token1, 'Require same token pair');\r\n        require(baseTokensContains(pool0Token0) || baseTokensContains(pool0Token1), 'No base token in pair');\r\n\r\n        (baseSmaller, baseToken, quoteToken) = baseTokensContains(pool0Token0) ? (true, pool0Token0, pool0Token1) : (false, pool0Token1, pool0Token0);\r\n        \r\n\r\n    }   \r\n    /// We borrow base token by using flash swap from lower price pool and sell them to higher price pool\r\n    function getOrderedReserves(address pool0, address pool1, bool baseTokenSmaller) public returns (address lowerPool, address higherPool, orderedReserves memory orderedReserve ) {\r\n\r\n        //we first get the pool reserves so we can order them\r\n        (uint256 pool0Reserve0, uint256 pool0Reserve1, ) = IUniswapV2Pair(pool0).getReserves();\r\n        (uint256 pool1Reserve0, uint256 pool1Reserve1, ) = IUniswapV2Pair(pool1).getReserves();\r\n\r\n        // Calculate the price denominated in quote asset token\r\n        (Decimal.D256 memory price0, Decimal.D256 memory price1) =\r\n            baseTokenSmaller ? (Decimal.from(pool0Reserve0).div(pool0Reserve1), Decimal.from(pool1Reserve0).div(pool1Reserve1)) : (Decimal.from(pool0Reserve1).div(pool0Reserve0), Decimal.from(pool1Reserve1).div(pool1Reserve0));\r\n\r\n        \r\n        // // get a1, b1, a2, b2 with following rule:\r\n        // 1. (a1, b1) represents the pool with lower price, denominated in quote asset token\r\n        // 2. (a1, a2) are the base tokens in two pools\r\n        if (price0.lessThan(price1)) {\r\n            (lowerPool, higherPool) = (pool0, pool1);\r\n            (orderedReserve.a1, orderedReserve.b1, orderedReserve.a2, orderedReserve.b2) = baseTokenSmaller ? (pool0Reserve0, pool0Reserve1, pool1Reserve0, pool1Reserve1) : (pool0Reserve1, pool0Reserve0, pool1Reserve1, pool1Reserve0);\r\n           \r\n\r\n        } else {\r\n            (lowerPool, higherPool) = (pool1, pool0);\r\n\r\n            \r\n            (orderedReserve.a1, orderedReserve.b1, orderedReserve.a2, orderedReserve.b2) = baseTokenSmaller ? (pool1Reserve0, pool1Reserve1, pool0Reserve0, pool0Reserve1) : (pool1Reserve1, pool1Reserve0, pool0Reserve1, pool0Reserve0);\r\n        }\r\n    }\r\n\r\n}",
  "sourcePath": "C:\\Users\\mcgra\\OneDrive\\Documents\\EthereumProgramming\\Bot\\contracts\\TradeOrder.sol",
  "compiler": {
    "name": "solc",
    "version": "0.7.6+commit.7338295f.Emscripten.clang"
  },
  "schemaVersion": "3.4.3",
  "updatedAt": "2021-11-19T07:34:57.530Z",
  "devdoc": {
    "kind": "dev",
    "methods": {},
    "version": 1
  },
  "userdoc": {
    "kind": "user",
    "methods": {
      "getOrderedReserves(address,address,bool)": {
        "notice": "We borrow base token by using flash swap from lower price pool and sell them to higher price pool"
      }
    },
    "version": 1
  }
}